{
  "_format": "hh-sol-artifact-1",
  "contractName": "LpToken",
  "sourceName": "contracts/LpToken.sol",
  "abi": [
    {
      "inputs": [
        {
          "internalType": "uint256",
          "name": "initialSupply",
          "type": "uint256"
        },
        {
          "internalType": "string",
          "name": "name",
          "type": "string"
        },
        {
          "internalType": "string",
          "name": "symbol",
          "type": "string"
        }
      ],
      "stateMutability": "nonpayable",
      "type": "constructor"
    },
    {
      "inputs": [
        {
          "internalType": "address",
          "name": "spender",
          "type": "address"
        },
        {
          "internalType": "uint256",
          "name": "allowance",
          "type": "uint256"
        },
        {
          "internalType": "uint256",
          "name": "needed",
          "type": "uint256"
        }
      ],
      "name": "ERC20InsufficientAllowance",
      "type": "error"
    },
    {
      "inputs": [
        {
          "internalType": "address",
          "name": "sender",
          "type": "address"
        },
        {
          "internalType": "uint256",
          "name": "balance",
          "type": "uint256"
        },
        {
          "internalType": "uint256",
          "name": "needed",
          "type": "uint256"
        }
      ],
      "name": "ERC20InsufficientBalance",
      "type": "error"
    },
    {
      "inputs": [
        {
          "internalType": "address",
          "name": "approver",
          "type": "address"
        }
      ],
      "name": "ERC20InvalidApprover",
      "type": "error"
    },
    {
      "inputs": [
        {
          "internalType": "address",
          "name": "receiver",
          "type": "address"
        }
      ],
      "name": "ERC20InvalidReceiver",
      "type": "error"
    },
    {
      "inputs": [
        {
          "internalType": "address",
          "name": "sender",
          "type": "address"
        }
      ],
      "name": "ERC20InvalidSender",
      "type": "error"
    },
    {
      "inputs": [
        {
          "internalType": "address",
          "name": "spender",
          "type": "address"
        }
      ],
      "name": "ERC20InvalidSpender",
      "type": "error"
    },
    {
      "inputs": [
        {
          "internalType": "address",
          "name": "owner",
          "type": "address"
        }
      ],
      "name": "OwnableInvalidOwner",
      "type": "error"
    },
    {
      "inputs": [
        {
          "internalType": "address",
          "name": "account",
          "type": "address"
        }
      ],
      "name": "OwnableUnauthorizedAccount",
      "type": "error"
    },
    {
      "anonymous": false,
      "inputs": [
        {
          "indexed": true,
          "internalType": "address",
          "name": "owner",
          "type": "address"
        },
        {
          "indexed": true,
          "internalType": "address",
          "name": "spender",
          "type": "address"
        },
        {
          "indexed": false,
          "internalType": "uint256",
          "name": "value",
          "type": "uint256"
        }
      ],
      "name": "Approval",
      "type": "event"
    },
    {
      "anonymous": false,
      "inputs": [
        {
          "indexed": true,
          "internalType": "address",
          "name": "previousOwner",
          "type": "address"
        },
        {
          "indexed": true,
          "internalType": "address",
          "name": "newOwner",
          "type": "address"
        }
      ],
      "name": "OwnershipTransferred",
      "type": "event"
    },
    {
      "anonymous": false,
      "inputs": [
        {
          "indexed": true,
          "internalType": "address",
          "name": "from",
          "type": "address"
        },
        {
          "indexed": true,
          "internalType": "address",
          "name": "to",
          "type": "address"
        },
        {
          "indexed": false,
          "internalType": "uint256",
          "name": "value",
          "type": "uint256"
        }
      ],
      "name": "Transfer",
      "type": "event"
    },
    {
      "inputs": [
        {
          "internalType": "address",
          "name": "owner",
          "type": "address"
        },
        {
          "internalType": "address",
          "name": "spender",
          "type": "address"
        }
      ],
      "name": "allowance",
      "outputs": [
        {
          "internalType": "uint256",
          "name": "",
          "type": "uint256"
        }
      ],
      "stateMutability": "view",
      "type": "function"
    },
    {
      "inputs": [
        {
          "internalType": "address",
          "name": "spender",
          "type": "address"
        },
        {
          "internalType": "uint256",
          "name": "value",
          "type": "uint256"
        }
      ],
      "name": "approve",
      "outputs": [
        {
          "internalType": "bool",
          "name": "",
          "type": "bool"
        }
      ],
      "stateMutability": "nonpayable",
      "type": "function"
    },
    {
      "inputs": [
        {
          "internalType": "address",
          "name": "account",
          "type": "address"
        }
      ],
      "name": "balanceOf",
      "outputs": [
        {
          "internalType": "uint256",
          "name": "",
          "type": "uint256"
        }
      ],
      "stateMutability": "view",
      "type": "function"
    },
    {
      "inputs": [
        {
          "internalType": "address",
          "name": "recipient",
          "type": "address"
        },
        {
          "internalType": "uint256",
          "name": "amount",
          "type": "uint256"
        }
      ],
      "name": "burn",
      "outputs": [],
      "stateMutability": "nonpayable",
      "type": "function"
    },
    {
      "inputs": [],
      "name": "decimals",
      "outputs": [
        {
          "internalType": "uint8",
          "name": "",
          "type": "uint8"
        }
      ],
      "stateMutability": "view",
      "type": "function"
    },
    {
      "inputs": [
        {
          "internalType": "address",
          "name": "recipient",
          "type": "address"
        },
        {
          "internalType": "uint256",
          "name": "amount",
          "type": "uint256"
        }
      ],
      "name": "mint",
      "outputs": [],
      "stateMutability": "nonpayable",
      "type": "function"
    },
    {
      "inputs": [],
      "name": "name",
      "outputs": [
        {
          "internalType": "string",
          "name": "",
          "type": "string"
        }
      ],
      "stateMutability": "view",
      "type": "function"
    },
    {
      "inputs": [],
      "name": "owner",
      "outputs": [
        {
          "internalType": "address",
          "name": "",
          "type": "address"
        }
      ],
      "stateMutability": "view",
      "type": "function"
    },
    {
      "inputs": [],
      "name": "renounceOwnership",
      "outputs": [],
      "stateMutability": "nonpayable",
      "type": "function"
    },
    {
      "inputs": [],
      "name": "symbol",
      "outputs": [
        {
          "internalType": "string",
          "name": "",
          "type": "string"
        }
      ],
      "stateMutability": "view",
      "type": "function"
    },
    {
      "inputs": [],
      "name": "totalSupply",
      "outputs": [
        {
          "internalType": "uint256",
          "name": "",
          "type": "uint256"
        }
      ],
      "stateMutability": "view",
      "type": "function"
    },
    {
      "inputs": [
        {
          "internalType": "address",
          "name": "to",
          "type": "address"
        },
        {
          "internalType": "uint256",
          "name": "value",
          "type": "uint256"
        }
      ],
      "name": "transfer",
      "outputs": [
        {
          "internalType": "bool",
          "name": "",
          "type": "bool"
        }
      ],
      "stateMutability": "nonpayable",
      "type": "function"
    },
    {
      "inputs": [
        {
          "internalType": "address",
          "name": "from",
          "type": "address"
        },
        {
          "internalType": "address",
          "name": "to",
          "type": "address"
        },
        {
          "internalType": "uint256",
          "name": "value",
          "type": "uint256"
        }
      ],
      "name": "transferFrom",
      "outputs": [
        {
          "internalType": "bool",
          "name": "",
          "type": "bool"
        }
      ],
      "stateMutability": "nonpayable",
      "type": "function"
    },
    {
      "inputs": [
        {
          "internalType": "address",
          "name": "newOwner",
          "type": "address"
        }
      ],
      "name": "transferOwnership",
      "outputs": [],
      "stateMutability": "nonpayable",
      "type": "function"
    }
  ],
  "bytecode": "0x60806040523480156200001157600080fd5b5060405162001dda38038062001dda833981810160405281019062000037919062000653565b33828281600390816200004b91906200092e565b5080600490816200005d91906200092e565b505050600073ffffffffffffffffffffffffffffffffffffffff168173ffffffffffffffffffffffffffffffffffffffff1603620000d55760006040517f1e4fbdf7000000000000000000000000000000000000000000000000000000008152600401620000cc919062000a5a565b60405180910390fd5b620000e6816200010260201b60201c565b50620000f93384620001c860201b60201c565b50505062000b4c565b6000600560009054906101000a900473ffffffffffffffffffffffffffffffffffffffff16905081600560006101000a81548173ffffffffffffffffffffffffffffffffffffffff021916908373ffffffffffffffffffffffffffffffffffffffff1602179055508173ffffffffffffffffffffffffffffffffffffffff168173ffffffffffffffffffffffffffffffffffffffff167f8be0079c531659141344cd1fd0a4f28419497f9722a3daafe3b4186f6b6457e060405160405180910390a35050565b600073ffffffffffffffffffffffffffffffffffffffff168273ffffffffffffffffffffffffffffffffffffffff16036200023d5760006040517fec442f0500000000000000000000000000000000000000000000000000000000815260040162000234919062000a5a565b60405180910390fd5b62000251600083836200025560201b60201c565b5050565b600073ffffffffffffffffffffffffffffffffffffffff168373ffffffffffffffffffffffffffffffffffffffff1603620002ab5780600260008282546200029e919062000aa6565b9250508190555062000381565b60008060008573ffffffffffffffffffffffffffffffffffffffff1673ffffffffffffffffffffffffffffffffffffffff168152602001908152602001600020549050818110156200033a578381836040517fe450d38c000000000000000000000000000000000000000000000000000000008152600401620003319392919062000af2565b60405180910390fd5b8181036000808673ffffffffffffffffffffffffffffffffffffffff1673ffffffffffffffffffffffffffffffffffffffff16815260200190815260200160002081905550505b600073ffffffffffffffffffffffffffffffffffffffff168273ffffffffffffffffffffffffffffffffffffffff1603620003cc578060026000828254039250508190555062000419565b806000808473ffffffffffffffffffffffffffffffffffffffff1673ffffffffffffffffffffffffffffffffffffffff168152602001908152602001600020600082825401925050819055505b8173ffffffffffffffffffffffffffffffffffffffff168373ffffffffffffffffffffffffffffffffffffffff167fddf252ad1be2c89b69c2b068fc378daa952ba7f163c4a11628f55a4df523b3ef8360405162000478919062000b2f565b60405180910390a3505050565b6000604051905090565b600080fd5b600080fd5b6000819050919050565b620004ae8162000499565b8114620004ba57600080fd5b50565b600081519050620004ce81620004a3565b92915050565b600080fd5b600080fd5b6000601f19601f8301169050919050565b7f4e487b7100000000000000000000000000000000000000000000000000000000600052604160045260246000fd5b6200052982620004de565b810181811067ffffffffffffffff821117156200054b576200054a620004ef565b5b80604052505050565b60006200056062000485565b90506200056e82826200051e565b919050565b600067ffffffffffffffff821115620005915762000590620004ef565b5b6200059c82620004de565b9050602081019050919050565b60005b83811015620005c9578082015181840152602081019050620005ac565b60008484015250505050565b6000620005ec620005e68462000573565b62000554565b9050828152602081018484840111156200060b576200060a620004d9565b5b62000618848285620005a9565b509392505050565b600082601f830112620006385762000637620004d4565b5b81516200064a848260208601620005d5565b91505092915050565b6000806000606084860312156200066f576200066e6200048f565b5b60006200067f86828701620004bd565b935050602084015167ffffffffffffffff811115620006a357620006a262000494565b5b620006b18682870162000620565b925050604084015167ffffffffffffffff811115620006d557620006d462000494565b5b620006e38682870162000620565b9150509250925092565b600081519050919050565b7f4e487b7100000000000000000000000000000000000000000000000000000000600052602260045260246000fd5b600060028204905060018216806200074057607f821691505b602082108103620007565762000755620006f8565b5b50919050565b60008190508160005260206000209050919050565b60006020601f8301049050919050565b600082821b905092915050565b600060088302620007c07fffffffffffffffffffffffffffffffffffffffffffffffffffffffffffffffff8262000781565b620007cc868362000781565b95508019841693508086168417925050509392505050565b6000819050919050565b60006200080f62000809620008038462000499565b620007e4565b62000499565b9050919050565b6000819050919050565b6200082b83620007ee565b620008436200083a8262000816565b8484546200078e565b825550505050565b600090565b6200085a6200084b565b6200086781848462000820565b505050565b5b818110156200088f576200088360008262000850565b6001810190506200086d565b5050565b601f821115620008de57620008a8816200075c565b620008b38462000771565b81016020851015620008c3578190505b620008db620008d28562000771565b8301826200086c565b50505b505050565b600082821c905092915050565b60006200090360001984600802620008e3565b1980831691505092915050565b60006200091e8383620008f0565b9150826002028217905092915050565b6200093982620006ed565b67ffffffffffffffff811115620009555762000954620004ef565b5b62000961825462000727565b6200096e82828562000893565b600060209050601f831160018114620009a6576000841562000991578287015190505b6200099d858262000910565b86555062000a0d565b601f198416620009b6866200075c565b60005b82811015620009e057848901518255600182019150602085019450602081019050620009b9565b8683101562000a005784890151620009fc601f891682620008f0565b8355505b6001600288020188555050505b505050505050565b600073ffffffffffffffffffffffffffffffffffffffff82169050919050565b600062000a428262000a15565b9050919050565b62000a548162000a35565b82525050565b600060208201905062000a71600083018462000a49565b92915050565b7f4e487b7100000000000000000000000000000000000000000000000000000000600052601160045260246000fd5b600062000ab38262000499565b915062000ac08362000499565b925082820190508082111562000adb5762000ada62000a77565b5b92915050565b62000aec8162000499565b82525050565b600060608201905062000b09600083018662000a49565b62000b18602083018562000ae1565b62000b27604083018462000ae1565b949350505050565b600060208201905062000b46600083018462000ae1565b92915050565b61127e8062000b5c6000396000f3fe608060405234801561001057600080fd5b50600436106100ea5760003560e01c8063715018a61161008c5780639dc29fac116100665780639dc29fac1461023b578063a9059cbb14610257578063dd62ed3e14610287578063f2fde38b146102b7576100ea565b8063715018a6146101f55780638da5cb5b146101ff57806395d89b411461021d576100ea565b806323b872dd116100c857806323b872dd1461015b578063313ce5671461018b57806340c10f19146101a957806370a08231146101c5576100ea565b806306fdde03146100ef578063095ea7b31461010d57806318160ddd1461013d575b600080fd5b6100f76102d3565b6040516101049190610ed2565b60405180910390f35b61012760048036038101906101229190610f8d565b610365565b6040516101349190610fe8565b60405180910390f35b610145610388565b6040516101529190611012565b60405180910390f35b6101756004803603810190610170919061102d565b610392565b6040516101829190610fe8565b60405180910390f35b6101936103c1565b6040516101a0919061109c565b60405180910390f35b6101c360048036038101906101be9190610f8d565b6103ca565b005b6101df60048036038101906101da91906110b7565b6103e0565b6040516101ec9190611012565b60405180910390f35b6101fd610428565b005b61020761043c565b60405161021491906110f3565b60405180910390f35b610225610466565b6040516102329190610ed2565b60405180910390f35b61025560048036038101906102509190610f8d565b6104f8565b005b610271600480360381019061026c9190610f8d565b610523565b60405161027e9190610fe8565b60405180910390f35b6102a1600480360381019061029c919061110e565b610546565b6040516102ae9190611012565b60405180910390f35b6102d160048036038101906102cc91906110b7565b6105cd565b005b6060600380546102e29061117d565b80601f016020809104026020016040519081016040528092919081815260200182805461030e9061117d565b801561035b5780601f106103305761010080835404028352916020019161035b565b820191906000526020600020905b81548152906001019060200180831161033e57829003601f168201915b5050505050905090565b600080610370610653565b905061037d81858561065b565b600191505092915050565b6000600254905090565b60008061039d610653565b90506103aa85828561066d565b6103b5858585610701565b60019150509392505050565b60006012905090565b6103d26107f5565b6103dc828261087c565b5050565b60008060008373ffffffffffffffffffffffffffffffffffffffff1673ffffffffffffffffffffffffffffffffffffffff168152602001908152602001600020549050919050565b6104306107f5565b61043a60006108fe565b565b6000600560009054906101000a900473ffffffffffffffffffffffffffffffffffffffff16905090565b6060600480546104759061117d565b80601f01602080910402602001604051908101604052809291908181526020018280546104a19061117d565b80156104ee5780601f106104c3576101008083540402835291602001916104ee565b820191906000526020600020905b8154815290600101906020018083116104d157829003601f168201915b5050505050905090565b6105006107f5565b8061050a836103e0565b101561051557600080fd5b61051f82826109c4565b5050565b60008061052e610653565b905061053b818585610701565b600191505092915050565b6000600160008473ffffffffffffffffffffffffffffffffffffffff1673ffffffffffffffffffffffffffffffffffffffff16815260200190815260200160002060008373ffffffffffffffffffffffffffffffffffffffff1673ffffffffffffffffffffffffffffffffffffffff16815260200190815260200160002054905092915050565b6105d56107f5565b600073ffffffffffffffffffffffffffffffffffffffff168173ffffffffffffffffffffffffffffffffffffffff16036106475760006040517f1e4fbdf700000000000000000000000000000000000000000000000000000000815260040161063e91906110f3565b60405180910390fd5b610650816108fe565b50565b600033905090565b6106688383836001610a46565b505050565b60006106798484610546565b90507fffffffffffffffffffffffffffffffffffffffffffffffffffffffffffffffff81146106fb57818110156106eb578281836040517ffb8f41b20000000000000000000000000000000000000000000000000000000081526004016106e2939291906111ae565b60405180910390fd5b6106fa84848484036000610a46565b5b50505050565b600073ffffffffffffffffffffffffffffffffffffffff168373ffffffffffffffffffffffffffffffffffffffff16036107735760006040517f96c6fd1e00000000000000000000000000000000000000000000000000000000815260040161076a91906110f3565b60405180910390fd5b600073ffffffffffffffffffffffffffffffffffffffff168273ffffffffffffffffffffffffffffffffffffffff16036107e55760006040517fec442f050000000000000000000000000000000000000000000000000000000081526004016107dc91906110f3565b60405180910390fd5b6107f0838383610c1d565b505050565b6107fd610653565b73ffffffffffffffffffffffffffffffffffffffff1661081b61043c565b73ffffffffffffffffffffffffffffffffffffffff161461087a5761083e610653565b6040517f118cdaa700000000000000000000000000000000000000000000000000000000815260040161087191906110f3565b60405180910390fd5b565b600073ffffffffffffffffffffffffffffffffffffffff168273ffffffffffffffffffffffffffffffffffffffff16036108ee5760006040517fec442f050000000000000000000000000000000000000000000000000000000081526004016108e591906110f3565b60405180910390fd5b6108fa60008383610c1d565b5050565b6000600560009054906101000a900473ffffffffffffffffffffffffffffffffffffffff16905081600560006101000a81548173ffffffffffffffffffffffffffffffffffffffff021916908373ffffffffffffffffffffffffffffffffffffffff1602179055508173ffffffffffffffffffffffffffffffffffffffff168173ffffffffffffffffffffffffffffffffffffffff167f8be0079c531659141344cd1fd0a4f28419497f9722a3daafe3b4186f6b6457e060405160405180910390a35050565b600073ffffffffffffffffffffffffffffffffffffffff168273ffffffffffffffffffffffffffffffffffffffff1603610a365760006040517f96c6fd1e000000000000000000000000000000000000000000000000000000008152600401610a2d91906110f3565b60405180910390fd5b610a4282600083610c1d565b5050565b600073ffffffffffffffffffffffffffffffffffffffff168473ffffffffffffffffffffffffffffffffffffffff1603610ab85760006040517fe602df05000000000000000000000000000000000000000000000000000000008152600401610aaf91906110f3565b60405180910390fd5b600073ffffffffffffffffffffffffffffffffffffffff168373ffffffffffffffffffffffffffffffffffffffff1603610b2a5760006040517f94280d62000000000000000000000000000000000000000000000000000000008152600401610b2191906110f3565b60405180910390fd5b81600160008673ffffffffffffffffffffffffffffffffffffffff1673ffffffffffffffffffffffffffffffffffffffff16815260200190815260200160002060008573ffffffffffffffffffffffffffffffffffffffff1673ffffffffffffffffffffffffffffffffffffffff168152602001908152602001600020819055508015610c17578273ffffffffffffffffffffffffffffffffffffffff168473ffffffffffffffffffffffffffffffffffffffff167f8c5be1e5ebec7d5bd14f71427d1e84f3dd0314c0f7b2291e5b200ac8c7c3b92584604051610c0e9190611012565b60405180910390a35b50505050565b600073ffffffffffffffffffffffffffffffffffffffff168373ffffffffffffffffffffffffffffffffffffffff1603610c6f578060026000828254610c639190611214565b92505081905550610d42565b60008060008573ffffffffffffffffffffffffffffffffffffffff1673ffffffffffffffffffffffffffffffffffffffff16815260200190815260200160002054905081811015610cfb578381836040517fe450d38c000000000000000000000000000000000000000000000000000000008152600401610cf2939291906111ae565b60405180910390fd5b8181036000808673ffffffffffffffffffffffffffffffffffffffff1673ffffffffffffffffffffffffffffffffffffffff16815260200190815260200160002081905550505b600073ffffffffffffffffffffffffffffffffffffffff168273ffffffffffffffffffffffffffffffffffffffff1603610d8b5780600260008282540392505081905550610dd8565b806000808473ffffffffffffffffffffffffffffffffffffffff1673ffffffffffffffffffffffffffffffffffffffff168152602001908152602001600020600082825401925050819055505b8173ffffffffffffffffffffffffffffffffffffffff168373ffffffffffffffffffffffffffffffffffffffff167fddf252ad1be2c89b69c2b068fc378daa952ba7f163c4a11628f55a4df523b3ef83604051610e359190611012565b60405180910390a3505050565b600081519050919050565b600082825260208201905092915050565b60005b83811015610e7c578082015181840152602081019050610e61565b60008484015250505050565b6000601f19601f8301169050919050565b6000610ea482610e42565b610eae8185610e4d565b9350610ebe818560208601610e5e565b610ec781610e88565b840191505092915050565b60006020820190508181036000830152610eec8184610e99565b905092915050565b600080fd5b600073ffffffffffffffffffffffffffffffffffffffff82169050919050565b6000610f2482610ef9565b9050919050565b610f3481610f19565b8114610f3f57600080fd5b50565b600081359050610f5181610f2b565b92915050565b6000819050919050565b610f6a81610f57565b8114610f7557600080fd5b50565b600081359050610f8781610f61565b92915050565b60008060408385031215610fa457610fa3610ef4565b5b6000610fb285828601610f42565b9250506020610fc385828601610f78565b9150509250929050565b60008115159050919050565b610fe281610fcd565b82525050565b6000602082019050610ffd6000830184610fd9565b92915050565b61100c81610f57565b82525050565b60006020820190506110276000830184611003565b92915050565b60008060006060848603121561104657611045610ef4565b5b600061105486828701610f42565b935050602061106586828701610f42565b925050604061107686828701610f78565b9150509250925092565b600060ff82169050919050565b61109681611080565b82525050565b60006020820190506110b1600083018461108d565b92915050565b6000602082840312156110cd576110cc610ef4565b5b60006110db84828501610f42565b91505092915050565b6110ed81610f19565b82525050565b600060208201905061110860008301846110e4565b92915050565b6000806040838503121561112557611124610ef4565b5b600061113385828601610f42565b925050602061114485828601610f42565b9150509250929050565b7f4e487b7100000000000000000000000000000000000000000000000000000000600052602260045260246000fd5b6000600282049050600182168061119557607f821691505b6020821081036111a8576111a761114e565b5b50919050565b60006060820190506111c360008301866110e4565b6111d06020830185611003565b6111dd6040830184611003565b949350505050565b7f4e487b7100000000000000000000000000000000000000000000000000000000600052601160045260246000fd5b600061121f82610f57565b915061122a83610f57565b9250828201905080821115611242576112416111e5565b5b9291505056fea2646970667358221220074e0cd9a6ca0afc63b97ee6334eaf6c4d5868103a3f2d14160b12807b7f2dd064736f6c63430008140033",
  "linkReferences": {},
  "deployedLinkReferences": {}
}