{
  "_format": "hh-sol-artifact-1",
  "contractName": "DynamicLiquidityPool",
  "sourceName": "contracts/modifiedPool.sol",
  "abi": [
    {
      "inputs": [
        {
          "internalType": "address",
          "name": "_t1",
          "type": "address"
        },
        {
          "internalType": "address",
          "name": "_t2",
          "type": "address"
        },
        {
          "internalType": "address",
          "name": "_lptoken",
          "type": "address"
        }
      ],
      "stateMutability": "nonpayable",
      "type": "constructor"
    },
    {
      "inputs": [
        {
          "internalType": "uint256",
          "name": "_amount1",
          "type": "uint256"
        },
        {
          "internalType": "uint256",
          "name": "_amount2",
          "type": "uint256"
        },
        {
          "internalType": "uint256",
          "name": "slippage",
          "type": "uint256"
        }
      ],
      "name": "addLiquidity",
      "outputs": [
        {
          "internalType": "uint256",
          "name": "shares",
          "type": "uint256"
        }
      ],
      "stateMutability": "nonpayable",
      "type": "function"
    },
    {
      "inputs": [],
      "name": "average_external_ratio",
      "outputs": [
        {
          "internalType": "uint256",
          "name": "",
          "type": "uint256"
        }
      ],
      "stateMutability": "view",
      "type": "function"
    },
    {
      "inputs": [],
      "name": "baseFee",
      "outputs": [
        {
          "internalType": "uint256",
          "name": "",
          "type": "uint256"
        }
      ],
      "stateMutability": "view",
      "type": "function"
    },
    {
      "inputs": [],
      "name": "calculateNewSwapFee",
      "outputs": [
        {
          "internalType": "string",
          "name": "",
          "type": "string"
        }
      ],
      "stateMutability": "nonpayable",
      "type": "function"
    },
    {
      "inputs": [
        {
          "internalType": "uint256",
          "name": "countIn",
          "type": "uint256"
        },
        {
          "internalType": "uint256",
          "name": "inReserve",
          "type": "uint256"
        },
        {
          "internalType": "uint256",
          "name": "outReserve",
          "type": "uint256"
        }
      ],
      "name": "calculateSwap",
      "outputs": [
        {
          "internalType": "uint256",
          "name": "amountOut",
          "type": "uint256"
        }
      ],
      "stateMutability": "view",
      "type": "function"
    },
    {
      "inputs": [],
      "name": "callToken",
      "outputs": [
        {
          "internalType": "uint256",
          "name": "",
          "type": "uint256"
        }
      ],
      "stateMutability": "view",
      "type": "function"
    },
    {
      "inputs": [
        {
          "internalType": "uint256",
          "name": "",
          "type": "uint256"
        }
      ],
      "name": "dataPoints",
      "outputs": [
        {
          "internalType": "uint256",
          "name": "",
          "type": "uint256"
        }
      ],
      "stateMutability": "view",
      "type": "function"
    },
    {
      "inputs": [],
      "name": "getChainlinkDataFeedLatestAnswer",
      "outputs": [
        {
          "internalType": "uint256",
          "name": "",
          "type": "uint256"
        }
      ],
      "stateMutability": "view",
      "type": "function"
    },
    {
      "inputs": [],
      "name": "getDataPoints",
      "outputs": [
        {
          "internalType": "uint256[]",
          "name": "",
          "type": "uint256[]"
        }
      ],
      "stateMutability": "view",
      "type": "function"
    },
    {
      "inputs": [],
      "name": "getReserveRatio",
      "outputs": [
        {
          "internalType": "uint256",
          "name": "",
          "type": "uint256"
        }
      ],
      "stateMutability": "view",
      "type": "function"
    },
    {
      "inputs": [],
      "name": "lastFetchedExternalRatio",
      "outputs": [
        {
          "internalType": "uint256",
          "name": "",
          "type": "uint256"
        }
      ],
      "stateMutability": "view",
      "type": "function"
    },
    {
      "inputs": [],
      "name": "lockPeriod",
      "outputs": [
        {
          "internalType": "uint256",
          "name": "",
          "type": "uint256"
        }
      ],
      "stateMutability": "view",
      "type": "function"
    },
    {
      "inputs": [],
      "name": "lptoken",
      "outputs": [
        {
          "internalType": "contract LpToken",
          "name": "",
          "type": "address"
        }
      ],
      "stateMutability": "view",
      "type": "function"
    },
    {
      "inputs": [],
      "name": "precision",
      "outputs": [
        {
          "internalType": "uint256",
          "name": "",
          "type": "uint256"
        }
      ],
      "stateMutability": "view",
      "type": "function"
    },
    {
      "inputs": [],
      "name": "recent_swaps",
      "outputs": [
        {
          "internalType": "uint256",
          "name": "",
          "type": "uint256"
        }
      ],
      "stateMutability": "view",
      "type": "function"
    },
    {
      "inputs": [
        {
          "internalType": "uint256",
          "name": "_shareCount",
          "type": "uint256"
        }
      ],
      "name": "removeLiquidity",
      "outputs": [
        {
          "internalType": "uint256",
          "name": "token1Amount",
          "type": "uint256"
        },
        {
          "internalType": "uint256",
          "name": "token2Amount",
          "type": "uint256"
        }
      ],
      "stateMutability": "nonpayable",
      "type": "function"
    },
    {
      "inputs": [
        {
          "internalType": "uint256",
          "name": "_ratio",
          "type": "uint256"
        }
      ],
      "name": "setExternalRatio",
      "outputs": [],
      "stateMutability": "nonpayable",
      "type": "function"
    },
    {
      "inputs": [
        {
          "internalType": "address",
          "name": "_LPToken",
          "type": "address"
        }
      ],
      "name": "setLPTokenAddress",
      "outputs": [],
      "stateMutability": "nonpayable",
      "type": "function"
    },
    {
      "inputs": [
        {
          "internalType": "uint256",
          "name": "_reserve1",
          "type": "uint256"
        }
      ],
      "name": "setReserve1",
      "outputs": [
        {
          "internalType": "uint256",
          "name": "",
          "type": "uint256"
        }
      ],
      "stateMutability": "nonpayable",
      "type": "function"
    },
    {
      "inputs": [
        {
          "internalType": "uint256",
          "name": "_reserve2",
          "type": "uint256"
        }
      ],
      "name": "setReserve2",
      "outputs": [
        {
          "internalType": "uint256",
          "name": "",
          "type": "uint256"
        }
      ],
      "stateMutability": "nonpayable",
      "type": "function"
    },
    {
      "inputs": [
        {
          "internalType": "address",
          "name": "_token",
          "type": "address"
        },
        {
          "internalType": "uint256",
          "name": "countIn",
          "type": "uint256"
        },
        {
          "internalType": "uint256",
          "name": "slippage_minimum",
          "type": "uint256"
        }
      ],
      "name": "slippage_swap",
      "outputs": [
        {
          "internalType": "bool",
          "name": "success",
          "type": "bool"
        }
      ],
      "stateMutability": "nonpayable",
      "type": "function"
    },
    {
      "inputs": [
        {
          "internalType": "address",
          "name": "_token",
          "type": "address"
        },
        {
          "internalType": "uint256",
          "name": "countIn",
          "type": "uint256"
        }
      ],
      "name": "swap",
      "outputs": [
        {
          "internalType": "uint256",
          "name": "amountOut",
          "type": "uint256"
        }
      ],
      "stateMutability": "nonpayable",
      "type": "function"
    },
    {
      "inputs": [],
      "name": "token1",
      "outputs": [
        {
          "internalType": "contract ERC20",
          "name": "",
          "type": "address"
        }
      ],
      "stateMutability": "view",
      "type": "function"
    },
    {
      "inputs": [],
      "name": "token1_reserve",
      "outputs": [
        {
          "internalType": "uint256",
          "name": "",
          "type": "uint256"
        }
      ],
      "stateMutability": "view",
      "type": "function"
    },
    {
      "inputs": [],
      "name": "token2",
      "outputs": [
        {
          "internalType": "contract ERC20",
          "name": "",
          "type": "address"
        }
      ],
      "stateMutability": "view",
      "type": "function"
    },
    {
      "inputs": [],
      "name": "token2_reserve",
      "outputs": [
        {
          "internalType": "uint256",
          "name": "",
          "type": "uint256"
        }
      ],
      "stateMutability": "view",
      "type": "function"
    },
    {
      "inputs": [
        {
          "internalType": "uint256",
          "name": "amount",
          "type": "uint256"
        }
      ],
      "name": "withFee",
      "outputs": [
        {
          "internalType": "uint256",
          "name": "",
          "type": "uint256"
        }
      ],
      "stateMutability": "view",
      "type": "function"
    }
  ],
  "bytecode": "0x6080604052601e60005560006006556000600755670de0b6b3a7640000600855666a94d74f43000060095542600b556000600c556000600e553480156200004557600080fd5b506040516200312e3803806200312e83398181016040528101906200006b9190620001a1565b82600460006101000a81548173ffffffffffffffffffffffffffffffffffffffff021916908373ffffffffffffffffffffffffffffffffffffffff16021790555081600560006101000a81548173ffffffffffffffffffffffffffffffffffffffff021916908373ffffffffffffffffffffffffffffffffffffffff16021790555080600360006101000a81548173ffffffffffffffffffffffffffffffffffffffff021916908373ffffffffffffffffffffffffffffffffffffffff160217905550505050620001fd565b600080fd5b600073ffffffffffffffffffffffffffffffffffffffff82169050919050565b600062000169826200013c565b9050919050565b6200017b816200015c565b81146200018757600080fd5b50565b6000815190506200019b8162000170565b92915050565b600080600060608486031215620001bd57620001bc62000137565b5b6000620001cd868287016200018a565b9350506020620001e0868287016200018a565b9250506040620001f3868287016200018a565b9150509250925092565b612f21806200020d6000396000f3fe608060405234801561001057600080fd5b50600436106101a95760003560e01c80639b67684f116100f9578063d21220a711610097578063ec6341b311610071578063ec6341b3146104ef578063f363393b1461051f578063f42ebbe01461053d578063ff7fd41014610559576101a9565b8063d21220a714610495578063d3b5dc3b146104b3578063de931662146104d1576101a9565b8063bea4dfb5116100d3578063bea4dfb5146103f9578063c773aab414610417578063ce96766a14610447578063d004f0f714610465576101a9565b80639b67684f146103685780639c8f9f2314610398578063a6782b4b146103c9576101a9565b80634d1fb8a611610166578063668886241161014057806366888624146102f25780636bf627a3146103105780636ef25c3a1461032c57806389d27eb51461034a576101a9565b80634d1fb8a61461029857806355424308146102b657806356b6d0d5146102d4576101a9565b8063255021a2146101ae57806325be124e146101de5780633d65ce58146101fc5780633fd8b02f1461022c578063422f10431461024a5780634be6ab341461027a575b600080fd5b6101c860048036038101906101c39190612456565b610577565b6040516101d59190612492565b60405180910390f35b6101e66105b9565b6040516101f3919061252c565b60405180910390f35b61021660048036038101906102119190612456565b6105df565b6040516102239190612492565b60405180910390f35b6102346105f2565b6040516102419190612492565b60405180910390f35b610264600480360381019061025f9190612547565b6105f8565b6040516102719190612492565b60405180910390f35b610282610a2f565b60405161028f9190612492565b60405180910390f35b6102a0610a35565b6040516102ad9190612492565b60405180910390f35b6102be610a3b565b6040516102cb9190612492565b60405180910390f35b6102dc610a41565b6040516102e99190612492565b60405180910390f35b6102fa610a87565b6040516103079190612658565b60405180910390f35b61032a60048036038101906103259190612456565b610adf565b005b610334610ae9565b6040516103419190612492565b60405180910390f35b610352610aef565b60405161035f9190612492565b60405180910390f35b610382600480360381019061037d9190612456565b610af5565b60405161038f9190612492565b60405180910390f35b6103b260048036038101906103ad9190612456565b610b08565b6040516103c092919061267a565b60405180910390f35b6103e360048036038101906103de9190612456565b61115c565b6040516103f09190612492565b60405180910390f35b610401611180565b60405161040e9190612492565b60405180910390f35b610431600480360381019061042c91906126e1565b61118a565b60405161043e919061274f565b60405180910390f35b61044f61161f565b60405161045c9190612492565b60405180910390f35b61047f600480360381019061047a919061276a565b611625565b60405161048c9190612492565b60405180910390f35b61049d611ae3565b6040516104aa919061252c565b60405180910390f35b6104bb611b09565b6040516104c89190612492565b60405180910390f35b6104d9611b0f565b6040516104e69190612492565b60405180910390f35b61050960048036038101906105049190612547565b611bac565b6040516105169190612492565b60405180910390f35b610527611be6565b60405161053491906127cb565b60405180910390f35b610557600480360381019061055291906127e6565b611c0c565b005b610561611c50565b60405161056e91906128a3565b60405180910390f35b600080670de0b6b3a7640000600954670de0b6b3a764000061059991906128f4565b846105a49190612928565b6105ae9190612999565b905080915050919050565b600560009054906101000a900473ffffffffffffffffffffffffffffffffffffffff1681565b6000816007819055506007549050919050565b60005481565b600080841180156106095750600083115b61061257600080fd5b6000600654118061062557506000600754115b1561066057600654836106389190612928565b600754856106469190612928565b1461065f57610656848484611d6e565b80945081955050505b5b600460009054906101000a900473ffffffffffffffffffffffffffffffffffffffff1673ffffffffffffffffffffffffffffffffffffffff166323b872dd3330876040518463ffffffff1660e01b81526004016106bf939291906129d9565b6020604051808303816000875af11580156106de573d6000803e3d6000fd5b505050506040513d601f19601f820116820180604052508101906107029190612a3c565b50600560009054906101000a900473ffffffffffffffffffffffffffffffffffffffff1673ffffffffffffffffffffffffffffffffffffffff166323b872dd3330866040518463ffffffff1660e01b8152600401610762939291906129d9565b6020604051808303816000875af1158015610781573d6000803e3d6000fd5b505050506040513d601f19601f820116820180604052508101906107a59190612a3c565b506000600360009054906101000a900473ffffffffffffffffffffffffffffffffffffffff1673ffffffffffffffffffffffffffffffffffffffff166318160ddd6040518163ffffffff1660e01b8152600401602060405180830381865afa158015610815573d6000803e3d6000fd5b505050506040513d601f19601f820116820180604052508101906108399190612a7e565b90506000810361085e5761085784866108529190612928565b611e8c565b915061089b565b61089860065482876108709190612928565b61087a9190612999565b60075483876108899190612928565b6108939190612999565b611f06565b91505b600082116108de576040517f08c379a00000000000000000000000000000000000000000000000000000000081526004016108d590612b1d565b60405180910390fd5b610a1e600460009054906101000a900473ffffffffffffffffffffffffffffffffffffffff1673ffffffffffffffffffffffffffffffffffffffff166370a08231306040518263ffffffff1660e01b815260040161093c9190612b3d565b602060405180830381865afa158015610959573d6000803e3d6000fd5b505050506040513d601f19601f8201168201806040525081019061097d9190612a7e565b600560009054906101000a900473ffffffffffffffffffffffffffffffffffffffff1673ffffffffffffffffffffffffffffffffffffffff166370a08231306040518263ffffffff1660e01b81526004016109d89190612b3d565b602060405180830381865afa1580156109f5573d6000803e3d6000fd5b505050506040513d601f19601f82011682018060405250810190610a199190612a7e565b611f20565b610a2782611f32565b509392505050565b60065481565b600e5481565b60075481565b600080600654118015610a5657506000600754115b610a5f57600080fd5b6000600754600854600654610a749190612928565b610a7e9190612999565b90508091505090565b6060600a805480602002602001604051908101604052809291908181526020018280548015610ad557602002820191906000526020600020905b815481526020019060010190808311610ac1575b5050505050905090565b80600c8190555050565b60095481565b600c5481565b6000816006819055506006549050919050565b6000806000600360009054906101000a900473ffffffffffffffffffffffffffffffffffffffff1673ffffffffffffffffffffffffffffffffffffffff166370a08231336040518263ffffffff1660e01b8152600401610b689190612b3d565b602060405180830381865afa158015610b85573d6000803e3d6000fd5b505050506040513d601f19601f82011682018060405250810190610ba99190612a7e565b905080841115610bee576040517f08c379a0000000000000000000000000000000000000000000000000000000008152600401610be590612bca565b60405180910390fd5b6000600160003373ffffffffffffffffffffffffffffffffffffffff1673ffffffffffffffffffffffffffffffffffffffff16815260200190815260200160002060000154118015610c825750600160003373ffffffffffffffffffffffffffffffffffffffff1673ffffffffffffffffffffffffffffffffffffffff168152602001908152602001600020600001548411155b610cc1576040517f08c379a0000000000000000000000000000000000000000000000000000000008152600401610cb890612c36565b60405180910390fd5b6000600360009054906101000a900473ffffffffffffffffffffffffffffffffffffffff1673ffffffffffffffffffffffffffffffffffffffff166318160ddd6040518163ffffffff1660e01b8152600401602060405180830381865afa158015610d30573d6000803e3d6000fd5b505050506040513d601f19601f82011682018060405250810190610d549190612a7e565b90506000600460009054906101000a900473ffffffffffffffffffffffffffffffffffffffff1673ffffffffffffffffffffffffffffffffffffffff166370a08231306040518263ffffffff1660e01b8152600401610db39190612b3d565b602060405180830381865afa158015610dd0573d6000803e3d6000fd5b505050506040513d601f19601f82011682018060405250810190610df49190612a7e565b90506000600560009054906101000a900473ffffffffffffffffffffffffffffffffffffffff1673ffffffffffffffffffffffffffffffffffffffff166370a08231306040518263ffffffff1660e01b8152600401610e539190612b3d565b602060405180830381865afa158015610e70573d6000803e3d6000fd5b505050506040513d601f19601f82011682018060405250810190610e949190612a7e565b9050828783610ea39190612928565b610ead9190612999565b9550828782610ebc9190612928565b610ec69190612999565b9450600460009054906101000a900473ffffffffffffffffffffffffffffffffffffffff1673ffffffffffffffffffffffffffffffffffffffff1663a9059cbb33886040518363ffffffff1660e01b8152600401610f25929190612c56565b6020604051808303816000875af1158015610f44573d6000803e3d6000fd5b505050506040513d601f19601f82011682018060405250810190610f689190612a3c565b50600560009054906101000a900473ffffffffffffffffffffffffffffffffffffffff1673ffffffffffffffffffffffffffffffffffffffff1663a9059cbb33876040518363ffffffff1660e01b8152600401610fc6929190612c56565b6020604051808303816000875af1158015610fe5573d6000803e3d6000fd5b505050506040513d601f19601f820116820180604052508101906110099190612a3c565b5061114a600460009054906101000a900473ffffffffffffffffffffffffffffffffffffffff1673ffffffffffffffffffffffffffffffffffffffff166370a08231306040518263ffffffff1660e01b81526004016110689190612b3d565b602060405180830381865afa158015611085573d6000803e3d6000fd5b505050506040513d601f19601f820116820180604052508101906110a99190612a7e565b600560009054906101000a900473ffffffffffffffffffffffffffffffffffffffff1673ffffffffffffffffffffffffffffffffffffffff166370a08231306040518263ffffffff1660e01b81526004016111049190612b3d565b602060405180830381865afa158015611121573d6000803e3d6000fd5b505050506040513d601f19601f820116820180604052508101906111459190612a7e565b611f20565b61115387612150565b50505050915091565b600a818154811061116c57600080fd5b906000526020600020016000915090505481565b6000600c54905090565b600083600460009054906101000a900473ffffffffffffffffffffffffffffffffffffffff1673ffffffffffffffffffffffffffffffffffffffff168173ffffffffffffffffffffffffffffffffffffffff1614806112365750600560009054906101000a900473ffffffffffffffffffffffffffffffffffffffff1673ffffffffffffffffffffffffffffffffffffffff168173ffffffffffffffffffffffffffffffffffffffff16145b611275576040517f08c379a000000000000000000000000000000000000000000000000000000000815260040161126c90612ccb565b60405180910390fd5b6000600460009054906101000a900473ffffffffffffffffffffffffffffffffffffffff1673ffffffffffffffffffffffffffffffffffffffff168673ffffffffffffffffffffffffffffffffffffffff161490506000806000808461132657600560009054906101000a900473ffffffffffffffffffffffffffffffffffffffff16600460009054906101000a900473ffffffffffffffffffffffffffffffffffffffff16600754600654611373565b600460009054906101000a900473ffffffffffffffffffffffffffffffffffffffff16600560009054906101000a900473ffffffffffffffffffffffffffffffffffffffff166006546007545b935093509350935060006113888a8484611bac565b9050888110156113cd576040517f08c379a00000000000000000000000000000000000000000000000000000000081526004016113c490612d5d565b60405180910390fd5b8473ffffffffffffffffffffffffffffffffffffffff166323b872dd33308d6040518463ffffffff1660e01b815260040161140a939291906129d9565b6020604051808303816000875af1158015611429573d6000803e3d6000fd5b505050506040513d601f19601f8201168201806040525081019061144d9190612a3c565b508373ffffffffffffffffffffffffffffffffffffffff1663a9059cbb33836040518363ffffffff1660e01b8152600401611489929190612c56565b6020604051808303816000875af11580156114a8573d6000803e3d6000fd5b505050506040513d601f19601f820116820180604052508101906114cc9190612a3c565b5061160d600460009054906101000a900473ffffffffffffffffffffffffffffffffffffffff1673ffffffffffffffffffffffffffffffffffffffff166370a08231306040518263ffffffff1660e01b815260040161152b9190612b3d565b602060405180830381865afa158015611548573d6000803e3d6000fd5b505050506040513d601f19601f8201168201806040525081019061156c9190612a7e565b600560009054906101000a900473ffffffffffffffffffffffffffffffffffffffff1673ffffffffffffffffffffffffffffffffffffffff166370a08231306040518263ffffffff1660e01b81526004016115c79190612b3d565b602060405180830381865afa1580156115e4573d6000803e3d6000fd5b505050506040513d601f19601f820116820180604052508101906116089190612a7e565b611f20565b60019750505050505050509392505050565b600d5481565b600082600460009054906101000a900473ffffffffffffffffffffffffffffffffffffffff1673ffffffffffffffffffffffffffffffffffffffff168173ffffffffffffffffffffffffffffffffffffffff1614806116d15750600560009054906101000a900473ffffffffffffffffffffffffffffffffffffffff1673ffffffffffffffffffffffffffffffffffffffff168173ffffffffffffffffffffffffffffffffffffffff16145b611710576040517f08c379a000000000000000000000000000000000000000000000000000000000815260040161170790612ccb565b60405180910390fd5b6000600460009054906101000a900473ffffffffffffffffffffffffffffffffffffffff1673ffffffffffffffffffffffffffffffffffffffff168573ffffffffffffffffffffffffffffffffffffffff16149050600080600080846117c157600560009054906101000a900473ffffffffffffffffffffffffffffffffffffffff16600460009054906101000a900473ffffffffffffffffffffffffffffffffffffffff1660075460065461180e565b600460009054906101000a900473ffffffffffffffffffffffffffffffffffffffff16600560009054906101000a900473ffffffffffffffffffffffffffffffffffffffff166006546007545b935093509350935061181e612276565b806118435750600060056001600e546118379190612d7d565b6118419190612db1565b145b15611870576000611852611180565b905061185d8161229f565b611865611c50565b506000600e81905550505b61187b888383611bac565b96508373ffffffffffffffffffffffffffffffffffffffff166323b872dd33308b6040518463ffffffff1660e01b81526004016118ba939291906129d9565b6020604051808303816000875af11580156118d9573d6000803e3d6000fd5b505050506040513d601f19601f820116820180604052508101906118fd9190612a3c565b508273ffffffffffffffffffffffffffffffffffffffff1663a9059cbb33896040518363ffffffff1660e01b8152600401611939929190612c56565b6020604051808303816000875af1158015611958573d6000803e3d6000fd5b505050506040513d601f19601f8201168201806040525081019061197c9190612a3c565b50611abd600460009054906101000a900473ffffffffffffffffffffffffffffffffffffffff1673ffffffffffffffffffffffffffffffffffffffff166370a08231306040518263ffffffff1660e01b81526004016119db9190612b3d565b602060405180830381865afa1580156119f8573d6000803e3d6000fd5b505050506040513d601f19601f82011682018060405250810190611a1c9190612a7e565b600560009054906101000a900473ffffffffffffffffffffffffffffffffffffffff1673ffffffffffffffffffffffffffffffffffffffff166370a08231306040518263ffffffff1660e01b8152600401611a779190612b3d565b602060405180830381865afa158015611a94573d6000803e3d6000fd5b505050506040513d601f19601f82011682018060405250810190611ab89190612a7e565b611f20565b6001600e6000828254611ad09190612d7d565b9250508190555050505050505092915050565b600460009054906101000a900473ffffffffffffffffffffffffffffffffffffffff1681565b60085481565b600080600260009054906101000a900473ffffffffffffffffffffffffffffffffffffffff1690508073ffffffffffffffffffffffffffffffffffffffff166318160ddd6040518163ffffffff1660e01b8152600401602060405180830381865afa158015611b82573d6000803e3d6000fd5b505050506040513d601f19601f82011682018060405250810190611ba69190612a7e565b91505090565b600080611bb885610577565b90508084611bc69190612d7d565b8184611bd29190612928565b611bdc9190612999565b9150509392505050565b600360009054906101000a900473ffffffffffffffffffffffffffffffffffffffff1681565b80600260006101000a81548173ffffffffffffffffffffffffffffffffffffffff021916908373ffffffffffffffffffffffffffffffffffffffff16021790555050565b60606000600654118015611c6657506000600754115b611c6f57600080fd5b6000611c79610a41565b905060006103e86103ed83611c8e9190612928565b611c989190612999565b905060006103e86103e384611cad9190612928565b611cb79190612999565b905080600d5410158015611ccd575081600d5411155b15611d2057666a94d74f4300006009819055506040518060400160405280600c81526020017f57697468696e20726174696f00000000000000000000000000000000000000008152509350505050611d6b565b67016345785d8a00006009819055506040518060400160405280601081526020017f4e6f742077697468696e20726174696f0000000000000000000000000000000081525093505050505b90565b600080600060065460075487611d849190612928565b611d8e9190612999565b9050600061271085612710611da391906128f4565b87611dae9190612928565b611db89190612999565b9050808210158015611dca5750858211155b15611ddc578682935093505050611e84565b600060075460065488611def9190612928565b611df99190612999565b9050600061271087612710611e0e91906128f4565b8a611e199190612928565b611e239190612999565b9050808210158015611e355750888211155b15611e495781889550955050505050611e84565b6040517f08c379a0000000000000000000000000000000000000000000000000000000008152600401611e7b90612e54565b60405180910390fd5b935093915050565b60006003821115611ef35781905060006001600284611eab9190612999565b611eb59190612d7d565b90505b81811015611eed578091506002818285611ed29190612999565b611edc9190612d7d565b611ee69190612999565b9050611eb8565b50611f01565b60008214611f0057600190505b5b919050565b600081831115611f165781611f18565b825b905092915050565b81600681905550806007819055505050565b6000805442611f419190612d7d565b90506000600160003373ffffffffffffffffffffffffffffffffffffffff1673ffffffffffffffffffffffffffffffffffffffff168152602001908152602001600020600001541115612051576000600160003373ffffffffffffffffffffffffffffffffffffffff1673ffffffffffffffffffffffffffffffffffffffff1681526020019081526020016000206000015483611fde9190612d7d565b9050604051806040016040528082815260200183815250600160003373ffffffffffffffffffffffffffffffffffffffff1673ffffffffffffffffffffffffffffffffffffffff1681526020019081526020016000206000820151816000015560208201518160010155905050506120bd565b604051806040016040528083815260200182815250600160003373ffffffffffffffffffffffffffffffffffffffff1673ffffffffffffffffffffffffffffffffffffffff16815260200190815260200160002060008201518160000155602082015181600101559050505b600360009054906101000a900473ffffffffffffffffffffffffffffffffffffffff1673ffffffffffffffffffffffffffffffffffffffff166340c10f1933846040518363ffffffff1660e01b815260040161211a929190612c56565b600060405180830381600087803b15801561213457600080fd5b505af1158015612148573d6000803e3d6000fd5b505050505050565b80600160003373ffffffffffffffffffffffffffffffffffffffff1673ffffffffffffffffffffffffffffffffffffffff1681526020019081526020016000206000015461219e91906128f4565b600160003373ffffffffffffffffffffffffffffffffffffffff1673ffffffffffffffffffffffffffffffffffffffff16815260200190815260200160002060000181905550600360009054906101000a900473ffffffffffffffffffffffffffffffffffffffff1673ffffffffffffffffffffffffffffffffffffffff16639dc29fac33836040518363ffffffff1660e01b8152600401612241929190612c56565b600060405180830381600087803b15801561225b57600080fd5b505af115801561226f573d6000803e3d6000fd5b5050505050565b6000603c600b544261228891906128f4565b1115612297576001905061229c565b600090505b90565b6005600a8054905010156122db57600a81908060018154018082558091505060019003906000526020600020016000909190919091505561238d565b60005b6001600a805490506122f091906128f4565b81101561235757600a6001826123069190612d7d565b8154811061231757612316612e74565b5b9060005260206000200154600a828154811061233657612335612e74565b5b9060005260206000200181905550808061234f90612ea3565b9150506122de565b5080600a6001600a8054905061236d91906128f4565b8154811061237e5761237d612e74565b5b90600052602060002001819055505b612395612398565b50565b6000600a80549050116123aa57600080fd5b6000805b600a805490508110156123fa57600a81815481106123cf576123ce612e74565b5b9060005260206000200154826123e59190612d7d565b915080806123f290612ea3565b9150506123ae565b506000600a805490508261240e9190612999565b905080600d819055505050565b600080fd5b6000819050919050565b61243381612420565b811461243e57600080fd5b50565b6000813590506124508161242a565b92915050565b60006020828403121561246c5761246b61241b565b5b600061247a84828501612441565b91505092915050565b61248c81612420565b82525050565b60006020820190506124a76000830184612483565b92915050565b600073ffffffffffffffffffffffffffffffffffffffff82169050919050565b6000819050919050565b60006124f26124ed6124e8846124ad565b6124cd565b6124ad565b9050919050565b6000612504826124d7565b9050919050565b6000612516826124f9565b9050919050565b6125268161250b565b82525050565b6000602082019050612541600083018461251d565b92915050565b6000806000606084860312156125605761255f61241b565b5b600061256e86828701612441565b935050602061257f86828701612441565b925050604061259086828701612441565b9150509250925092565b600081519050919050565b600082825260208201905092915050565b6000819050602082019050919050565b6125cf81612420565b82525050565b60006125e183836125c6565b60208301905092915050565b6000602082019050919050565b60006126058261259a565b61260f81856125a5565b935061261a836125b6565b8060005b8381101561264b57815161263288826125d5565b975061263d836125ed565b92505060018101905061261e565b5085935050505092915050565b6000602082019050818103600083015261267281846125fa565b905092915050565b600060408201905061268f6000830185612483565b61269c6020830184612483565b9392505050565b60006126ae826124ad565b9050919050565b6126be816126a3565b81146126c957600080fd5b50565b6000813590506126db816126b5565b92915050565b6000806000606084860312156126fa576126f961241b565b5b6000612708868287016126cc565b935050602061271986828701612441565b925050604061272a86828701612441565b9150509250925092565b60008115159050919050565b61274981612734565b82525050565b60006020820190506127646000830184612740565b92915050565b600080604083850312156127815761278061241b565b5b600061278f858286016126cc565b92505060206127a085828601612441565b9150509250929050565b60006127b5826124f9565b9050919050565b6127c5816127aa565b82525050565b60006020820190506127e060008301846127bc565b92915050565b6000602082840312156127fc576127fb61241b565b5b600061280a848285016126cc565b91505092915050565b600081519050919050565b600082825260208201905092915050565b60005b8381101561284d578082015181840152602081019050612832565b60008484015250505050565b6000601f19601f8301169050919050565b600061287582612813565b61287f818561281e565b935061288f81856020860161282f565b61289881612859565b840191505092915050565b600060208201905081810360008301526128bd818461286a565b905092915050565b7f4e487b7100000000000000000000000000000000000000000000000000000000600052601160045260246000fd5b60006128ff82612420565b915061290a83612420565b9250828203905081811115612922576129216128c5565b5b92915050565b600061293382612420565b915061293e83612420565b925082820261294c81612420565b91508282048414831517612963576129626128c5565b5b5092915050565b7f4e487b7100000000000000000000000000000000000000000000000000000000600052601260045260246000fd5b60006129a482612420565b91506129af83612420565b9250826129bf576129be61296a565b5b828204905092915050565b6129d3816126a3565b82525050565b60006060820190506129ee60008301866129ca565b6129fb60208301856129ca565b612a086040830184612483565b949350505050565b612a1981612734565b8114612a2457600080fd5b50565b600081519050612a3681612a10565b92915050565b600060208284031215612a5257612a5161241b565b5b6000612a6084828501612a27565b91505092915050565b600081519050612a788161242a565b92915050565b600060208284031215612a9457612a9361241b565b5b6000612aa284828501612a69565b91505092915050565b7f4d696e74656420736861726573206d757374206265206772656174657220746860008201527f616e207a65726f00000000000000000000000000000000000000000000000000602082015250565b6000612b0760278361281e565b9150612b1282612aab565b604082019050919050565b60006020820190508181036000830152612b3681612afa565b9050919050565b6000602082019050612b5260008301846129ca565b92915050565b7f417474656d7074696e6720746f206275726e20746f6f206d616e79204c50205460008201527f6f6b656e73000000000000000000000000000000000000000000000000000000602082015250565b6000612bb460258361281e565b9150612bbf82612b58565b604082019050919050565b60006020820190508181036000830152612be381612ba7565b9050919050565b7f546f6f206561726c7920746f207769746864726177206c697175696469747900600082015250565b6000612c20601f8361281e565b9150612c2b82612bea565b602082019050919050565b60006020820190508181036000830152612c4f81612c13565b9050919050565b6000604082019050612c6b60008301856129ca565b612c786020830184612483565b9392505050565b7f496e76616c696420746f6b656e207479706520666f7220746869732073776170600082015250565b6000612cb560208361281e565b9150612cc082612c7f565b602082019050919050565b60006020820190508181036000830152612ce481612ca8565b9050919050565b7f4f6e2d436861696e2065786368616e67652072617465206973206e6f7420776960008201527f7468696e20736c69707061676520626f756e6473207365742062792075736572602082015250565b6000612d4760408361281e565b9150612d5282612ceb565b604082019050919050565b60006020820190508181036000830152612d7681612d3a565b9050919050565b6000612d8882612420565b9150612d9383612420565b9250828201905080821115612dab57612daa6128c5565b5b92915050565b6000612dbc82612420565b9150612dc783612420565b925082612dd757612dd661296a565b5b828206905092915050565b7f536c69707061676520746f6c6572616e63652065786365656465642c2061646a60008201527f757374206c697175696469747920616d6f756e74730000000000000000000000602082015250565b6000612e3e60358361281e565b9150612e4982612de2565b604082019050919050565b60006020820190508181036000830152612e6d81612e31565b9050919050565b7f4e487b7100000000000000000000000000000000000000000000000000000000600052603260045260246000fd5b6000612eae82612420565b91507fffffffffffffffffffffffffffffffffffffffffffffffffffffffffffffffff8203612ee057612edf6128c5565b5b60018201905091905056fea26469706673582212205250d308fc5c76726508236f0ec0e32f7473a8e8e554c970d50a014d02ed15b964736f6c63430008140033",
  "linkReferences": {},
  "deployedLinkReferences": {}
}