{
  "_format": "hh-sol-artifact-1",
  "contractName": "DynamicLiquidityPool",
  "sourceName": "contracts/modifiedPool.sol",
  "abi": [
    {
      "inputs": [
        {
          "internalType": "address",
          "name": "_t1",
          "type": "address"
        },
        {
          "internalType": "address",
          "name": "_t2",
          "type": "address"
        },
        {
          "internalType": "address",
          "name": "_lptoken",
          "type": "address"
        }
      ],
      "stateMutability": "nonpayable",
      "type": "constructor"
    },
    {
      "inputs": [
        {
          "internalType": "uint256",
          "name": "_amount1",
          "type": "uint256"
        },
        {
          "internalType": "uint256",
          "name": "_amount2",
          "type": "uint256"
        },
        {
          "internalType": "uint256",
          "name": "slippage",
          "type": "uint256"
        }
      ],
      "name": "addLiquidity",
      "outputs": [
        {
          "internalType": "uint256",
          "name": "shares",
          "type": "uint256"
        }
      ],
      "stateMutability": "nonpayable",
      "type": "function"
    },
    {
      "inputs": [],
      "name": "average_external_ratio",
      "outputs": [
        {
          "internalType": "uint256",
          "name": "",
          "type": "uint256"
        }
      ],
      "stateMutability": "view",
      "type": "function"
    },
    {
      "inputs": [],
      "name": "baseFee",
      "outputs": [
        {
          "internalType": "uint256",
          "name": "",
          "type": "uint256"
        }
      ],
      "stateMutability": "view",
      "type": "function"
    },
    {
      "inputs": [],
      "name": "calculateNewSwapFee",
      "outputs": [
        {
          "internalType": "string",
          "name": "",
          "type": "string"
        }
      ],
      "stateMutability": "nonpayable",
      "type": "function"
    },
    {
      "inputs": [
        {
          "internalType": "uint256",
          "name": "num1",
          "type": "uint256"
        },
        {
          "internalType": "uint256",
          "name": "num2",
          "type": "uint256"
        }
      ],
      "name": "calculatePercentageDifference",
      "outputs": [
        {
          "internalType": "uint256",
          "name": "",
          "type": "uint256"
        }
      ],
      "stateMutability": "pure",
      "type": "function"
    },
    {
      "inputs": [
        {
          "internalType": "uint256",
          "name": "countIn",
          "type": "uint256"
        },
        {
          "internalType": "uint256",
          "name": "inReserve",
          "type": "uint256"
        },
        {
          "internalType": "uint256",
          "name": "outReserve",
          "type": "uint256"
        }
      ],
      "name": "calculateSwap",
      "outputs": [
        {
          "internalType": "uint256",
          "name": "amountOut",
          "type": "uint256"
        }
      ],
      "stateMutability": "pure",
      "type": "function"
    },
    {
      "inputs": [],
      "name": "callToken",
      "outputs": [
        {
          "internalType": "uint256",
          "name": "",
          "type": "uint256"
        }
      ],
      "stateMutability": "view",
      "type": "function"
    },
    {
      "inputs": [],
      "name": "getChainlinkDataFeedLatestAnswer",
      "outputs": [
        {
          "internalType": "uint256",
          "name": "",
          "type": "uint256"
        }
      ],
      "stateMutability": "view",
      "type": "function"
    },
    {
      "inputs": [],
      "name": "getReserveRatio",
      "outputs": [
        {
          "internalType": "uint256",
          "name": "",
          "type": "uint256"
        }
      ],
      "stateMutability": "view",
      "type": "function"
    },
    {
      "inputs": [],
      "name": "lastFetchedExternalRatio",
      "outputs": [
        {
          "internalType": "uint256",
          "name": "",
          "type": "uint256"
        }
      ],
      "stateMutability": "view",
      "type": "function"
    },
    {
      "inputs": [],
      "name": "lockPeriod",
      "outputs": [
        {
          "internalType": "uint256",
          "name": "",
          "type": "uint256"
        }
      ],
      "stateMutability": "view",
      "type": "function"
    },
    {
      "inputs": [],
      "name": "lptoken",
      "outputs": [
        {
          "internalType": "contract LpToken",
          "name": "",
          "type": "address"
        }
      ],
      "stateMutability": "view",
      "type": "function"
    },
    {
      "inputs": [],
      "name": "precision",
      "outputs": [
        {
          "internalType": "uint256",
          "name": "",
          "type": "uint256"
        }
      ],
      "stateMutability": "view",
      "type": "function"
    },
    {
      "inputs": [],
      "name": "recent_swaps",
      "outputs": [
        {
          "internalType": "uint256",
          "name": "",
          "type": "uint256"
        }
      ],
      "stateMutability": "view",
      "type": "function"
    },
    {
      "inputs": [
        {
          "internalType": "uint256",
          "name": "_shareCount",
          "type": "uint256"
        }
      ],
      "name": "removeLiquidity",
      "outputs": [
        {
          "internalType": "uint256",
          "name": "token1Amount",
          "type": "uint256"
        },
        {
          "internalType": "uint256",
          "name": "token2Amount",
          "type": "uint256"
        }
      ],
      "stateMutability": "nonpayable",
      "type": "function"
    },
    {
      "inputs": [
        {
          "internalType": "uint256",
          "name": "_ratio",
          "type": "uint256"
        }
      ],
      "name": "setExternalRatio",
      "outputs": [],
      "stateMutability": "nonpayable",
      "type": "function"
    },
    {
      "inputs": [
        {
          "internalType": "address",
          "name": "_LPToken",
          "type": "address"
        }
      ],
      "name": "setLPTokenAddress",
      "outputs": [],
      "stateMutability": "nonpayable",
      "type": "function"
    },
    {
      "inputs": [
        {
          "internalType": "uint256",
          "name": "_reserve1",
          "type": "uint256"
        }
      ],
      "name": "setReserve1",
      "outputs": [
        {
          "internalType": "uint256",
          "name": "",
          "type": "uint256"
        }
      ],
      "stateMutability": "nonpayable",
      "type": "function"
    },
    {
      "inputs": [
        {
          "internalType": "uint256",
          "name": "_reserve2",
          "type": "uint256"
        }
      ],
      "name": "setReserve2",
      "outputs": [
        {
          "internalType": "uint256",
          "name": "",
          "type": "uint256"
        }
      ],
      "stateMutability": "nonpayable",
      "type": "function"
    },
    {
      "inputs": [
        {
          "internalType": "address",
          "name": "_token",
          "type": "address"
        },
        {
          "internalType": "uint256",
          "name": "countIn",
          "type": "uint256"
        },
        {
          "internalType": "uint256",
          "name": "slippage_minimum",
          "type": "uint256"
        }
      ],
      "name": "slippage_swap",
      "outputs": [
        {
          "internalType": "bool",
          "name": "success",
          "type": "bool"
        }
      ],
      "stateMutability": "nonpayable",
      "type": "function"
    },
    {
      "inputs": [
        {
          "internalType": "address",
          "name": "_token",
          "type": "address"
        },
        {
          "internalType": "uint256",
          "name": "countIn",
          "type": "uint256"
        }
      ],
      "name": "swap",
      "outputs": [
        {
          "internalType": "uint256",
          "name": "amountOut",
          "type": "uint256"
        }
      ],
      "stateMutability": "nonpayable",
      "type": "function"
    },
    {
      "inputs": [],
      "name": "token1",
      "outputs": [
        {
          "internalType": "contract ERC20",
          "name": "",
          "type": "address"
        }
      ],
      "stateMutability": "view",
      "type": "function"
    },
    {
      "inputs": [],
      "name": "token1_reserve",
      "outputs": [
        {
          "internalType": "uint256",
          "name": "",
          "type": "uint256"
        }
      ],
      "stateMutability": "view",
      "type": "function"
    },
    {
      "inputs": [],
      "name": "token2",
      "outputs": [
        {
          "internalType": "contract ERC20",
          "name": "",
          "type": "address"
        }
      ],
      "stateMutability": "view",
      "type": "function"
    },
    {
      "inputs": [],
      "name": "token2_reserve",
      "outputs": [
        {
          "internalType": "uint256",
          "name": "",
          "type": "uint256"
        }
      ],
      "stateMutability": "view",
      "type": "function"
    },
    {
      "inputs": [
        {
          "internalType": "uint256",
          "name": "amount",
          "type": "uint256"
        }
      ],
      "name": "withFee",
      "outputs": [
        {
          "internalType": "uint256",
          "name": "",
          "type": "uint256"
        }
      ],
      "stateMutability": "view",
      "type": "function"
    }
  ],
  "bytecode": "0x6080604052601e60005560006006556000600755670de0b6b3a7640000600855666a94d74f43000060095542600b556000600c556000600e553480156200004557600080fd5b50604051620030c0380380620030c083398181016040528101906200006b9190620001a1565b82600460006101000a81548173ffffffffffffffffffffffffffffffffffffffff021916908373ffffffffffffffffffffffffffffffffffffffff16021790555081600560006101000a81548173ffffffffffffffffffffffffffffffffffffffff021916908373ffffffffffffffffffffffffffffffffffffffff16021790555080600360006101000a81548173ffffffffffffffffffffffffffffffffffffffff021916908373ffffffffffffffffffffffffffffffffffffffff160217905550505050620001fd565b600080fd5b600073ffffffffffffffffffffffffffffffffffffffff82169050919050565b600062000169826200013c565b9050919050565b6200017b816200015c565b81146200018757600080fd5b50565b6000815190506200019b8162000170565b92915050565b600080600060608486031215620001bd57620001bc62000137565b5b6000620001cd868287016200018a565b9350506020620001e0868287016200018a565b9250506040620001f3868287016200018a565b9150509250925092565b612eb3806200020d6000396000f3fe608060405234801561001057600080fd5b506004361061018e5760003560e01c80639b67684f116100de578063d21220a711610097578063ec6341b311610071578063ec6341b3146104b6578063f363393b146104e6578063f42ebbe014610504578063ff7fd410146105205761018e565b8063d21220a71461045c578063d3b5dc3b1461047a578063de931662146104985761018e565b80639b67684f1461035f5780639c8f9f231461038f578063bea4dfb5146103c0578063c773aab4146103de578063ce96766a1461040e578063d004f0f71461042c5761018e565b80634be6ab341161014b57806356b6d0d51161012557806356b6d0d5146102e95780636bf627a3146103075780636ef25c3a1461032357806389d27eb5146103415761018e565b80634be6ab341461028f5780634d1fb8a6146102ad57806355424308146102cb5761018e565b806310e3b14914610193578063255021a2146101c357806325be124e146101f35780633d65ce58146102115780633fd8b02f14610241578063422f10431461025f575b600080fd5b6101ad60048036038101906101a8919061244d565b61053e565b6040516101ba919061249c565b60405180910390f35b6101dd60048036038101906101d891906124b7565b6105d2565b6040516101ea919061249c565b60405180910390f35b6101fb610626565b6040516102089190612563565b60405180910390f35b61022b600480360381019061022691906124b7565b61064c565b604051610238919061249c565b60405180910390f35b61024961065f565b604051610256919061249c565b60405180910390f35b6102796004803603810190610274919061257e565b610665565b604051610286919061249c565b60405180910390f35b610297610a9c565b6040516102a4919061249c565b60405180910390f35b6102b5610aa2565b6040516102c2919061249c565b60405180910390f35b6102d3610aa8565b6040516102e0919061249c565b60405180910390f35b6102f1610aae565b6040516102fe919061249c565b60405180910390f35b610321600480360381019061031c91906124b7565b610af4565b005b61032b610afe565b604051610338919061249c565b60405180910390f35b610349610b04565b604051610356919061249c565b60405180910390f35b610379600480360381019061037491906124b7565b610b0a565b604051610386919061249c565b60405180910390f35b6103a960048036038101906103a491906124b7565b610b1d565b6040516103b79291906125d1565b60405180910390f35b6103c8611171565b6040516103d5919061249c565b60405180910390f35b6103f860048036038101906103f39190612638565b61117b565b60405161040591906126a6565b60405180910390f35b610416611610565b604051610423919061249c565b60405180910390f35b610446600480360381019061044191906126c1565b611616565b604051610453919061249c565b60405180910390f35b610464611ac8565b6040516104719190612563565b60405180910390f35b610482611aee565b60405161048f919061249c565b60405180910390f35b6104a0611af4565b6040516104ad919061249c565b60405180910390f35b6104d060048036038101906104cb919061257e565b611b91565b6040516104dd919061249c565b60405180910390f35b6104ee611bdd565b6040516104fb9190612722565b60405180910390f35b61051e6004803603810190610519919061273d565b611c03565b005b610528611c47565b60405161053591906127fa565b60405180910390f35b6000808203610582576040517f08c379a000000000000000000000000000000000000000000000000000000000815260040161057990612868565b60405180910390fd5b600082841161059c57838361059791906128b7565b6105a9565b82846105a891906128b7565b5b90506000836064836105bb91906128eb565b6105c5919061295c565b9050809250505092915050565b600080670de0b6b3a764000066038d7ea4c680006009546105f391906128eb565b6105fd919061295c565b670de0b6b3a764000061061091906128b7565b8361061b91906128eb565b905080915050919050565b600560009054906101000a900473ffffffffffffffffffffffffffffffffffffffff1681565b6000816007819055506007549050919050565b60005481565b600080841180156106765750600083115b61067f57600080fd5b6000600654118061069257506000600754115b156106cd57600654836106a591906128eb565b600754856106b391906128eb565b146106cc576106c3848484611d65565b80945081955050505b5b600460009054906101000a900473ffffffffffffffffffffffffffffffffffffffff1673ffffffffffffffffffffffffffffffffffffffff166323b872dd3330876040518463ffffffff1660e01b815260040161072c9392919061299c565b6020604051808303816000875af115801561074b573d6000803e3d6000fd5b505050506040513d601f19601f8201168201806040525081019061076f91906129ff565b50600560009054906101000a900473ffffffffffffffffffffffffffffffffffffffff1673ffffffffffffffffffffffffffffffffffffffff166323b872dd3330866040518463ffffffff1660e01b81526004016107cf9392919061299c565b6020604051808303816000875af11580156107ee573d6000803e3d6000fd5b505050506040513d601f19601f8201168201806040525081019061081291906129ff565b506000600360009054906101000a900473ffffffffffffffffffffffffffffffffffffffff1673ffffffffffffffffffffffffffffffffffffffff166318160ddd6040518163ffffffff1660e01b8152600401602060405180830381865afa158015610882573d6000803e3d6000fd5b505050506040513d601f19601f820116820180604052508101906108a69190612a41565b9050600081036108cb576108c484866108bf91906128eb565b611e83565b9150610908565b61090560065482876108dd91906128eb565b6108e7919061295c565b60075483876108f691906128eb565b610900919061295c565b611efd565b91505b6000821161094b576040517f08c379a000000000000000000000000000000000000000000000000000000000815260040161094290612ae0565b60405180910390fd5b610a8b600460009054906101000a900473ffffffffffffffffffffffffffffffffffffffff1673ffffffffffffffffffffffffffffffffffffffff166370a08231306040518263ffffffff1660e01b81526004016109a99190612b00565b602060405180830381865afa1580156109c6573d6000803e3d6000fd5b505050506040513d601f19601f820116820180604052508101906109ea9190612a41565b600560009054906101000a900473ffffffffffffffffffffffffffffffffffffffff1673ffffffffffffffffffffffffffffffffffffffff166370a08231306040518263ffffffff1660e01b8152600401610a459190612b00565b602060405180830381865afa158015610a62573d6000803e3d6000fd5b505050506040513d601f19601f82011682018060405250810190610a869190612a41565b611f17565b610a9482611f29565b509392505050565b60065481565b600e5481565b60075481565b600080600654118015610ac357506000600754115b610acc57600080fd5b6000600754600854600654610ae191906128eb565b610aeb919061295c565b90508091505090565b80600c8190555050565b60095481565b600c5481565b6000816006819055506006549050919050565b6000806000600360009054906101000a900473ffffffffffffffffffffffffffffffffffffffff1673ffffffffffffffffffffffffffffffffffffffff166370a08231336040518263ffffffff1660e01b8152600401610b7d9190612b00565b602060405180830381865afa158015610b9a573d6000803e3d6000fd5b505050506040513d601f19601f82011682018060405250810190610bbe9190612a41565b905080841115610c03576040517f08c379a0000000000000000000000000000000000000000000000000000000008152600401610bfa90612b8d565b60405180910390fd5b6000600160003373ffffffffffffffffffffffffffffffffffffffff1673ffffffffffffffffffffffffffffffffffffffff16815260200190815260200160002060000154118015610c975750600160003373ffffffffffffffffffffffffffffffffffffffff1673ffffffffffffffffffffffffffffffffffffffff168152602001908152602001600020600001548411155b610cd6576040517f08c379a0000000000000000000000000000000000000000000000000000000008152600401610ccd90612bf9565b60405180910390fd5b6000600360009054906101000a900473ffffffffffffffffffffffffffffffffffffffff1673ffffffffffffffffffffffffffffffffffffffff166318160ddd6040518163ffffffff1660e01b8152600401602060405180830381865afa158015610d45573d6000803e3d6000fd5b505050506040513d601f19601f82011682018060405250810190610d699190612a41565b90506000600460009054906101000a900473ffffffffffffffffffffffffffffffffffffffff1673ffffffffffffffffffffffffffffffffffffffff166370a08231306040518263ffffffff1660e01b8152600401610dc89190612b00565b602060405180830381865afa158015610de5573d6000803e3d6000fd5b505050506040513d601f19601f82011682018060405250810190610e099190612a41565b90506000600560009054906101000a900473ffffffffffffffffffffffffffffffffffffffff1673ffffffffffffffffffffffffffffffffffffffff166370a08231306040518263ffffffff1660e01b8152600401610e689190612b00565b602060405180830381865afa158015610e85573d6000803e3d6000fd5b505050506040513d601f19601f82011682018060405250810190610ea99190612a41565b9050828783610eb891906128eb565b610ec2919061295c565b9550828782610ed191906128eb565b610edb919061295c565b9450600460009054906101000a900473ffffffffffffffffffffffffffffffffffffffff1673ffffffffffffffffffffffffffffffffffffffff1663a9059cbb33886040518363ffffffff1660e01b8152600401610f3a929190612c19565b6020604051808303816000875af1158015610f59573d6000803e3d6000fd5b505050506040513d601f19601f82011682018060405250810190610f7d91906129ff565b50600560009054906101000a900473ffffffffffffffffffffffffffffffffffffffff1673ffffffffffffffffffffffffffffffffffffffff1663a9059cbb33876040518363ffffffff1660e01b8152600401610fdb929190612c19565b6020604051808303816000875af1158015610ffa573d6000803e3d6000fd5b505050506040513d601f19601f8201168201806040525081019061101e91906129ff565b5061115f600460009054906101000a900473ffffffffffffffffffffffffffffffffffffffff1673ffffffffffffffffffffffffffffffffffffffff166370a08231306040518263ffffffff1660e01b815260040161107d9190612b00565b602060405180830381865afa15801561109a573d6000803e3d6000fd5b505050506040513d601f19601f820116820180604052508101906110be9190612a41565b600560009054906101000a900473ffffffffffffffffffffffffffffffffffffffff1673ffffffffffffffffffffffffffffffffffffffff166370a08231306040518263ffffffff1660e01b81526004016111199190612b00565b602060405180830381865afa158015611136573d6000803e3d6000fd5b505050506040513d601f19601f8201168201806040525081019061115a9190612a41565b611f17565b61116887612147565b50505050915091565b6000600c54905090565b600083600460009054906101000a900473ffffffffffffffffffffffffffffffffffffffff1673ffffffffffffffffffffffffffffffffffffffff168173ffffffffffffffffffffffffffffffffffffffff1614806112275750600560009054906101000a900473ffffffffffffffffffffffffffffffffffffffff1673ffffffffffffffffffffffffffffffffffffffff168173ffffffffffffffffffffffffffffffffffffffff16145b611266576040517f08c379a000000000000000000000000000000000000000000000000000000000815260040161125d90612c8e565b60405180910390fd5b6000600460009054906101000a900473ffffffffffffffffffffffffffffffffffffffff1673ffffffffffffffffffffffffffffffffffffffff168673ffffffffffffffffffffffffffffffffffffffff161490506000806000808461131757600560009054906101000a900473ffffffffffffffffffffffffffffffffffffffff16600460009054906101000a900473ffffffffffffffffffffffffffffffffffffffff16600754600654611364565b600460009054906101000a900473ffffffffffffffffffffffffffffffffffffffff16600560009054906101000a900473ffffffffffffffffffffffffffffffffffffffff166006546007545b935093509350935060006113798a8484611b91565b9050888110156113be576040517f08c379a00000000000000000000000000000000000000000000000000000000081526004016113b590612d20565b60405180910390fd5b8473ffffffffffffffffffffffffffffffffffffffff166323b872dd33308d6040518463ffffffff1660e01b81526004016113fb9392919061299c565b6020604051808303816000875af115801561141a573d6000803e3d6000fd5b505050506040513d601f19601f8201168201806040525081019061143e91906129ff565b508373ffffffffffffffffffffffffffffffffffffffff1663a9059cbb33836040518363ffffffff1660e01b815260040161147a929190612c19565b6020604051808303816000875af1158015611499573d6000803e3d6000fd5b505050506040513d601f19601f820116820180604052508101906114bd91906129ff565b506115fe600460009054906101000a900473ffffffffffffffffffffffffffffffffffffffff1673ffffffffffffffffffffffffffffffffffffffff166370a08231306040518263ffffffff1660e01b815260040161151c9190612b00565b602060405180830381865afa158015611539573d6000803e3d6000fd5b505050506040513d601f19601f8201168201806040525081019061155d9190612a41565b600560009054906101000a900473ffffffffffffffffffffffffffffffffffffffff1673ffffffffffffffffffffffffffffffffffffffff166370a08231306040518263ffffffff1660e01b81526004016115b89190612b00565b602060405180830381865afa1580156115d5573d6000803e3d6000fd5b505050506040513d601f19601f820116820180604052508101906115f99190612a41565b611f17565b60019750505050505050509392505050565b600d5481565b600082600460009054906101000a900473ffffffffffffffffffffffffffffffffffffffff1673ffffffffffffffffffffffffffffffffffffffff168173ffffffffffffffffffffffffffffffffffffffff1614806116c25750600560009054906101000a900473ffffffffffffffffffffffffffffffffffffffff1673ffffffffffffffffffffffffffffffffffffffff168173ffffffffffffffffffffffffffffffffffffffff16145b611701576040517f08c379a00000000000000000000000000000000000000000000000000000000081526004016116f890612c8e565b60405180910390fd5b6000600460009054906101000a900473ffffffffffffffffffffffffffffffffffffffff1673ffffffffffffffffffffffffffffffffffffffff168573ffffffffffffffffffffffffffffffffffffffff16149050600080600080846117b257600560009054906101000a900473ffffffffffffffffffffffffffffffffffffffff16600460009054906101000a900473ffffffffffffffffffffffffffffffffffffffff166007546006546117ff565b600460009054906101000a900473ffffffffffffffffffffffffffffffffffffffff16600560009054906101000a900473ffffffffffffffffffffffffffffffffffffffff166006546007545b935093509350935061180f61226d565b80611828575060056001600e546118269190612d40565b145b15611855576000611837611171565b905061184281612296565b61184a611c47565b506000600e81905550505b611860888383611b91565b96508373ffffffffffffffffffffffffffffffffffffffff166323b872dd33308b6040518463ffffffff1660e01b815260040161189f9392919061299c565b6020604051808303816000875af11580156118be573d6000803e3d6000fd5b505050506040513d601f19601f820116820180604052508101906118e291906129ff565b508273ffffffffffffffffffffffffffffffffffffffff1663a9059cbb33896040518363ffffffff1660e01b815260040161191e929190612c19565b6020604051808303816000875af115801561193d573d6000803e3d6000fd5b505050506040513d601f19601f8201168201806040525081019061196191906129ff565b50611aa2600460009054906101000a900473ffffffffffffffffffffffffffffffffffffffff1673ffffffffffffffffffffffffffffffffffffffff166370a08231306040518263ffffffff1660e01b81526004016119c09190612b00565b602060405180830381865afa1580156119dd573d6000803e3d6000fd5b505050506040513d601f19601f82011682018060405250810190611a019190612a41565b600560009054906101000a900473ffffffffffffffffffffffffffffffffffffffff1673ffffffffffffffffffffffffffffffffffffffff166370a08231306040518263ffffffff1660e01b8152600401611a5c9190612b00565b602060405180830381865afa158015611a79573d6000803e3d6000fd5b505050506040513d601f19601f82011682018060405250810190611a9d9190612a41565b611f17565b6001600e6000828254611ab59190612d40565b9250508190555050505050505092915050565b600460009054906101000a900473ffffffffffffffffffffffffffffffffffffffff1681565b60085481565b600080600260009054906101000a900473ffffffffffffffffffffffffffffffffffffffff1690508073ffffffffffffffffffffffffffffffffffffffff166318160ddd6040518163ffffffff1660e01b8152600401602060405180830381865afa158015611b67573d6000803e3d6000fd5b505050506040513d601f19601f82011682018060405250810190611b8b9190612a41565b91505090565b6000806103e86103e586611ba591906128eb565b611baf919061295c565b90508084611bbd9190612d40565b8184611bc991906128eb565b611bd3919061295c565b9150509392505050565b600360009054906101000a900473ffffffffffffffffffffffffffffffffffffffff1681565b80600260006101000a81548173ffffffffffffffffffffffffffffffffffffffff021916908373ffffffffffffffffffffffffffffffffffffffff16021790555050565b60606000600654118015611c5d57506000600754115b611c6657600080fd5b6000611c70610aae565b905060006103e86103ed83611c8591906128eb565b611c8f919061295c565b905060006103e86103e384611ca491906128eb565b611cae919061295c565b905080600d5410158015611cc4575081600d5411155b15611d1757666a94d74f4300006009819055506040518060400160405280600c81526020017f57697468696e20726174696f00000000000000000000000000000000000000008152509350505050611d62565b67016345785d8a00006009819055506040518060400160405280601081526020017f4e6f742077697468696e20726174696f0000000000000000000000000000000081525093505050505b90565b600080600060065460075487611d7b91906128eb565b611d85919061295c565b9050600061271085612710611d9a91906128b7565b87611da591906128eb565b611daf919061295c565b9050808210158015611dc15750858211155b15611dd3578682935093505050611e7b565b600060075460065488611de691906128eb565b611df0919061295c565b9050600061271087612710611e0591906128b7565b8a611e1091906128eb565b611e1a919061295c565b9050808210158015611e2c5750888211155b15611e405781889550955050505050611e7b565b6040517f08c379a0000000000000000000000000000000000000000000000000000000008152600401611e7290612de6565b60405180910390fd5b935093915050565b60006003821115611eea5781905060006001600284611ea2919061295c565b611eac9190612d40565b90505b81811015611ee4578091506002818285611ec9919061295c565b611ed39190612d40565b611edd919061295c565b9050611eaf565b50611ef8565b60008214611ef757600190505b5b919050565b600081831115611f0d5781611f0f565b825b905092915050565b81600681905550806007819055505050565b6000805442611f389190612d40565b90506000600160003373ffffffffffffffffffffffffffffffffffffffff1673ffffffffffffffffffffffffffffffffffffffff168152602001908152602001600020600001541115612048576000600160003373ffffffffffffffffffffffffffffffffffffffff1673ffffffffffffffffffffffffffffffffffffffff1681526020019081526020016000206000015483611fd59190612d40565b9050604051806040016040528082815260200183815250600160003373ffffffffffffffffffffffffffffffffffffffff1673ffffffffffffffffffffffffffffffffffffffff1681526020019081526020016000206000820151816000015560208201518160010155905050506120b4565b604051806040016040528083815260200182815250600160003373ffffffffffffffffffffffffffffffffffffffff1673ffffffffffffffffffffffffffffffffffffffff16815260200190815260200160002060008201518160000155602082015181600101559050505b600360009054906101000a900473ffffffffffffffffffffffffffffffffffffffff1673ffffffffffffffffffffffffffffffffffffffff166340c10f1933846040518363ffffffff1660e01b8152600401612111929190612c19565b600060405180830381600087803b15801561212b57600080fd5b505af115801561213f573d6000803e3d6000fd5b505050505050565b80600160003373ffffffffffffffffffffffffffffffffffffffff1673ffffffffffffffffffffffffffffffffffffffff1681526020019081526020016000206000015461219591906128b7565b600160003373ffffffffffffffffffffffffffffffffffffffff1673ffffffffffffffffffffffffffffffffffffffff16815260200190815260200160002060000181905550600360009054906101000a900473ffffffffffffffffffffffffffffffffffffffff1673ffffffffffffffffffffffffffffffffffffffff16639dc29fac33836040518363ffffffff1660e01b8152600401612238929190612c19565b600060405180830381600087803b15801561225257600080fd5b505af1158015612266573d6000803e3d6000fd5b5050505050565b6000603c600b544261227f91906128b7565b111561228e5760019050612293565b600090505b90565b6005600a8054905010156122d257600a819080600181540180825580915050600190039060005260206000200160009091909190915055612384565b60005b6001600a805490506122e791906128b7565b81101561234e57600a6001826122fd9190612d40565b8154811061230e5761230d612e06565b5b9060005260206000200154600a828154811061232d5761232c612e06565b5b9060005260206000200181905550808061234690612e35565b9150506122d5565b5080600a6001600a8054905061236491906128b7565b8154811061237557612374612e06565b5b90600052602060002001819055505b61238c61238f565b50565b6000600a80549050116123a157600080fd5b6000805b600a805490508110156123f157600a81815481106123c6576123c5612e06565b5b9060005260206000200154826123dc9190612d40565b915080806123e990612e35565b9150506123a5565b506000600a8054905082612405919061295c565b905080600d819055505050565b600080fd5b6000819050919050565b61242a81612417565b811461243557600080fd5b50565b60008135905061244781612421565b92915050565b6000806040838503121561246457612463612412565b5b600061247285828601612438565b925050602061248385828601612438565b9150509250929050565b61249681612417565b82525050565b60006020820190506124b1600083018461248d565b92915050565b6000602082840312156124cd576124cc612412565b5b60006124db84828501612438565b91505092915050565b600073ffffffffffffffffffffffffffffffffffffffff82169050919050565b6000819050919050565b600061252961252461251f846124e4565b612504565b6124e4565b9050919050565b600061253b8261250e565b9050919050565b600061254d82612530565b9050919050565b61255d81612542565b82525050565b60006020820190506125786000830184612554565b92915050565b60008060006060848603121561259757612596612412565b5b60006125a586828701612438565b93505060206125b686828701612438565b92505060406125c786828701612438565b9150509250925092565b60006040820190506125e6600083018561248d565b6125f3602083018461248d565b9392505050565b6000612605826124e4565b9050919050565b612615816125fa565b811461262057600080fd5b50565b6000813590506126328161260c565b92915050565b60008060006060848603121561265157612650612412565b5b600061265f86828701612623565b935050602061267086828701612438565b925050604061268186828701612438565b9150509250925092565b60008115159050919050565b6126a08161268b565b82525050565b60006020820190506126bb6000830184612697565b92915050565b600080604083850312156126d8576126d7612412565b5b60006126e685828601612623565b92505060206126f785828601612438565b9150509250929050565b600061270c82612530565b9050919050565b61271c81612701565b82525050565b60006020820190506127376000830184612713565b92915050565b60006020828403121561275357612752612412565b5b600061276184828501612623565b91505092915050565b600081519050919050565b600082825260208201905092915050565b60005b838110156127a4578082015181840152602081019050612789565b60008484015250505050565b6000601f19601f8301169050919050565b60006127cc8261276a565b6127d68185612775565b93506127e6818560208601612786565b6127ef816127b0565b840191505092915050565b6000602082019050818103600083015261281481846127c1565b905092915050565b7f43616e6e6f7420646976696465206279207a65726f0000000000000000000000600082015250565b6000612852601583612775565b915061285d8261281c565b602082019050919050565b6000602082019050818103600083015261288181612845565b9050919050565b7f4e487b7100000000000000000000000000000000000000000000000000000000600052601160045260246000fd5b60006128c282612417565b91506128cd83612417565b92508282039050818111156128e5576128e4612888565b5b92915050565b60006128f682612417565b915061290183612417565b925082820261290f81612417565b9150828204841483151761292657612925612888565b5b5092915050565b7f4e487b7100000000000000000000000000000000000000000000000000000000600052601260045260246000fd5b600061296782612417565b915061297283612417565b9250826129825761298161292d565b5b828204905092915050565b612996816125fa565b82525050565b60006060820190506129b1600083018661298d565b6129be602083018561298d565b6129cb604083018461248d565b949350505050565b6129dc8161268b565b81146129e757600080fd5b50565b6000815190506129f9816129d3565b92915050565b600060208284031215612a1557612a14612412565b5b6000612a23848285016129ea565b91505092915050565b600081519050612a3b81612421565b92915050565b600060208284031215612a5757612a56612412565b5b6000612a6584828501612a2c565b91505092915050565b7f4d696e74656420736861726573206d757374206265206772656174657220746860008201527f616e207a65726f00000000000000000000000000000000000000000000000000602082015250565b6000612aca602783612775565b9150612ad582612a6e565b604082019050919050565b60006020820190508181036000830152612af981612abd565b9050919050565b6000602082019050612b15600083018461298d565b92915050565b7f417474656d7074696e6720746f206275726e20746f6f206d616e79204c50205460008201527f6f6b656e73000000000000000000000000000000000000000000000000000000602082015250565b6000612b77602583612775565b9150612b8282612b1b565b604082019050919050565b60006020820190508181036000830152612ba681612b6a565b9050919050565b7f546f6f206561726c7920746f207769746864726177206c697175696469747900600082015250565b6000612be3601f83612775565b9150612bee82612bad565b602082019050919050565b60006020820190508181036000830152612c1281612bd6565b9050919050565b6000604082019050612c2e600083018561298d565b612c3b602083018461248d565b9392505050565b7f496e76616c696420746f6b656e207479706520666f7220746869732073776170600082015250565b6000612c78602083612775565b9150612c8382612c42565b602082019050919050565b60006020820190508181036000830152612ca781612c6b565b9050919050565b7f4f6e2d436861696e2065786368616e67652072617465206973206e6f7420776960008201527f7468696e20736c69707061676520626f756e6473207365742062792075736572602082015250565b6000612d0a604083612775565b9150612d1582612cae565b604082019050919050565b60006020820190508181036000830152612d3981612cfd565b9050919050565b6000612d4b82612417565b9150612d5683612417565b9250828201905080821115612d6e57612d6d612888565b5b92915050565b7f536c69707061676520746f6c6572616e63652065786365656465642c2061646a60008201527f757374206c697175696469747920616d6f756e74730000000000000000000000602082015250565b6000612dd0603583612775565b9150612ddb82612d74565b604082019050919050565b60006020820190508181036000830152612dff81612dc3565b9050919050565b7f4e487b7100000000000000000000000000000000000000000000000000000000600052603260045260246000fd5b6000612e4082612417565b91507fffffffffffffffffffffffffffffffffffffffffffffffffffffffffffffffff8203612e7257612e71612888565b5b60018201905091905056fea2646970667358221220b48a4d9ba5259aaeca82cd863976c676d85b8c4fc0f2f1d357b510563af7012864736f6c63430008140033",
  "linkReferences": {},
  "deployedLinkReferences": {}
}