{
  "_format": "hh-sol-artifact-1",
  "contractName": "DynamicLiquidityPool",
  "sourceName": "contracts/modifiedPool.sol",
  "abi": [
    {
      "inputs": [
        {
          "internalType": "address",
          "name": "_t1",
          "type": "address"
        },
        {
          "internalType": "address",
          "name": "_t2",
          "type": "address"
        },
        {
          "internalType": "address",
          "name": "_lptoken",
          "type": "address"
        }
      ],
      "stateMutability": "nonpayable",
      "type": "constructor"
    },
    {
      "inputs": [
        {
          "internalType": "uint256",
          "name": "_amount1",
          "type": "uint256"
        },
        {
          "internalType": "uint256",
          "name": "_amount2",
          "type": "uint256"
        },
        {
          "internalType": "uint256",
          "name": "slippage",
          "type": "uint256"
        }
      ],
      "name": "addLiquidity",
      "outputs": [
        {
          "internalType": "uint256",
          "name": "shares",
          "type": "uint256"
        }
      ],
      "stateMutability": "nonpayable",
      "type": "function"
    },
    {
      "inputs": [],
      "name": "average_external_ratio",
      "outputs": [
        {
          "internalType": "uint256",
          "name": "",
          "type": "uint256"
        }
      ],
      "stateMutability": "view",
      "type": "function"
    },
    {
      "inputs": [],
      "name": "baseFee",
      "outputs": [
        {
          "internalType": "uint256",
          "name": "",
          "type": "uint256"
        }
      ],
      "stateMutability": "view",
      "type": "function"
    },
    {
      "inputs": [],
      "name": "calculateNewSwapFee",
      "outputs": [
        {
          "internalType": "string",
          "name": "",
          "type": "string"
        }
      ],
      "stateMutability": "nonpayable",
      "type": "function"
    },
    {
      "inputs": [
        {
          "internalType": "uint256",
          "name": "countIn",
          "type": "uint256"
        },
        {
          "internalType": "uint256",
          "name": "inReserve",
          "type": "uint256"
        },
        {
          "internalType": "uint256",
          "name": "outReserve",
          "type": "uint256"
        }
      ],
      "name": "calculateSwap",
      "outputs": [
        {
          "internalType": "uint256",
          "name": "amountOut",
          "type": "uint256"
        }
      ],
      "stateMutability": "view",
      "type": "function"
    },
    {
      "inputs": [],
      "name": "callToken",
      "outputs": [
        {
          "internalType": "uint256",
          "name": "",
          "type": "uint256"
        }
      ],
      "stateMutability": "view",
      "type": "function"
    },
    {
      "inputs": [
        {
          "internalType": "uint256",
          "name": "",
          "type": "uint256"
        }
      ],
      "name": "dataPoints",
      "outputs": [
        {
          "internalType": "uint256",
          "name": "",
          "type": "uint256"
        }
      ],
      "stateMutability": "view",
      "type": "function"
    },
    {
      "inputs": [],
      "name": "getChainlinkDataFeedLatestAnswer",
      "outputs": [
        {
          "internalType": "uint256",
          "name": "",
          "type": "uint256"
        }
      ],
      "stateMutability": "view",
      "type": "function"
    },
    {
      "inputs": [],
      "name": "getDataPoints",
      "outputs": [
        {
          "internalType": "uint256[]",
          "name": "",
          "type": "uint256[]"
        }
      ],
      "stateMutability": "view",
      "type": "function"
    },
    {
      "inputs": [],
      "name": "getReserveRatio",
      "outputs": [
        {
          "internalType": "uint256",
          "name": "",
          "type": "uint256"
        }
      ],
      "stateMutability": "view",
      "type": "function"
    },
    {
      "inputs": [],
      "name": "lastFetchedExternalRatio",
      "outputs": [
        {
          "internalType": "uint256",
          "name": "",
          "type": "uint256"
        }
      ],
      "stateMutability": "view",
      "type": "function"
    },
    {
      "inputs": [],
      "name": "lockPeriod",
      "outputs": [
        {
          "internalType": "uint256",
          "name": "",
          "type": "uint256"
        }
      ],
      "stateMutability": "view",
      "type": "function"
    },
    {
      "inputs": [],
      "name": "lptoken",
      "outputs": [
        {
          "internalType": "contract LpToken",
          "name": "",
          "type": "address"
        }
      ],
      "stateMutability": "view",
      "type": "function"
    },
    {
      "inputs": [],
      "name": "precision",
      "outputs": [
        {
          "internalType": "uint256",
          "name": "",
          "type": "uint256"
        }
      ],
      "stateMutability": "view",
      "type": "function"
    },
    {
      "inputs": [],
      "name": "recent_swaps",
      "outputs": [
        {
          "internalType": "uint256",
          "name": "",
          "type": "uint256"
        }
      ],
      "stateMutability": "view",
      "type": "function"
    },
    {
      "inputs": [
        {
          "internalType": "uint256",
          "name": "_shareCount",
          "type": "uint256"
        }
      ],
      "name": "removeLiquidity",
      "outputs": [
        {
          "internalType": "uint256",
          "name": "token1Amount",
          "type": "uint256"
        },
        {
          "internalType": "uint256",
          "name": "token2Amount",
          "type": "uint256"
        }
      ],
      "stateMutability": "nonpayable",
      "type": "function"
    },
    {
      "inputs": [
        {
          "internalType": "uint256",
          "name": "_ratio",
          "type": "uint256"
        }
      ],
      "name": "setExternalRatio",
      "outputs": [],
      "stateMutability": "nonpayable",
      "type": "function"
    },
    {
      "inputs": [
        {
          "internalType": "address",
          "name": "_LPToken",
          "type": "address"
        }
      ],
      "name": "setLPTokenAddress",
      "outputs": [],
      "stateMutability": "nonpayable",
      "type": "function"
    },
    {
      "inputs": [
        {
          "internalType": "uint256",
          "name": "_reserve1",
          "type": "uint256"
        }
      ],
      "name": "setReserve1",
      "outputs": [
        {
          "internalType": "uint256",
          "name": "",
          "type": "uint256"
        }
      ],
      "stateMutability": "nonpayable",
      "type": "function"
    },
    {
      "inputs": [
        {
          "internalType": "uint256",
          "name": "_reserve2",
          "type": "uint256"
        }
      ],
      "name": "setReserve2",
      "outputs": [
        {
          "internalType": "uint256",
          "name": "",
          "type": "uint256"
        }
      ],
      "stateMutability": "nonpayable",
      "type": "function"
    },
    {
      "inputs": [
        {
          "internalType": "address",
          "name": "_token",
          "type": "address"
        },
        {
          "internalType": "uint256",
          "name": "countIn",
          "type": "uint256"
        },
        {
          "internalType": "uint256",
          "name": "slippage_minimum",
          "type": "uint256"
        }
      ],
      "name": "slippage_swap",
      "outputs": [
        {
          "internalType": "bool",
          "name": "success",
          "type": "bool"
        }
      ],
      "stateMutability": "nonpayable",
      "type": "function"
    },
    {
      "inputs": [
        {
          "internalType": "address",
          "name": "_token",
          "type": "address"
        },
        {
          "internalType": "uint256",
          "name": "countIn",
          "type": "uint256"
        }
      ],
      "name": "swap",
      "outputs": [
        {
          "internalType": "uint256",
          "name": "amountOut",
          "type": "uint256"
        }
      ],
      "stateMutability": "nonpayable",
      "type": "function"
    },
    {
      "inputs": [],
      "name": "token1",
      "outputs": [
        {
          "internalType": "contract ERC20",
          "name": "",
          "type": "address"
        }
      ],
      "stateMutability": "view",
      "type": "function"
    },
    {
      "inputs": [],
      "name": "token1_reserve",
      "outputs": [
        {
          "internalType": "uint256",
          "name": "",
          "type": "uint256"
        }
      ],
      "stateMutability": "view",
      "type": "function"
    },
    {
      "inputs": [],
      "name": "token2",
      "outputs": [
        {
          "internalType": "contract ERC20",
          "name": "",
          "type": "address"
        }
      ],
      "stateMutability": "view",
      "type": "function"
    },
    {
      "inputs": [],
      "name": "token2_reserve",
      "outputs": [
        {
          "internalType": "uint256",
          "name": "",
          "type": "uint256"
        }
      ],
      "stateMutability": "view",
      "type": "function"
    },
    {
      "inputs": [
        {
          "internalType": "uint256",
          "name": "amount",
          "type": "uint256"
        }
      ],
      "name": "withFee",
      "outputs": [
        {
          "internalType": "uint256",
          "name": "",
          "type": "uint256"
        }
      ],
      "stateMutability": "view",
      "type": "function"
    }
  ],
  "bytecode": "0x6080604052601e60005560006006556000600755670de0b6b3a7640000600855666a94d74f43000060095542600b556000600c556000600e553480156200004557600080fd5b506040516200312d3803806200312d83398181016040528101906200006b9190620001a1565b82600460006101000a81548173ffffffffffffffffffffffffffffffffffffffff021916908373ffffffffffffffffffffffffffffffffffffffff16021790555081600560006101000a81548173ffffffffffffffffffffffffffffffffffffffff021916908373ffffffffffffffffffffffffffffffffffffffff16021790555080600360006101000a81548173ffffffffffffffffffffffffffffffffffffffff021916908373ffffffffffffffffffffffffffffffffffffffff160217905550505050620001fd565b600080fd5b600073ffffffffffffffffffffffffffffffffffffffff82169050919050565b600062000169826200013c565b9050919050565b6200017b816200015c565b81146200018757600080fd5b50565b6000815190506200019b8162000170565b92915050565b600080600060608486031215620001bd57620001bc62000137565b5b6000620001cd868287016200018a565b9350506020620001e0868287016200018a565b9250506040620001f3868287016200018a565b9150509250925092565b612f20806200020d6000396000f3fe608060405234801561001057600080fd5b50600436106101a95760003560e01c80639b67684f116100f9578063d21220a711610097578063ec6341b311610071578063ec6341b3146104ef578063f363393b1461051f578063f42ebbe01461053d578063ff7fd41014610559576101a9565b8063d21220a714610495578063d3b5dc3b146104b3578063de931662146104d1576101a9565b8063bea4dfb5116100d3578063bea4dfb5146103f9578063c773aab414610417578063ce96766a14610447578063d004f0f714610465576101a9565b80639b67684f146103685780639c8f9f2314610398578063a6782b4b146103c9576101a9565b80634d1fb8a611610166578063668886241161014057806366888624146102f25780636bf627a3146103105780636ef25c3a1461032c57806389d27eb51461034a576101a9565b80634d1fb8a61461029857806355424308146102b657806356b6d0d5146102d4576101a9565b8063255021a2146101ae57806325be124e146101de5780633d65ce58146101fc5780633fd8b02f1461022c578063422f10431461024a5780634be6ab341461027a575b600080fd5b6101c860048036038101906101c39190612455565b610577565b6040516101d59190612491565b60405180910390f35b6101e66105b9565b6040516101f3919061252b565b60405180910390f35b61021660048036038101906102119190612455565b6105df565b6040516102239190612491565b60405180910390f35b6102346105f2565b6040516102419190612491565b60405180910390f35b610264600480360381019061025f9190612546565b6105f8565b6040516102719190612491565b60405180910390f35b610282610a2f565b60405161028f9190612491565b60405180910390f35b6102a0610a35565b6040516102ad9190612491565b60405180910390f35b6102be610a3b565b6040516102cb9190612491565b60405180910390f35b6102dc610a41565b6040516102e99190612491565b60405180910390f35b6102fa610a87565b6040516103079190612657565b60405180910390f35b61032a60048036038101906103259190612455565b610adf565b005b610334610ae9565b6040516103419190612491565b60405180910390f35b610352610aef565b60405161035f9190612491565b60405180910390f35b610382600480360381019061037d9190612455565b610af5565b60405161038f9190612491565b60405180910390f35b6103b260048036038101906103ad9190612455565b610b08565b6040516103c0929190612679565b60405180910390f35b6103e360048036038101906103de9190612455565b61115c565b6040516103f09190612491565b60405180910390f35b610401611180565b60405161040e9190612491565b60405180910390f35b610431600480360381019061042c91906126e0565b61118a565b60405161043e919061274e565b60405180910390f35b61044f61161f565b60405161045c9190612491565b60405180910390f35b61047f600480360381019061047a9190612769565b611625565b60405161048c9190612491565b60405180910390f35b61049d611ae3565b6040516104aa919061252b565b60405180910390f35b6104bb611b09565b6040516104c89190612491565b60405180910390f35b6104d9611b0f565b6040516104e69190612491565b60405180910390f35b61050960048036038101906105049190612546565b611bac565b6040516105169190612491565b60405180910390f35b610527611be6565b60405161053491906127ca565b60405180910390f35b610557600480360381019061055291906127e5565b611c0c565b005b610561611c50565b60405161056e91906128a2565b60405180910390f35b600080670de0b6b3a7640000600954670de0b6b3a764000061059991906128f3565b846105a49190612927565b6105ae9190612998565b905080915050919050565b600560009054906101000a900473ffffffffffffffffffffffffffffffffffffffff1681565b6000816007819055506007549050919050565b60005481565b600080841180156106095750600083115b61061257600080fd5b6000600654118061062557506000600754115b1561066057600654836106389190612927565b600754856106469190612927565b1461065f57610656848484611d6d565b80945081955050505b5b600460009054906101000a900473ffffffffffffffffffffffffffffffffffffffff1673ffffffffffffffffffffffffffffffffffffffff166323b872dd3330876040518463ffffffff1660e01b81526004016106bf939291906129d8565b6020604051808303816000875af11580156106de573d6000803e3d6000fd5b505050506040513d601f19601f820116820180604052508101906107029190612a3b565b50600560009054906101000a900473ffffffffffffffffffffffffffffffffffffffff1673ffffffffffffffffffffffffffffffffffffffff166323b872dd3330866040518463ffffffff1660e01b8152600401610762939291906129d8565b6020604051808303816000875af1158015610781573d6000803e3d6000fd5b505050506040513d601f19601f820116820180604052508101906107a59190612a3b565b506000600360009054906101000a900473ffffffffffffffffffffffffffffffffffffffff1673ffffffffffffffffffffffffffffffffffffffff166318160ddd6040518163ffffffff1660e01b8152600401602060405180830381865afa158015610815573d6000803e3d6000fd5b505050506040513d601f19601f820116820180604052508101906108399190612a7d565b90506000810361085e5761085784866108529190612927565b611e8b565b915061089b565b61089860065482876108709190612927565b61087a9190612998565b60075483876108899190612927565b6108939190612998565b611f05565b91505b600082116108de576040517f08c379a00000000000000000000000000000000000000000000000000000000081526004016108d590612b1c565b60405180910390fd5b610a1e600460009054906101000a900473ffffffffffffffffffffffffffffffffffffffff1673ffffffffffffffffffffffffffffffffffffffff166370a08231306040518263ffffffff1660e01b815260040161093c9190612b3c565b602060405180830381865afa158015610959573d6000803e3d6000fd5b505050506040513d601f19601f8201168201806040525081019061097d9190612a7d565b600560009054906101000a900473ffffffffffffffffffffffffffffffffffffffff1673ffffffffffffffffffffffffffffffffffffffff166370a08231306040518263ffffffff1660e01b81526004016109d89190612b3c565b602060405180830381865afa1580156109f5573d6000803e3d6000fd5b505050506040513d601f19601f82011682018060405250810190610a199190612a7d565b611f1f565b610a2782611f31565b509392505050565b60065481565b600e5481565b60075481565b600080600654118015610a5657506000600754115b610a5f57600080fd5b6000600654600854600754610a749190612927565b610a7e9190612998565b90508091505090565b6060600a805480602002602001604051908101604052809291908181526020018280548015610ad557602002820191906000526020600020905b815481526020019060010190808311610ac1575b5050505050905090565b80600c8190555050565b60095481565b600c5481565b6000816006819055506006549050919050565b6000806000600360009054906101000a900473ffffffffffffffffffffffffffffffffffffffff1673ffffffffffffffffffffffffffffffffffffffff166370a08231336040518263ffffffff1660e01b8152600401610b689190612b3c565b602060405180830381865afa158015610b85573d6000803e3d6000fd5b505050506040513d601f19601f82011682018060405250810190610ba99190612a7d565b905080841115610bee576040517f08c379a0000000000000000000000000000000000000000000000000000000008152600401610be590612bc9565b60405180910390fd5b6000600160003373ffffffffffffffffffffffffffffffffffffffff1673ffffffffffffffffffffffffffffffffffffffff16815260200190815260200160002060000154118015610c825750600160003373ffffffffffffffffffffffffffffffffffffffff1673ffffffffffffffffffffffffffffffffffffffff168152602001908152602001600020600001548411155b610cc1576040517f08c379a0000000000000000000000000000000000000000000000000000000008152600401610cb890612c35565b60405180910390fd5b6000600360009054906101000a900473ffffffffffffffffffffffffffffffffffffffff1673ffffffffffffffffffffffffffffffffffffffff166318160ddd6040518163ffffffff1660e01b8152600401602060405180830381865afa158015610d30573d6000803e3d6000fd5b505050506040513d601f19601f82011682018060405250810190610d549190612a7d565b90506000600460009054906101000a900473ffffffffffffffffffffffffffffffffffffffff1673ffffffffffffffffffffffffffffffffffffffff166370a08231306040518263ffffffff1660e01b8152600401610db39190612b3c565b602060405180830381865afa158015610dd0573d6000803e3d6000fd5b505050506040513d601f19601f82011682018060405250810190610df49190612a7d565b90506000600560009054906101000a900473ffffffffffffffffffffffffffffffffffffffff1673ffffffffffffffffffffffffffffffffffffffff166370a08231306040518263ffffffff1660e01b8152600401610e539190612b3c565b602060405180830381865afa158015610e70573d6000803e3d6000fd5b505050506040513d601f19601f82011682018060405250810190610e949190612a7d565b9050828783610ea39190612927565b610ead9190612998565b9550828782610ebc9190612927565b610ec69190612998565b9450600460009054906101000a900473ffffffffffffffffffffffffffffffffffffffff1673ffffffffffffffffffffffffffffffffffffffff1663a9059cbb33886040518363ffffffff1660e01b8152600401610f25929190612c55565b6020604051808303816000875af1158015610f44573d6000803e3d6000fd5b505050506040513d601f19601f82011682018060405250810190610f689190612a3b565b50600560009054906101000a900473ffffffffffffffffffffffffffffffffffffffff1673ffffffffffffffffffffffffffffffffffffffff1663a9059cbb33876040518363ffffffff1660e01b8152600401610fc6929190612c55565b6020604051808303816000875af1158015610fe5573d6000803e3d6000fd5b505050506040513d601f19601f820116820180604052508101906110099190612a3b565b5061114a600460009054906101000a900473ffffffffffffffffffffffffffffffffffffffff1673ffffffffffffffffffffffffffffffffffffffff166370a08231306040518263ffffffff1660e01b81526004016110689190612b3c565b602060405180830381865afa158015611085573d6000803e3d6000fd5b505050506040513d601f19601f820116820180604052508101906110a99190612a7d565b600560009054906101000a900473ffffffffffffffffffffffffffffffffffffffff1673ffffffffffffffffffffffffffffffffffffffff166370a08231306040518263ffffffff1660e01b81526004016111049190612b3c565b602060405180830381865afa158015611121573d6000803e3d6000fd5b505050506040513d601f19601f820116820180604052508101906111459190612a7d565b611f1f565b6111538761214f565b50505050915091565b600a818154811061116c57600080fd5b906000526020600020016000915090505481565b6000600c54905090565b600083600460009054906101000a900473ffffffffffffffffffffffffffffffffffffffff1673ffffffffffffffffffffffffffffffffffffffff168173ffffffffffffffffffffffffffffffffffffffff1614806112365750600560009054906101000a900473ffffffffffffffffffffffffffffffffffffffff1673ffffffffffffffffffffffffffffffffffffffff168173ffffffffffffffffffffffffffffffffffffffff16145b611275576040517f08c379a000000000000000000000000000000000000000000000000000000000815260040161126c90612cca565b60405180910390fd5b6000600460009054906101000a900473ffffffffffffffffffffffffffffffffffffffff1673ffffffffffffffffffffffffffffffffffffffff168673ffffffffffffffffffffffffffffffffffffffff161490506000806000808461132657600560009054906101000a900473ffffffffffffffffffffffffffffffffffffffff16600460009054906101000a900473ffffffffffffffffffffffffffffffffffffffff16600754600654611373565b600460009054906101000a900473ffffffffffffffffffffffffffffffffffffffff16600560009054906101000a900473ffffffffffffffffffffffffffffffffffffffff166006546007545b935093509350935060006113888a8484611bac565b9050888110156113cd576040517f08c379a00000000000000000000000000000000000000000000000000000000081526004016113c490612d5c565b60405180910390fd5b8473ffffffffffffffffffffffffffffffffffffffff166323b872dd33308d6040518463ffffffff1660e01b815260040161140a939291906129d8565b6020604051808303816000875af1158015611429573d6000803e3d6000fd5b505050506040513d601f19601f8201168201806040525081019061144d9190612a3b565b508373ffffffffffffffffffffffffffffffffffffffff1663a9059cbb33836040518363ffffffff1660e01b8152600401611489929190612c55565b6020604051808303816000875af11580156114a8573d6000803e3d6000fd5b505050506040513d601f19601f820116820180604052508101906114cc9190612a3b565b5061160d600460009054906101000a900473ffffffffffffffffffffffffffffffffffffffff1673ffffffffffffffffffffffffffffffffffffffff166370a08231306040518263ffffffff1660e01b815260040161152b9190612b3c565b602060405180830381865afa158015611548573d6000803e3d6000fd5b505050506040513d601f19601f8201168201806040525081019061156c9190612a7d565b600560009054906101000a900473ffffffffffffffffffffffffffffffffffffffff1673ffffffffffffffffffffffffffffffffffffffff166370a08231306040518263ffffffff1660e01b81526004016115c79190612b3c565b602060405180830381865afa1580156115e4573d6000803e3d6000fd5b505050506040513d601f19601f820116820180604052508101906116089190612a7d565b611f1f565b60019750505050505050509392505050565b600d5481565b600082600460009054906101000a900473ffffffffffffffffffffffffffffffffffffffff1673ffffffffffffffffffffffffffffffffffffffff168173ffffffffffffffffffffffffffffffffffffffff1614806116d15750600560009054906101000a900473ffffffffffffffffffffffffffffffffffffffff1673ffffffffffffffffffffffffffffffffffffffff168173ffffffffffffffffffffffffffffffffffffffff16145b611710576040517f08c379a000000000000000000000000000000000000000000000000000000000815260040161170790612cca565b60405180910390fd5b6000600460009054906101000a900473ffffffffffffffffffffffffffffffffffffffff1673ffffffffffffffffffffffffffffffffffffffff168573ffffffffffffffffffffffffffffffffffffffff16149050600080600080846117c157600560009054906101000a900473ffffffffffffffffffffffffffffffffffffffff16600460009054906101000a900473ffffffffffffffffffffffffffffffffffffffff1660075460065461180e565b600460009054906101000a900473ffffffffffffffffffffffffffffffffffffffff16600560009054906101000a900473ffffffffffffffffffffffffffffffffffffffff166006546007545b935093509350935061181e612275565b806118435750600060056001600e546118379190612d7c565b6118419190612db0565b145b15611870576000611852611180565b905061185d8161229e565b611865611c50565b506000600e81905550505b61187b888383611bac565b96508373ffffffffffffffffffffffffffffffffffffffff166323b872dd33308b6040518463ffffffff1660e01b81526004016118ba939291906129d8565b6020604051808303816000875af11580156118d9573d6000803e3d6000fd5b505050506040513d601f19601f820116820180604052508101906118fd9190612a3b565b508273ffffffffffffffffffffffffffffffffffffffff1663a9059cbb33896040518363ffffffff1660e01b8152600401611939929190612c55565b6020604051808303816000875af1158015611958573d6000803e3d6000fd5b505050506040513d601f19601f8201168201806040525081019061197c9190612a3b565b50611abd600460009054906101000a900473ffffffffffffffffffffffffffffffffffffffff1673ffffffffffffffffffffffffffffffffffffffff166370a08231306040518263ffffffff1660e01b81526004016119db9190612b3c565b602060405180830381865afa1580156119f8573d6000803e3d6000fd5b505050506040513d601f19601f82011682018060405250810190611a1c9190612a7d565b600560009054906101000a900473ffffffffffffffffffffffffffffffffffffffff1673ffffffffffffffffffffffffffffffffffffffff166370a08231306040518263ffffffff1660e01b8152600401611a779190612b3c565b602060405180830381865afa158015611a94573d6000803e3d6000fd5b505050506040513d601f19601f82011682018060405250810190611ab89190612a7d565b611f1f565b6001600e6000828254611ad09190612d7c565b9250508190555050505050505092915050565b600460009054906101000a900473ffffffffffffffffffffffffffffffffffffffff1681565b60085481565b600080600260009054906101000a900473ffffffffffffffffffffffffffffffffffffffff1690508073ffffffffffffffffffffffffffffffffffffffff166318160ddd6040518163ffffffff1660e01b8152600401602060405180830381865afa158015611b82573d6000803e3d6000fd5b505050506040513d601f19601f82011682018060405250810190611ba69190612a7d565b91505090565b600080611bb885610577565b90508084611bc69190612d7c565b8184611bd29190612927565b611bdc9190612998565b9150509392505050565b600360009054906101000a900473ffffffffffffffffffffffffffffffffffffffff1681565b80600260006101000a81548173ffffffffffffffffffffffffffffffffffffffff021916908373ffffffffffffffffffffffffffffffffffffffff16021790555050565b60606000600654118015611c6657506000600754115b611c6f57600080fd5b6000611c79610a41565b905060006103e86103ed83611c8e9190612927565b611c989190612998565b905060006103e86103e384611cad9190612927565b611cb79190612998565b905080600d5410158015611ccd575081600d5411155b15611d2057666a94d74f4300006009819055506040518060400160405280600c81526020017f57697468696e20726174696f00000000000000000000000000000000000000008152509350505050611d6a565b662386f26fc100006009819055506040518060400160405280601081526020017f4e6f742077697468696e20726174696f0000000000000000000000000000000081525093505050505b90565b600080600060065460075487611d839190612927565b611d8d9190612998565b9050600061271085612710611da291906128f3565b87611dad9190612927565b611db79190612998565b9050808210158015611dc95750858211155b15611ddb578682935093505050611e83565b600060075460065488611dee9190612927565b611df89190612998565b9050600061271087612710611e0d91906128f3565b8a611e189190612927565b611e229190612998565b9050808210158015611e345750888211155b15611e485781889550955050505050611e83565b6040517f08c379a0000000000000000000000000000000000000000000000000000000008152600401611e7a90612e53565b60405180910390fd5b935093915050565b60006003821115611ef25781905060006001600284611eaa9190612998565b611eb49190612d7c565b90505b81811015611eec578091506002818285611ed19190612998565b611edb9190612d7c565b611ee59190612998565b9050611eb7565b50611f00565b60008214611eff57600190505b5b919050565b600081831115611f155781611f17565b825b905092915050565b81600681905550806007819055505050565b6000805442611f409190612d7c565b90506000600160003373ffffffffffffffffffffffffffffffffffffffff1673ffffffffffffffffffffffffffffffffffffffff168152602001908152602001600020600001541115612050576000600160003373ffffffffffffffffffffffffffffffffffffffff1673ffffffffffffffffffffffffffffffffffffffff1681526020019081526020016000206000015483611fdd9190612d7c565b9050604051806040016040528082815260200183815250600160003373ffffffffffffffffffffffffffffffffffffffff1673ffffffffffffffffffffffffffffffffffffffff1681526020019081526020016000206000820151816000015560208201518160010155905050506120bc565b604051806040016040528083815260200182815250600160003373ffffffffffffffffffffffffffffffffffffffff1673ffffffffffffffffffffffffffffffffffffffff16815260200190815260200160002060008201518160000155602082015181600101559050505b600360009054906101000a900473ffffffffffffffffffffffffffffffffffffffff1673ffffffffffffffffffffffffffffffffffffffff166340c10f1933846040518363ffffffff1660e01b8152600401612119929190612c55565b600060405180830381600087803b15801561213357600080fd5b505af1158015612147573d6000803e3d6000fd5b505050505050565b80600160003373ffffffffffffffffffffffffffffffffffffffff1673ffffffffffffffffffffffffffffffffffffffff1681526020019081526020016000206000015461219d91906128f3565b600160003373ffffffffffffffffffffffffffffffffffffffff1673ffffffffffffffffffffffffffffffffffffffff16815260200190815260200160002060000181905550600360009054906101000a900473ffffffffffffffffffffffffffffffffffffffff1673ffffffffffffffffffffffffffffffffffffffff16639dc29fac33836040518363ffffffff1660e01b8152600401612240929190612c55565b600060405180830381600087803b15801561225a57600080fd5b505af115801561226e573d6000803e3d6000fd5b5050505050565b6000603c600b544261228791906128f3565b1115612296576001905061229b565b600090505b90565b6005600a8054905010156122da57600a81908060018154018082558091505060019003906000526020600020016000909190919091505561238c565b60005b6001600a805490506122ef91906128f3565b81101561235657600a6001826123059190612d7c565b8154811061231657612315612e73565b5b9060005260206000200154600a828154811061233557612334612e73565b5b9060005260206000200181905550808061234e90612ea2565b9150506122dd565b5080600a6001600a8054905061236c91906128f3565b8154811061237d5761237c612e73565b5b90600052602060002001819055505b612394612397565b50565b6000600a80549050116123a957600080fd5b6000805b600a805490508110156123f957600a81815481106123ce576123cd612e73565b5b9060005260206000200154826123e49190612d7c565b915080806123f190612ea2565b9150506123ad565b506000600a805490508261240d9190612998565b905080600d819055505050565b600080fd5b6000819050919050565b6124328161241f565b811461243d57600080fd5b50565b60008135905061244f81612429565b92915050565b60006020828403121561246b5761246a61241a565b5b600061247984828501612440565b91505092915050565b61248b8161241f565b82525050565b60006020820190506124a66000830184612482565b92915050565b600073ffffffffffffffffffffffffffffffffffffffff82169050919050565b6000819050919050565b60006124f16124ec6124e7846124ac565b6124cc565b6124ac565b9050919050565b6000612503826124d6565b9050919050565b6000612515826124f8565b9050919050565b6125258161250a565b82525050565b6000602082019050612540600083018461251c565b92915050565b60008060006060848603121561255f5761255e61241a565b5b600061256d86828701612440565b935050602061257e86828701612440565b925050604061258f86828701612440565b9150509250925092565b600081519050919050565b600082825260208201905092915050565b6000819050602082019050919050565b6125ce8161241f565b82525050565b60006125e083836125c5565b60208301905092915050565b6000602082019050919050565b600061260482612599565b61260e81856125a4565b9350612619836125b5565b8060005b8381101561264a57815161263188826125d4565b975061263c836125ec565b92505060018101905061261d565b5085935050505092915050565b6000602082019050818103600083015261267181846125f9565b905092915050565b600060408201905061268e6000830185612482565b61269b6020830184612482565b9392505050565b60006126ad826124ac565b9050919050565b6126bd816126a2565b81146126c857600080fd5b50565b6000813590506126da816126b4565b92915050565b6000806000606084860312156126f9576126f861241a565b5b6000612707868287016126cb565b935050602061271886828701612440565b925050604061272986828701612440565b9150509250925092565b60008115159050919050565b61274881612733565b82525050565b6000602082019050612763600083018461273f565b92915050565b600080604083850312156127805761277f61241a565b5b600061278e858286016126cb565b925050602061279f85828601612440565b9150509250929050565b60006127b4826124f8565b9050919050565b6127c4816127a9565b82525050565b60006020820190506127df60008301846127bb565b92915050565b6000602082840312156127fb576127fa61241a565b5b6000612809848285016126cb565b91505092915050565b600081519050919050565b600082825260208201905092915050565b60005b8381101561284c578082015181840152602081019050612831565b60008484015250505050565b6000601f19601f8301169050919050565b600061287482612812565b61287e818561281d565b935061288e81856020860161282e565b61289781612858565b840191505092915050565b600060208201905081810360008301526128bc8184612869565b905092915050565b7f4e487b7100000000000000000000000000000000000000000000000000000000600052601160045260246000fd5b60006128fe8261241f565b91506129098361241f565b9250828203905081811115612921576129206128c4565b5b92915050565b60006129328261241f565b915061293d8361241f565b925082820261294b8161241f565b91508282048414831517612962576129616128c4565b5b5092915050565b7f4e487b7100000000000000000000000000000000000000000000000000000000600052601260045260246000fd5b60006129a38261241f565b91506129ae8361241f565b9250826129be576129bd612969565b5b828204905092915050565b6129d2816126a2565b82525050565b60006060820190506129ed60008301866129c9565b6129fa60208301856129c9565b612a076040830184612482565b949350505050565b612a1881612733565b8114612a2357600080fd5b50565b600081519050612a3581612a0f565b92915050565b600060208284031215612a5157612a5061241a565b5b6000612a5f84828501612a26565b91505092915050565b600081519050612a7781612429565b92915050565b600060208284031215612a9357612a9261241a565b5b6000612aa184828501612a68565b91505092915050565b7f4d696e74656420736861726573206d757374206265206772656174657220746860008201527f616e207a65726f00000000000000000000000000000000000000000000000000602082015250565b6000612b0660278361281d565b9150612b1182612aaa565b604082019050919050565b60006020820190508181036000830152612b3581612af9565b9050919050565b6000602082019050612b5160008301846129c9565b92915050565b7f417474656d7074696e6720746f206275726e20746f6f206d616e79204c50205460008201527f6f6b656e73000000000000000000000000000000000000000000000000000000602082015250565b6000612bb360258361281d565b9150612bbe82612b57565b604082019050919050565b60006020820190508181036000830152612be281612ba6565b9050919050565b7f546f6f206561726c7920746f207769746864726177206c697175696469747900600082015250565b6000612c1f601f8361281d565b9150612c2a82612be9565b602082019050919050565b60006020820190508181036000830152612c4e81612c12565b9050919050565b6000604082019050612c6a60008301856129c9565b612c776020830184612482565b9392505050565b7f496e76616c696420746f6b656e207479706520666f7220746869732073776170600082015250565b6000612cb460208361281d565b9150612cbf82612c7e565b602082019050919050565b60006020820190508181036000830152612ce381612ca7565b9050919050565b7f4f6e2d436861696e2065786368616e67652072617465206973206e6f7420776960008201527f7468696e20736c69707061676520626f756e6473207365742062792075736572602082015250565b6000612d4660408361281d565b9150612d5182612cea565b604082019050919050565b60006020820190508181036000830152612d7581612d39565b9050919050565b6000612d878261241f565b9150612d928361241f565b9250828201905080821115612daa57612da96128c4565b5b92915050565b6000612dbb8261241f565b9150612dc68361241f565b925082612dd657612dd5612969565b5b828206905092915050565b7f536c69707061676520746f6c6572616e63652065786365656465642c2061646a60008201527f757374206c697175696469747920616d6f756e74730000000000000000000000602082015250565b6000612e3d60358361281d565b9150612e4882612de1565b604082019050919050565b60006020820190508181036000830152612e6c81612e30565b9050919050565b7f4e487b7100000000000000000000000000000000000000000000000000000000600052603260045260246000fd5b6000612ead8261241f565b91507fffffffffffffffffffffffffffffffffffffffffffffffffffffffffffffffff8203612edf57612ede6128c4565b5b60018201905091905056fea264697066735822122023c1190b7396429d7bb9663a1df2f0383858dbe2f6b5acf1933837df42e0360564736f6c63430008140033",
  "linkReferences": {},
  "deployedLinkReferences": {}
}