{
  "_format": "hh-sol-artifact-1",
  "contractName": "VariableLiquidityPool",
  "sourceName": "contracts/modifiedPool.sol",
  "abi": [
    {
      "inputs": [
        {
          "internalType": "address",
          "name": "_t1",
          "type": "address"
        },
        {
          "internalType": "address",
          "name": "_t2",
          "type": "address"
        },
        {
          "internalType": "address",
          "name": "_lptoken",
          "type": "address"
        }
      ],
      "stateMutability": "nonpayable",
      "type": "constructor"
    },
    {
      "inputs": [
        {
          "internalType": "uint256",
          "name": "_amount1",
          "type": "uint256"
        },
        {
          "internalType": "uint256",
          "name": "_amount2",
          "type": "uint256"
        },
        {
          "internalType": "uint256",
          "name": "slippage",
          "type": "uint256"
        }
      ],
      "name": "addLiquidity",
      "outputs": [
        {
          "internalType": "uint256",
          "name": "shares",
          "type": "uint256"
        }
      ],
      "stateMutability": "nonpayable",
      "type": "function"
    },
    {
      "inputs": [],
      "name": "calculateNewSwapFee",
      "outputs": [
        {
          "internalType": "string",
          "name": "",
          "type": "string"
        }
      ],
      "stateMutability": "view",
      "type": "function"
    },
    {
      "inputs": [
        {
          "internalType": "uint256",
          "name": "num1",
          "type": "uint256"
        },
        {
          "internalType": "uint256",
          "name": "num2",
          "type": "uint256"
        }
      ],
      "name": "calculatePercentageDifference",
      "outputs": [
        {
          "internalType": "uint256",
          "name": "",
          "type": "uint256"
        }
      ],
      "stateMutability": "pure",
      "type": "function"
    },
    {
      "inputs": [
        {
          "internalType": "uint256",
          "name": "countIn",
          "type": "uint256"
        },
        {
          "internalType": "uint256",
          "name": "inReserve",
          "type": "uint256"
        },
        {
          "internalType": "uint256",
          "name": "outReserve",
          "type": "uint256"
        }
      ],
      "name": "calculateSwap",
      "outputs": [
        {
          "internalType": "uint256",
          "name": "amountOut",
          "type": "uint256"
        }
      ],
      "stateMutability": "pure",
      "type": "function"
    },
    {
      "inputs": [],
      "name": "callToken",
      "outputs": [
        {
          "internalType": "uint256",
          "name": "",
          "type": "uint256"
        }
      ],
      "stateMutability": "view",
      "type": "function"
    },
    {
      "inputs": [],
      "name": "getChainlinkDataFeedLatestAnswer",
      "outputs": [
        {
          "internalType": "uint256",
          "name": "",
          "type": "uint256"
        }
      ],
      "stateMutability": "pure",
      "type": "function"
    },
    {
      "inputs": [],
      "name": "getReserveRatio",
      "outputs": [
        {
          "internalType": "uint256",
          "name": "",
          "type": "uint256"
        }
      ],
      "stateMutability": "view",
      "type": "function"
    },
    {
      "inputs": [],
      "name": "lockPeriod",
      "outputs": [
        {
          "internalType": "uint256",
          "name": "",
          "type": "uint256"
        }
      ],
      "stateMutability": "view",
      "type": "function"
    },
    {
      "inputs": [],
      "name": "lptoken",
      "outputs": [
        {
          "internalType": "contract LpToken",
          "name": "",
          "type": "address"
        }
      ],
      "stateMutability": "view",
      "type": "function"
    },
    {
      "inputs": [],
      "name": "precision",
      "outputs": [
        {
          "internalType": "uint256",
          "name": "",
          "type": "uint256"
        }
      ],
      "stateMutability": "view",
      "type": "function"
    },
    {
      "inputs": [
        {
          "internalType": "uint256",
          "name": "_shareCount",
          "type": "uint256"
        }
      ],
      "name": "removeLiquidity",
      "outputs": [
        {
          "internalType": "uint256",
          "name": "token1Amount",
          "type": "uint256"
        },
        {
          "internalType": "uint256",
          "name": "token2Amount",
          "type": "uint256"
        }
      ],
      "stateMutability": "nonpayable",
      "type": "function"
    },
    {
      "inputs": [
        {
          "internalType": "address",
          "name": "_LPToken",
          "type": "address"
        }
      ],
      "name": "setLPTokenAddress",
      "outputs": [],
      "stateMutability": "nonpayable",
      "type": "function"
    },
    {
      "inputs": [
        {
          "internalType": "uint256",
          "name": "_reserve1",
          "type": "uint256"
        }
      ],
      "name": "setReserve1",
      "outputs": [
        {
          "internalType": "uint256",
          "name": "",
          "type": "uint256"
        }
      ],
      "stateMutability": "nonpayable",
      "type": "function"
    },
    {
      "inputs": [
        {
          "internalType": "uint256",
          "name": "_reserve2",
          "type": "uint256"
        }
      ],
      "name": "setReserve2",
      "outputs": [
        {
          "internalType": "uint256",
          "name": "",
          "type": "uint256"
        }
      ],
      "stateMutability": "nonpayable",
      "type": "function"
    },
    {
      "inputs": [
        {
          "internalType": "address",
          "name": "_token",
          "type": "address"
        },
        {
          "internalType": "uint256",
          "name": "countIn",
          "type": "uint256"
        },
        {
          "internalType": "uint256",
          "name": "slippage_minimum",
          "type": "uint256"
        }
      ],
      "name": "slippage_swap",
      "outputs": [
        {
          "internalType": "bool",
          "name": "success",
          "type": "bool"
        }
      ],
      "stateMutability": "nonpayable",
      "type": "function"
    },
    {
      "inputs": [
        {
          "internalType": "address",
          "name": "_token",
          "type": "address"
        },
        {
          "internalType": "uint256",
          "name": "countIn",
          "type": "uint256"
        }
      ],
      "name": "swap",
      "outputs": [
        {
          "internalType": "uint256",
          "name": "amountOut",
          "type": "uint256"
        }
      ],
      "stateMutability": "nonpayable",
      "type": "function"
    },
    {
      "inputs": [],
      "name": "token1",
      "outputs": [
        {
          "internalType": "contract ERC20",
          "name": "",
          "type": "address"
        }
      ],
      "stateMutability": "view",
      "type": "function"
    },
    {
      "inputs": [],
      "name": "token1_reserve",
      "outputs": [
        {
          "internalType": "uint256",
          "name": "",
          "type": "uint256"
        }
      ],
      "stateMutability": "view",
      "type": "function"
    },
    {
      "inputs": [],
      "name": "token2",
      "outputs": [
        {
          "internalType": "contract ERC20",
          "name": "",
          "type": "address"
        }
      ],
      "stateMutability": "view",
      "type": "function"
    },
    {
      "inputs": [],
      "name": "token2_reserve",
      "outputs": [
        {
          "internalType": "uint256",
          "name": "",
          "type": "uint256"
        }
      ],
      "stateMutability": "view",
      "type": "function"
    },
    {
      "inputs": [
        {
          "internalType": "uint256",
          "name": "amount",
          "type": "uint256"
        }
      ],
      "name": "withFee",
      "outputs": [
        {
          "internalType": "uint256",
          "name": "",
          "type": "uint256"
        }
      ],
      "stateMutability": "view",
      "type": "function"
    }
  ],
  "bytecode": "0x6080604052601e60005560006006556000600755670de0b6b3a7640000600855666a94d74f43000060095542600b553480156200003b57600080fd5b5060405162002d1838038062002d18833981810160405281019062000061919062000197565b82600460006101000a81548173ffffffffffffffffffffffffffffffffffffffff021916908373ffffffffffffffffffffffffffffffffffffffff16021790555081600560006101000a81548173ffffffffffffffffffffffffffffffffffffffff021916908373ffffffffffffffffffffffffffffffffffffffff16021790555080600360006101000a81548173ffffffffffffffffffffffffffffffffffffffff021916908373ffffffffffffffffffffffffffffffffffffffff160217905550505050620001f3565b600080fd5b600073ffffffffffffffffffffffffffffffffffffffff82169050919050565b60006200015f8262000132565b9050919050565b620001718162000152565b81146200017d57600080fd5b50565b600081519050620001918162000166565b92915050565b600080600060608486031215620001b357620001b26200012d565b5b6000620001c38682870162000180565b9350506020620001d68682870162000180565b9250506040620001e98682870162000180565b9150509250925092565b612b1580620002036000396000f3fe608060405234801561001057600080fd5b50600436106101375760003560e01c80639c8f9f23116100b8578063d3b5dc3b1161007c578063d3b5dc3b1461038f578063de931662146103ad578063ec6341b3146103cb578063f363393b146103fb578063f42ebbe014610419578063ff7fd4101461043557610137565b80639c8f9f23146102c2578063bea4dfb5146102f3578063c773aab414610311578063d004f0f714610341578063d21220a71461037157610137565b8063422f1043116100ff578063422f1043146102085780634be6ab3414610238578063554243081461025657806356b6d0d5146102745780639b67684f1461029257610137565b806310e3b1491461013c578063255021a21461016c57806325be124e1461019c5780633d65ce58146101ba5780633fd8b02f146101ea575b600080fd5b61015660048036038101906101519190612126565b610453565b6040516101639190612175565b60405180910390f35b61018660048036038101906101819190612190565b6104e7565b6040516101939190612175565b60405180910390f35b6101a461053b565b6040516101b1919061223c565b60405180910390f35b6101d460048036038101906101cf9190612190565b610561565b6040516101e19190612175565b60405180910390f35b6101f2610574565b6040516101ff9190612175565b60405180910390f35b610222600480360381019061021d9190612257565b61057a565b60405161022f9190612175565b60405180910390f35b6102406109b1565b60405161024d9190612175565b60405180910390f35b61025e6109b7565b60405161026b9190612175565b60405180910390f35b61027c6109bd565b6040516102899190612175565b60405180910390f35b6102ac60048036038101906102a79190612190565b610a03565b6040516102b99190612175565b60405180910390f35b6102dc60048036038101906102d79190612190565b610a16565b6040516102ea9291906122aa565b60405180910390f35b6102fb61106a565b6040516103089190612175565b60405180910390f35b61032b60048036038101906103269190612311565b61107a565b604051610338919061237f565b60405180910390f35b61035b6004803603810190610356919061239a565b61150f565b6040516103689190612175565b60405180910390f35b610379611959565b604051610386919061223c565b60405180910390f35b61039761197f565b6040516103a49190612175565b60405180910390f35b6103b5611985565b6040516103c29190612175565b60405180910390f35b6103e560048036038101906103e09190612257565b611a22565b6040516103f29190612175565b60405180910390f35b610403611a6e565b60405161041091906123fb565b60405180910390f35b610433600480360381019061042e9190612416565b611a94565b005b61043d611ad8565b60405161044a91906124d3565b60405180910390f35b6000808203610497576040517f08c379a000000000000000000000000000000000000000000000000000000000815260040161048e90612541565b60405180910390fd5b60008284116104b15783836104ac9190612590565b6104be565b82846104bd9190612590565b5b90506000836064836104d091906125c4565b6104da9190612635565b9050809250505092915050565b600080670de0b6b3a764000066038d7ea4c6800060095461050891906125c4565b6105129190612635565b670de0b6b3a76400006105259190612590565b8361053091906125c4565b905080915050919050565b600560009054906101000a900473ffffffffffffffffffffffffffffffffffffffff1681565b6000816007819055506007549050919050565b60005481565b6000808411801561058b5750600083115b61059457600080fd5b600060065411806105a757506000600754115b156105e257600654836105ba91906125c4565b600754856105c891906125c4565b146105e1576105d8848484611be3565b80945081955050505b5b600460009054906101000a900473ffffffffffffffffffffffffffffffffffffffff1673ffffffffffffffffffffffffffffffffffffffff166323b872dd3330876040518463ffffffff1660e01b815260040161064193929190612675565b6020604051808303816000875af1158015610660573d6000803e3d6000fd5b505050506040513d601f19601f8201168201806040525081019061068491906126d8565b50600560009054906101000a900473ffffffffffffffffffffffffffffffffffffffff1673ffffffffffffffffffffffffffffffffffffffff166323b872dd3330866040518463ffffffff1660e01b81526004016106e493929190612675565b6020604051808303816000875af1158015610703573d6000803e3d6000fd5b505050506040513d601f19601f8201168201806040525081019061072791906126d8565b506000600360009054906101000a900473ffffffffffffffffffffffffffffffffffffffff1673ffffffffffffffffffffffffffffffffffffffff166318160ddd6040518163ffffffff1660e01b8152600401602060405180830381865afa158015610797573d6000803e3d6000fd5b505050506040513d601f19601f820116820180604052508101906107bb919061271a565b9050600081036107e0576107d984866107d491906125c4565b611d01565b915061081d565b61081a60065482876107f291906125c4565b6107fc9190612635565b600754838761080b91906125c4565b6108159190612635565b611d7b565b91505b60008211610860576040517f08c379a0000000000000000000000000000000000000000000000000000000008152600401610857906127b9565b60405180910390fd5b6109a0600460009054906101000a900473ffffffffffffffffffffffffffffffffffffffff1673ffffffffffffffffffffffffffffffffffffffff166370a08231306040518263ffffffff1660e01b81526004016108be91906127d9565b602060405180830381865afa1580156108db573d6000803e3d6000fd5b505050506040513d601f19601f820116820180604052508101906108ff919061271a565b600560009054906101000a900473ffffffffffffffffffffffffffffffffffffffff1673ffffffffffffffffffffffffffffffffffffffff166370a08231306040518263ffffffff1660e01b815260040161095a91906127d9565b602060405180830381865afa158015610977573d6000803e3d6000fd5b505050506040513d601f19601f8201168201806040525081019061099b919061271a565b611d95565b6109a982611da7565b509392505050565b60065481565b60075481565b6000806006541180156109d257506000600754115b6109db57600080fd5b60006007546008546006546109f091906125c4565b6109fa9190612635565b90508091505090565b6000816006819055506006549050919050565b6000806000600360009054906101000a900473ffffffffffffffffffffffffffffffffffffffff1673ffffffffffffffffffffffffffffffffffffffff166370a08231336040518263ffffffff1660e01b8152600401610a7691906127d9565b602060405180830381865afa158015610a93573d6000803e3d6000fd5b505050506040513d601f19601f82011682018060405250810190610ab7919061271a565b905080841115610afc576040517f08c379a0000000000000000000000000000000000000000000000000000000008152600401610af390612866565b60405180910390fd5b6000600160003373ffffffffffffffffffffffffffffffffffffffff1673ffffffffffffffffffffffffffffffffffffffff16815260200190815260200160002060000154118015610b905750600160003373ffffffffffffffffffffffffffffffffffffffff1673ffffffffffffffffffffffffffffffffffffffff168152602001908152602001600020600001548411155b610bcf576040517f08c379a0000000000000000000000000000000000000000000000000000000008152600401610bc6906128d2565b60405180910390fd5b6000600360009054906101000a900473ffffffffffffffffffffffffffffffffffffffff1673ffffffffffffffffffffffffffffffffffffffff166318160ddd6040518163ffffffff1660e01b8152600401602060405180830381865afa158015610c3e573d6000803e3d6000fd5b505050506040513d601f19601f82011682018060405250810190610c62919061271a565b90506000600460009054906101000a900473ffffffffffffffffffffffffffffffffffffffff1673ffffffffffffffffffffffffffffffffffffffff166370a08231306040518263ffffffff1660e01b8152600401610cc191906127d9565b602060405180830381865afa158015610cde573d6000803e3d6000fd5b505050506040513d601f19601f82011682018060405250810190610d02919061271a565b90506000600560009054906101000a900473ffffffffffffffffffffffffffffffffffffffff1673ffffffffffffffffffffffffffffffffffffffff166370a08231306040518263ffffffff1660e01b8152600401610d6191906127d9565b602060405180830381865afa158015610d7e573d6000803e3d6000fd5b505050506040513d601f19601f82011682018060405250810190610da2919061271a565b9050828783610db191906125c4565b610dbb9190612635565b9550828782610dca91906125c4565b610dd49190612635565b9450600460009054906101000a900473ffffffffffffffffffffffffffffffffffffffff1673ffffffffffffffffffffffffffffffffffffffff1663a9059cbb33886040518363ffffffff1660e01b8152600401610e339291906128f2565b6020604051808303816000875af1158015610e52573d6000803e3d6000fd5b505050506040513d601f19601f82011682018060405250810190610e7691906126d8565b50600560009054906101000a900473ffffffffffffffffffffffffffffffffffffffff1673ffffffffffffffffffffffffffffffffffffffff1663a9059cbb33876040518363ffffffff1660e01b8152600401610ed49291906128f2565b6020604051808303816000875af1158015610ef3573d6000803e3d6000fd5b505050506040513d601f19601f82011682018060405250810190610f1791906126d8565b50611058600460009054906101000a900473ffffffffffffffffffffffffffffffffffffffff1673ffffffffffffffffffffffffffffffffffffffff166370a08231306040518263ffffffff1660e01b8152600401610f7691906127d9565b602060405180830381865afa158015610f93573d6000803e3d6000fd5b505050506040513d601f19601f82011682018060405250810190610fb7919061271a565b600560009054906101000a900473ffffffffffffffffffffffffffffffffffffffff1673ffffffffffffffffffffffffffffffffffffffff166370a08231306040518263ffffffff1660e01b815260040161101291906127d9565b602060405180830381865afa15801561102f573d6000803e3d6000fd5b505050506040513d601f19601f82011682018060405250810190611053919061271a565b611d95565b61106187611fc5565b50505050915091565b6000671bc16d674ec80000905090565b600083600460009054906101000a900473ffffffffffffffffffffffffffffffffffffffff1673ffffffffffffffffffffffffffffffffffffffff168173ffffffffffffffffffffffffffffffffffffffff1614806111265750600560009054906101000a900473ffffffffffffffffffffffffffffffffffffffff1673ffffffffffffffffffffffffffffffffffffffff168173ffffffffffffffffffffffffffffffffffffffff16145b611165576040517f08c379a000000000000000000000000000000000000000000000000000000000815260040161115c90612967565b60405180910390fd5b6000600460009054906101000a900473ffffffffffffffffffffffffffffffffffffffff1673ffffffffffffffffffffffffffffffffffffffff168673ffffffffffffffffffffffffffffffffffffffff161490506000806000808461121657600560009054906101000a900473ffffffffffffffffffffffffffffffffffffffff16600460009054906101000a900473ffffffffffffffffffffffffffffffffffffffff16600754600654611263565b600460009054906101000a900473ffffffffffffffffffffffffffffffffffffffff16600560009054906101000a900473ffffffffffffffffffffffffffffffffffffffff166006546007545b935093509350935060006112788a8484611a22565b9050888110156112bd576040517f08c379a00000000000000000000000000000000000000000000000000000000081526004016112b4906129f9565b60405180910390fd5b8473ffffffffffffffffffffffffffffffffffffffff166323b872dd33308d6040518463ffffffff1660e01b81526004016112fa93929190612675565b6020604051808303816000875af1158015611319573d6000803e3d6000fd5b505050506040513d601f19601f8201168201806040525081019061133d91906126d8565b508373ffffffffffffffffffffffffffffffffffffffff1663a9059cbb33836040518363ffffffff1660e01b81526004016113799291906128f2565b6020604051808303816000875af1158015611398573d6000803e3d6000fd5b505050506040513d601f19601f820116820180604052508101906113bc91906126d8565b506114fd600460009054906101000a900473ffffffffffffffffffffffffffffffffffffffff1673ffffffffffffffffffffffffffffffffffffffff166370a08231306040518263ffffffff1660e01b815260040161141b91906127d9565b602060405180830381865afa158015611438573d6000803e3d6000fd5b505050506040513d601f19601f8201168201806040525081019061145c919061271a565b600560009054906101000a900473ffffffffffffffffffffffffffffffffffffffff1673ffffffffffffffffffffffffffffffffffffffff166370a08231306040518263ffffffff1660e01b81526004016114b791906127d9565b602060405180830381865afa1580156114d4573d6000803e3d6000fd5b505050506040513d601f19601f820116820180604052508101906114f8919061271a565b611d95565b60019750505050505050509392505050565b600082600460009054906101000a900473ffffffffffffffffffffffffffffffffffffffff1673ffffffffffffffffffffffffffffffffffffffff168173ffffffffffffffffffffffffffffffffffffffff1614806115bb5750600560009054906101000a900473ffffffffffffffffffffffffffffffffffffffff1673ffffffffffffffffffffffffffffffffffffffff168173ffffffffffffffffffffffffffffffffffffffff16145b6115fa576040517f08c379a00000000000000000000000000000000000000000000000000000000081526004016115f190612967565b60405180910390fd5b6000600460009054906101000a900473ffffffffffffffffffffffffffffffffffffffff1673ffffffffffffffffffffffffffffffffffffffff168573ffffffffffffffffffffffffffffffffffffffff16149050600080600080846116ab57600560009054906101000a900473ffffffffffffffffffffffffffffffffffffffff16600460009054906101000a900473ffffffffffffffffffffffffffffffffffffffff166007546006546116f8565b600460009054906101000a900473ffffffffffffffffffffffffffffffffffffffff16600560009054906101000a900473ffffffffffffffffffffffffffffffffffffffff166006546007545b935093509350935061170b888383611a22565b96508373ffffffffffffffffffffffffffffffffffffffff166323b872dd33308b6040518463ffffffff1660e01b815260040161174a93929190612675565b6020604051808303816000875af1158015611769573d6000803e3d6000fd5b505050506040513d601f19601f8201168201806040525081019061178d91906126d8565b508273ffffffffffffffffffffffffffffffffffffffff1663a9059cbb33896040518363ffffffff1660e01b81526004016117c99291906128f2565b6020604051808303816000875af11580156117e8573d6000803e3d6000fd5b505050506040513d601f19601f8201168201806040525081019061180c91906126d8565b5061194d600460009054906101000a900473ffffffffffffffffffffffffffffffffffffffff1673ffffffffffffffffffffffffffffffffffffffff166370a08231306040518263ffffffff1660e01b815260040161186b91906127d9565b602060405180830381865afa158015611888573d6000803e3d6000fd5b505050506040513d601f19601f820116820180604052508101906118ac919061271a565b600560009054906101000a900473ffffffffffffffffffffffffffffffffffffffff1673ffffffffffffffffffffffffffffffffffffffff166370a08231306040518263ffffffff1660e01b815260040161190791906127d9565b602060405180830381865afa158015611924573d6000803e3d6000fd5b505050506040513d601f19601f82011682018060405250810190611948919061271a565b611d95565b50505050505092915050565b600460009054906101000a900473ffffffffffffffffffffffffffffffffffffffff1681565b60085481565b600080600260009054906101000a900473ffffffffffffffffffffffffffffffffffffffff1690508073ffffffffffffffffffffffffffffffffffffffff166318160ddd6040518163ffffffff1660e01b8152600401602060405180830381865afa1580156119f8573d6000803e3d6000fd5b505050506040513d601f19601f82011682018060405250810190611a1c919061271a565b91505090565b6000806103e86103e586611a3691906125c4565b611a409190612635565b90508084611a4e9190612a19565b8184611a5a91906125c4565b611a649190612635565b9150509392505050565b600360009054906101000a900473ffffffffffffffffffffffffffffffffffffffff1681565b80600260006101000a81548173ffffffffffffffffffffffffffffffffffffffff021916908373ffffffffffffffffffffffffffffffffffffffff16021790555050565b60606000600654118015611aee57506000600754115b611af757600080fd5b6000611b0161106a565b90506000611b0d6109bd565b905060006103e86103ed83611b2291906125c4565b611b2c9190612635565b905060006103e86103e384611b4191906125c4565b611b4b9190612635565b9050808410158015611b5d5750818411155b15611ba3576040518060400160405280600c81526020017f57697468696e20726174696f0000000000000000000000000000000000000000815250945050505050611be0565b6040518060400160405280601081526020017f4e6f742077697468696e20726174696f000000000000000000000000000000008152509450505050505b90565b600080600060065460075487611bf991906125c4565b611c039190612635565b9050600061271085612710611c189190612590565b87611c2391906125c4565b611c2d9190612635565b9050808210158015611c3f5750858211155b15611c51578682935093505050611cf9565b600060075460065488611c6491906125c4565b611c6e9190612635565b9050600061271087612710611c839190612590565b8a611c8e91906125c4565b611c989190612635565b9050808210158015611caa5750888211155b15611cbe5781889550955050505050611cf9565b6040517f08c379a0000000000000000000000000000000000000000000000000000000008152600401611cf090612abf565b60405180910390fd5b935093915050565b60006003821115611d685781905060006001600284611d209190612635565b611d2a9190612a19565b90505b81811015611d62578091506002818285611d479190612635565b611d519190612a19565b611d5b9190612635565b9050611d2d565b50611d76565b60008214611d7557600190505b5b919050565b600081831115611d8b5781611d8d565b825b905092915050565b81600681905550806007819055505050565b6000805442611db69190612a19565b90506000600160003373ffffffffffffffffffffffffffffffffffffffff1673ffffffffffffffffffffffffffffffffffffffff168152602001908152602001600020600001541115611ec6576000600160003373ffffffffffffffffffffffffffffffffffffffff1673ffffffffffffffffffffffffffffffffffffffff1681526020019081526020016000206000015483611e539190612a19565b9050604051806040016040528082815260200183815250600160003373ffffffffffffffffffffffffffffffffffffffff1673ffffffffffffffffffffffffffffffffffffffff168152602001908152602001600020600082015181600001556020820151816001015590505050611f32565b604051806040016040528083815260200182815250600160003373ffffffffffffffffffffffffffffffffffffffff1673ffffffffffffffffffffffffffffffffffffffff16815260200190815260200160002060008201518160000155602082015181600101559050505b600360009054906101000a900473ffffffffffffffffffffffffffffffffffffffff1673ffffffffffffffffffffffffffffffffffffffff166340c10f1933846040518363ffffffff1660e01b8152600401611f8f9291906128f2565b600060405180830381600087803b158015611fa957600080fd5b505af1158015611fbd573d6000803e3d6000fd5b505050505050565b80600160003373ffffffffffffffffffffffffffffffffffffffff1673ffffffffffffffffffffffffffffffffffffffff168152602001908152602001600020600001546120139190612590565b600160003373ffffffffffffffffffffffffffffffffffffffff1673ffffffffffffffffffffffffffffffffffffffff16815260200190815260200160002060000181905550600360009054906101000a900473ffffffffffffffffffffffffffffffffffffffff1673ffffffffffffffffffffffffffffffffffffffff16639dc29fac33836040518363ffffffff1660e01b81526004016120b69291906128f2565b600060405180830381600087803b1580156120d057600080fd5b505af11580156120e4573d6000803e3d6000fd5b5050505050565b600080fd5b6000819050919050565b612103816120f0565b811461210e57600080fd5b50565b600081359050612120816120fa565b92915050565b6000806040838503121561213d5761213c6120eb565b5b600061214b85828601612111565b925050602061215c85828601612111565b9150509250929050565b61216f816120f0565b82525050565b600060208201905061218a6000830184612166565b92915050565b6000602082840312156121a6576121a56120eb565b5b60006121b484828501612111565b91505092915050565b600073ffffffffffffffffffffffffffffffffffffffff82169050919050565b6000819050919050565b60006122026121fd6121f8846121bd565b6121dd565b6121bd565b9050919050565b6000612214826121e7565b9050919050565b600061222682612209565b9050919050565b6122368161221b565b82525050565b6000602082019050612251600083018461222d565b92915050565b6000806000606084860312156122705761226f6120eb565b5b600061227e86828701612111565b935050602061228f86828701612111565b92505060406122a086828701612111565b9150509250925092565b60006040820190506122bf6000830185612166565b6122cc6020830184612166565b9392505050565b60006122de826121bd565b9050919050565b6122ee816122d3565b81146122f957600080fd5b50565b60008135905061230b816122e5565b92915050565b60008060006060848603121561232a576123296120eb565b5b6000612338868287016122fc565b935050602061234986828701612111565b925050604061235a86828701612111565b9150509250925092565b60008115159050919050565b61237981612364565b82525050565b60006020820190506123946000830184612370565b92915050565b600080604083850312156123b1576123b06120eb565b5b60006123bf858286016122fc565b92505060206123d085828601612111565b9150509250929050565b60006123e582612209565b9050919050565b6123f5816123da565b82525050565b600060208201905061241060008301846123ec565b92915050565b60006020828403121561242c5761242b6120eb565b5b600061243a848285016122fc565b91505092915050565b600081519050919050565b600082825260208201905092915050565b60005b8381101561247d578082015181840152602081019050612462565b60008484015250505050565b6000601f19601f8301169050919050565b60006124a582612443565b6124af818561244e565b93506124bf81856020860161245f565b6124c881612489565b840191505092915050565b600060208201905081810360008301526124ed818461249a565b905092915050565b7f43616e6e6f7420646976696465206279207a65726f0000000000000000000000600082015250565b600061252b60158361244e565b9150612536826124f5565b602082019050919050565b6000602082019050818103600083015261255a8161251e565b9050919050565b7f4e487b7100000000000000000000000000000000000000000000000000000000600052601160045260246000fd5b600061259b826120f0565b91506125a6836120f0565b92508282039050818111156125be576125bd612561565b5b92915050565b60006125cf826120f0565b91506125da836120f0565b92508282026125e8816120f0565b915082820484148315176125ff576125fe612561565b5b5092915050565b7f4e487b7100000000000000000000000000000000000000000000000000000000600052601260045260246000fd5b6000612640826120f0565b915061264b836120f0565b92508261265b5761265a612606565b5b828204905092915050565b61266f816122d3565b82525050565b600060608201905061268a6000830186612666565b6126976020830185612666565b6126a46040830184612166565b949350505050565b6126b581612364565b81146126c057600080fd5b50565b6000815190506126d2816126ac565b92915050565b6000602082840312156126ee576126ed6120eb565b5b60006126fc848285016126c3565b91505092915050565b600081519050612714816120fa565b92915050565b6000602082840312156127305761272f6120eb565b5b600061273e84828501612705565b91505092915050565b7f4d696e74656420736861726573206d757374206265206772656174657220746860008201527f616e207a65726f00000000000000000000000000000000000000000000000000602082015250565b60006127a360278361244e565b91506127ae82612747565b604082019050919050565b600060208201905081810360008301526127d281612796565b9050919050565b60006020820190506127ee6000830184612666565b92915050565b7f417474656d7074696e6720746f206275726e20746f6f206d616e79204c50205460008201527f6f6b656e73000000000000000000000000000000000000000000000000000000602082015250565b600061285060258361244e565b915061285b826127f4565b604082019050919050565b6000602082019050818103600083015261287f81612843565b9050919050565b7f546f6f206561726c7920746f207769746864726177206c697175696469747900600082015250565b60006128bc601f8361244e565b91506128c782612886565b602082019050919050565b600060208201905081810360008301526128eb816128af565b9050919050565b60006040820190506129076000830185612666565b6129146020830184612166565b9392505050565b7f496e76616c696420746f6b656e207479706520666f7220746869732073776170600082015250565b600061295160208361244e565b915061295c8261291b565b602082019050919050565b6000602082019050818103600083015261298081612944565b9050919050565b7f4f6e2d436861696e2065786368616e67652072617465206973206e6f7420776960008201527f7468696e20736c69707061676520626f756e6473207365742062792075736572602082015250565b60006129e360408361244e565b91506129ee82612987565b604082019050919050565b60006020820190508181036000830152612a12816129d6565b9050919050565b6000612a24826120f0565b9150612a2f836120f0565b9250828201905080821115612a4757612a46612561565b5b92915050565b7f536c69707061676520746f6c6572616e63652065786365656465642c2061646a60008201527f757374206c697175696469747920616d6f756e74730000000000000000000000602082015250565b6000612aa960358361244e565b9150612ab482612a4d565b604082019050919050565b60006020820190508181036000830152612ad881612a9c565b905091905056fea264697066735822122071005687426cab78fd0bf81318ddf024cd3d6932665c94324fa4cfc725e9b6cd64736f6c63430008140033",
  "linkReferences": {},
  "deployedLinkReferences": {}
}