{
  "_format": "hh-sol-artifact-1",
  "contractName": "PriceConsumer",
  "sourceName": "contracts/test.sol",
  "abi": [
    {
      "inputs": [],
      "stateMutability": "nonpayable",
      "type": "constructor"
    },
    {
      "inputs": [],
      "name": "calculateNewSwapFee",
      "outputs": [
        {
          "internalType": "string",
          "name": "",
          "type": "string"
        }
      ],
      "stateMutability": "view",
      "type": "function"
    },
    {
      "inputs": [
        {
          "internalType": "uint256",
          "name": "num1",
          "type": "uint256"
        },
        {
          "internalType": "uint256",
          "name": "num2",
          "type": "uint256"
        }
      ],
      "name": "calculatePercentageDifference",
      "outputs": [
        {
          "internalType": "uint256",
          "name": "",
          "type": "uint256"
        }
      ],
      "stateMutability": "pure",
      "type": "function"
    },
    {
      "inputs": [],
      "name": "getChainlinkDataFeedLatestAnswer",
      "outputs": [
        {
          "internalType": "uint256",
          "name": "",
          "type": "uint256"
        }
      ],
      "stateMutability": "pure",
      "type": "function"
    },
    {
      "inputs": [],
      "name": "getReserveRatio",
      "outputs": [
        {
          "internalType": "uint256",
          "name": "",
          "type": "uint256"
        }
      ],
      "stateMutability": "view",
      "type": "function"
    },
    {
      "inputs": [],
      "name": "reserve1",
      "outputs": [
        {
          "internalType": "uint256",
          "name": "",
          "type": "uint256"
        }
      ],
      "stateMutability": "view",
      "type": "function"
    },
    {
      "inputs": [],
      "name": "reserve2",
      "outputs": [
        {
          "internalType": "uint256",
          "name": "",
          "type": "uint256"
        }
      ],
      "stateMutability": "view",
      "type": "function"
    },
    {
      "inputs": [
        {
          "internalType": "uint256",
          "name": "_reserve1",
          "type": "uint256"
        }
      ],
      "name": "setReserve1",
      "outputs": [
        {
          "internalType": "uint256",
          "name": "",
          "type": "uint256"
        }
      ],
      "stateMutability": "nonpayable",
      "type": "function"
    },
    {
      "inputs": [
        {
          "internalType": "uint256",
          "name": "_reserve2",
          "type": "uint256"
        }
      ],
      "name": "setReserve2",
      "outputs": [
        {
          "internalType": "uint256",
          "name": "",
          "type": "uint256"
        }
      ],
      "stateMutability": "nonpayable",
      "type": "function"
    },
    {
      "inputs": [
        {
          "internalType": "uint256",
          "name": "amount",
          "type": "uint256"
        }
      ],
      "name": "withFee",
      "outputs": [
        {
          "internalType": "uint256",
          "name": "",
          "type": "uint256"
        }
      ],
      "stateMutability": "pure",
      "type": "function"
    }
  ],
  "bytecode": "0x60c06040526000805560006001556012608090815250660aa87bee53800060a0908152504260035534801561003357600080fd5b5060805160a05161094761005960003960006102900152600061031a01526109476000f3fe608060405234801561001057600080fd5b50600436106100935760003560e01c80635a76f25e116100665780635a76f25e146101465780635c0b9a2b146101645780639b67684f14610182578063bea4dfb5146101b2578063ff7fd410146101d057610093565b806310e3b14914610098578063255021a2146100c85780633d65ce58146100f857806356b6d0d514610128575b600080fd5b6100b260048036038101906100ad91906104d9565b6101ee565b6040516100bf9190610528565b60405180910390f35b6100e260048036038101906100dd9190610543565b610282565b6040516100ef9190610528565b60405180910390f35b610112600480360381019061010d9190610543565b6102e2565b60405161011f9190610528565b60405180910390f35b6101306102f5565b60405161013d9190610528565b60405180910390f35b61014e610365565b60405161015b9190610528565b60405180910390f35b61016c61036b565b6040516101799190610528565b60405180910390f35b61019c60048036038101906101979190610543565b610371565b6040516101a99190610528565b60405180910390f35b6101ba610384565b6040516101c79190610528565b60405180910390f35b6101d8610394565b6040516101e59190610600565b60405180910390f35b6000808203610232576040517f08c379a00000000000000000000000000000000000000000000000000000000081526004016102299061066e565b60405180910390fd5b600082841161024c57838361024791906106bd565b610259565b828461025891906106bd565b5b905060008360648361026b91906106f1565b6102759190610762565b9050809250505092915050565b600080670de0b6b3a76400007f0000000000000000000000000000000000000000000000000000000000000000670de0b6b3a76400006102c291906106bd565b846102cd91906106f1565b6102d79190610762565b905080915050919050565b6000816001819055506001549050919050565b60008060005411801561030a57506000600154115b61031357600080fd5b60006001547f0000000000000000000000000000000000000000000000000000000000000000600a61034591906108c6565b60005461035291906106f1565b61035c9190610762565b90508091505090565b60005481565b60015481565b6000816000819055506000549050919050565b6000671bc16d674ec80000905090565b6060600080541180156103a957506000600154115b6103b257600080fd5b60006103bc610384565b905060006103c86102f5565b905060006103e86103ed836103dd91906106f1565b6103e79190610762565b905060006103e86103e3846103fc91906106f1565b6104069190610762565b90508084101580156104185750818411155b1561045e576040518060400160405280600c81526020017f57697468696e20726174696f000000000000000000000000000000000000000081525094505050505061049b565b6040518060400160405280601081526020017f4e6f742077697468696e20726174696f000000000000000000000000000000008152509450505050505b90565b600080fd5b6000819050919050565b6104b6816104a3565b81146104c157600080fd5b50565b6000813590506104d3816104ad565b92915050565b600080604083850312156104f0576104ef61049e565b5b60006104fe858286016104c4565b925050602061050f858286016104c4565b9150509250929050565b610522816104a3565b82525050565b600060208201905061053d6000830184610519565b92915050565b6000602082840312156105595761055861049e565b5b6000610567848285016104c4565b91505092915050565b600081519050919050565b600082825260208201905092915050565b60005b838110156105aa57808201518184015260208101905061058f565b60008484015250505050565b6000601f19601f8301169050919050565b60006105d282610570565b6105dc818561057b565b93506105ec81856020860161058c565b6105f5816105b6565b840191505092915050565b6000602082019050818103600083015261061a81846105c7565b905092915050565b7f43616e6e6f7420646976696465206279207a65726f0000000000000000000000600082015250565b600061065860158361057b565b915061066382610622565b602082019050919050565b600060208201905081810360008301526106878161064b565b9050919050565b7f4e487b7100000000000000000000000000000000000000000000000000000000600052601160045260246000fd5b60006106c8826104a3565b91506106d3836104a3565b92508282039050818111156106eb576106ea61068e565b5b92915050565b60006106fc826104a3565b9150610707836104a3565b9250828202610715816104a3565b9150828204841483151761072c5761072b61068e565b5b5092915050565b7f4e487b7100000000000000000000000000000000000000000000000000000000600052601260045260246000fd5b600061076d826104a3565b9150610778836104a3565b92508261078857610787610733565b5b828204905092915050565b60008160011c9050919050565b6000808291508390505b60018511156107ea578086048111156107c6576107c561068e565b5b60018516156107d55780820291505b80810290506107e385610793565b94506107aa565b94509492505050565b60008261080357600190506108bf565b8161081157600090506108bf565b8160018114610827576002811461083157610860565b60019150506108bf565b60ff8411156108435761084261068e565b5b8360020a91508482111561085a5761085961068e565b5b506108bf565b5060208310610133831016604e8410600b84101617156108955782820a9050838111156108905761088f61068e565b5b6108bf565b6108a284848460016107a0565b925090508184048111156108b9576108b861068e565b5b81810290505b9392505050565b60006108d1826104a3565b91506108dc836104a3565b92506109097fffffffffffffffffffffffffffffffffffffffffffffffffffffffffffffffff84846107f3565b90509291505056fea264697066735822122057a31b7d81bd927355cb891f261359ceb6a4d2e2f66ef1464dd2fcb7d193d01a64736f6c63430008140033",
  "linkReferences": {},
  "deployedLinkReferences": {}
}