{
  "_format": "hh-sol-artifact-1",
  "contractName": "PriceConsumer",
  "sourceName": "contracts/test.sol",
  "abi": [
    {
      "inputs": [],
      "stateMutability": "nonpayable",
      "type": "constructor"
    },
    {
      "inputs": [],
      "name": "calculateNewSwapFee",
      "outputs": [
        {
          "internalType": "string",
          "name": "",
          "type": "string"
        }
      ],
      "stateMutability": "view",
      "type": "function"
    },
    {
      "inputs": [
        {
          "internalType": "uint256",
          "name": "num1",
          "type": "uint256"
        },
        {
          "internalType": "uint256",
          "name": "num2",
          "type": "uint256"
        }
      ],
      "name": "calculatePercentageDifference",
      "outputs": [
        {
          "internalType": "uint256",
          "name": "",
          "type": "uint256"
        }
      ],
      "stateMutability": "pure",
      "type": "function"
    },
    {
      "inputs": [],
      "name": "getChainlinkDataFeedLatestAnswer",
      "outputs": [
        {
          "internalType": "uint256",
          "name": "",
          "type": "uint256"
        }
      ],
      "stateMutability": "pure",
      "type": "function"
    },
    {
      "inputs": [],
      "name": "getReserveRatio",
      "outputs": [
        {
          "internalType": "uint256",
          "name": "",
          "type": "uint256"
        }
      ],
      "stateMutability": "view",
      "type": "function"
    },
    {
      "inputs": [],
      "name": "reserve1",
      "outputs": [
        {
          "internalType": "uint256",
          "name": "",
          "type": "uint256"
        }
      ],
      "stateMutability": "view",
      "type": "function"
    },
    {
      "inputs": [],
      "name": "reserve2",
      "outputs": [
        {
          "internalType": "uint256",
          "name": "",
          "type": "uint256"
        }
      ],
      "stateMutability": "view",
      "type": "function"
    },
    {
      "inputs": [
        {
          "internalType": "uint256",
          "name": "_reserve1",
          "type": "uint256"
        }
      ],
      "name": "setReserve1",
      "outputs": [
        {
          "internalType": "uint256",
          "name": "",
          "type": "uint256"
        }
      ],
      "stateMutability": "nonpayable",
      "type": "function"
    },
    {
      "inputs": [
        {
          "internalType": "uint256",
          "name": "_reserve2",
          "type": "uint256"
        }
      ],
      "name": "setReserve2",
      "outputs": [
        {
          "internalType": "uint256",
          "name": "",
          "type": "uint256"
        }
      ],
      "stateMutability": "nonpayable",
      "type": "function"
    },
    {
      "inputs": [
        {
          "internalType": "uint256",
          "name": "amount",
          "type": "uint256"
        }
      ],
      "name": "withFee",
      "outputs": [
        {
          "internalType": "uint256",
          "name": "",
          "type": "uint256"
        }
      ],
      "stateMutability": "pure",
      "type": "function"
    }
  ],
  "bytecode": "0x60c0604052600080556000600155670de0b6b3a7640000608090815250660aa87bee53800060a0908152504260035534801561003a57600080fd5b5060805160a0516107cf61006060003960006102980152600061032c01526107cf6000f3fe608060405234801561001057600080fd5b50600436106100935760003560e01c80635a76f25e116100665780635a76f25e146101465780635c0b9a2b146101645780639b67684f14610182578063bea4dfb5146101b2578063ff7fd410146101d057610093565b806310e3b14914610098578063255021a2146100c85780633d65ce58146100f857806356b6d0d514610128575b600080fd5b6100b260048036038101906100ad91906104df565b6101ee565b6040516100bf919061052e565b60405180910390f35b6100e260048036038101906100dd9190610549565b610282565b6040516100ef919061052e565b60405180910390f35b610112600480360381019061010d9190610549565b6102f4565b60405161011f919061052e565b60405180910390f35b610130610307565b60405161013d919061052e565b60405180910390f35b61014e61036b565b60405161015b919061052e565b60405180910390f35b61016c610371565b604051610179919061052e565b60405180910390f35b61019c60048036038101906101979190610549565b610377565b6040516101a9919061052e565b60405180910390f35b6101ba61038a565b6040516101c7919061052e565b60405180910390f35b6101d861039a565b6040516101e59190610606565b60405180910390f35b6000808203610232576040517f08c379a000000000000000000000000000000000000000000000000000000000815260040161022990610674565b60405180910390fd5b600082841161024c57838361024791906106c3565b610259565b828461025891906106c3565b5b905060008360648361026b91906106f7565b6102759190610768565b9050809250505092915050565b600080670de0b6b3a764000066038d7ea4c680007f00000000000000000000000000000000000000000000000000000000000000006102c191906106f7565b6102cb9190610768565b670de0b6b3a76400006102de91906106c3565b836102e991906106f7565b905080915050919050565b6000816001819055506001549050919050565b60008060005411801561031c57506000600154115b61032557600080fd5b60006001547f000000000000000000000000000000000000000000000000000000000000000060005461035891906106f7565b6103629190610768565b90508091505090565b60005481565b60015481565b6000816000819055506000549050919050565b6000671bc16d674ec80000905090565b6060600080541180156103af57506000600154115b6103b857600080fd5b60006103c261038a565b905060006103ce610307565b905060006103e86103ed836103e391906106f7565b6103ed9190610768565b905060006103e86103e38461040291906106f7565b61040c9190610768565b905080841015801561041e5750818411155b15610464576040518060400160405280600c81526020017f57697468696e20726174696f00000000000000000000000000000000000000008152509450505050506104a1565b6040518060400160405280601081526020017f4e6f742077697468696e20726174696f000000000000000000000000000000008152509450505050505b90565b600080fd5b6000819050919050565b6104bc816104a9565b81146104c757600080fd5b50565b6000813590506104d9816104b3565b92915050565b600080604083850312156104f6576104f56104a4565b5b6000610504858286016104ca565b9250506020610515858286016104ca565b9150509250929050565b610528816104a9565b82525050565b6000602082019050610543600083018461051f565b92915050565b60006020828403121561055f5761055e6104a4565b5b600061056d848285016104ca565b91505092915050565b600081519050919050565b600082825260208201905092915050565b60005b838110156105b0578082015181840152602081019050610595565b60008484015250505050565b6000601f19601f8301169050919050565b60006105d882610576565b6105e28185610581565b93506105f2818560208601610592565b6105fb816105bc565b840191505092915050565b6000602082019050818103600083015261062081846105cd565b905092915050565b7f43616e6e6f7420646976696465206279207a65726f0000000000000000000000600082015250565b600061065e601583610581565b915061066982610628565b602082019050919050565b6000602082019050818103600083015261068d81610651565b9050919050565b7f4e487b7100000000000000000000000000000000000000000000000000000000600052601160045260246000fd5b60006106ce826104a9565b91506106d9836104a9565b92508282039050818111156106f1576106f0610694565b5b92915050565b6000610702826104a9565b915061070d836104a9565b925082820261071b816104a9565b9150828204841483151761073257610731610694565b5b5092915050565b7f4e487b7100000000000000000000000000000000000000000000000000000000600052601260045260246000fd5b6000610773826104a9565b915061077e836104a9565b92508261078e5761078d610739565b5b82820490509291505056fea2646970667358221220b5846006550cd272c55d789a188908e55d288a3b71538959cafbe6586844872a64736f6c63430008140033",
  "linkReferences": {},
  "deployedLinkReferences": {}
}