{
  "contractName": "LiquidityPool",
  "abi": [
    {
      "inputs": [
        {
          "internalType": "address",
          "name": "_t1",
          "type": "address"
        },
        {
          "internalType": "address",
          "name": "_t2",
          "type": "address"
        },
        {
          "internalType": "address",
          "name": "_lptoken",
          "type": "address"
        }
      ],
      "stateMutability": "nonpayable",
      "type": "constructor"
    },
    {
      "inputs": [],
      "name": "lockPeriod",
      "outputs": [
        {
          "internalType": "uint256",
          "name": "",
          "type": "uint256"
        }
      ],
      "stateMutability": "view",
      "type": "function"
    },
    {
      "inputs": [],
      "name": "lptoken",
      "outputs": [
        {
          "internalType": "contract LpToken",
          "name": "",
          "type": "address"
        }
      ],
      "stateMutability": "view",
      "type": "function"
    },
    {
      "inputs": [],
      "name": "token1",
      "outputs": [
        {
          "internalType": "contract ERC20",
          "name": "",
          "type": "address"
        }
      ],
      "stateMutability": "view",
      "type": "function"
    },
    {
      "inputs": [],
      "name": "token1_reserve",
      "outputs": [
        {
          "internalType": "uint256",
          "name": "",
          "type": "uint256"
        }
      ],
      "stateMutability": "view",
      "type": "function"
    },
    {
      "inputs": [],
      "name": "token2",
      "outputs": [
        {
          "internalType": "contract ERC20",
          "name": "",
          "type": "address"
        }
      ],
      "stateMutability": "view",
      "type": "function"
    },
    {
      "inputs": [],
      "name": "token2_reserve",
      "outputs": [
        {
          "internalType": "uint256",
          "name": "",
          "type": "uint256"
        }
      ],
      "stateMutability": "view",
      "type": "function"
    },
    {
      "inputs": [
        {
          "internalType": "address",
          "name": "_LPToken",
          "type": "address"
        }
      ],
      "name": "setLPTokenAddress",
      "outputs": [],
      "stateMutability": "nonpayable",
      "type": "function"
    },
    {
      "inputs": [],
      "name": "callToken",
      "outputs": [
        {
          "internalType": "uint256",
          "name": "",
          "type": "uint256"
        }
      ],
      "stateMutability": "view",
      "type": "function"
    },
    {
      "inputs": [
        {
          "internalType": "uint256",
          "name": "_amount1",
          "type": "uint256"
        },
        {
          "internalType": "uint256",
          "name": "_amount2",
          "type": "uint256"
        },
        {
          "internalType": "uint256",
          "name": "slippage",
          "type": "uint256"
        }
      ],
      "name": "addLiquidity",
      "outputs": [
        {
          "internalType": "uint256",
          "name": "shares",
          "type": "uint256"
        }
      ],
      "stateMutability": "nonpayable",
      "type": "function"
    },
    {
      "inputs": [
        {
          "internalType": "uint256",
          "name": "_shareCount",
          "type": "uint256"
        }
      ],
      "name": "removeLiquidity",
      "outputs": [
        {
          "internalType": "uint256",
          "name": "token1Amount",
          "type": "uint256"
        },
        {
          "internalType": "uint256",
          "name": "token2Amount",
          "type": "uint256"
        }
      ],
      "stateMutability": "nonpayable",
      "type": "function"
    },
    {
      "inputs": [
        {
          "internalType": "address",
          "name": "_token",
          "type": "address"
        },
        {
          "internalType": "uint256",
          "name": "countIn",
          "type": "uint256"
        },
        {
          "internalType": "uint256",
          "name": "slippage_minimum",
          "type": "uint256"
        }
      ],
      "name": "slippage_swap",
      "outputs": [
        {
          "internalType": "bool",
          "name": "success",
          "type": "bool"
        }
      ],
      "stateMutability": "nonpayable",
      "type": "function"
    },
    {
      "inputs": [
        {
          "internalType": "address",
          "name": "_token",
          "type": "address"
        },
        {
          "internalType": "uint256",
          "name": "countIn",
          "type": "uint256"
        }
      ],
      "name": "swap",
      "outputs": [
        {
          "internalType": "uint256",
          "name": "amountOut",
          "type": "uint256"
        }
      ],
      "stateMutability": "nonpayable",
      "type": "function"
    }
  ],
  "bytecode": "0x6080604052601e600055600060065560006007553480156200002057600080fd5b506040516200279e3803806200279e83398181016040528101906200004691906200017c565b82600460006101000a81548173ffffffffffffffffffffffffffffffffffffffff021916908373ffffffffffffffffffffffffffffffffffffffff16021790555081600560006101000a81548173ffffffffffffffffffffffffffffffffffffffff021916908373ffffffffffffffffffffffffffffffffffffffff16021790555080600360006101000a81548173ffffffffffffffffffffffffffffffffffffffff021916908373ffffffffffffffffffffffffffffffffffffffff160217905550505050620001d8565b600080fd5b600073ffffffffffffffffffffffffffffffffffffffff82169050919050565b6000620001448262000117565b9050919050565b620001568162000137565b81146200016257600080fd5b50565b60008151905062000176816200014b565b92915050565b60008060006060848603121562000198576200019762000112565b5b6000620001a88682870162000165565b9350506020620001bb8682870162000165565b9250506040620001ce8682870162000165565b9150509250925092565b6125b680620001e86000396000f3fe608060405234801561001057600080fd5b50600436106100b45760003560e01c8063c773aab411610071578063c773aab414610192578063d004f0f7146101c2578063d21220a7146101f2578063de93166214610210578063f363393b1461022e578063f42ebbe01461024c576100b4565b806325be124e146100b95780633fd8b02f146100d7578063422f1043146100f55780634be6ab341461012557806355424308146101435780639c8f9f2314610161575b600080fd5b6100c1610268565b6040516100ce9190611d58565b60405180910390f35b6100df61028e565b6040516100ec9190611d8c565b60405180910390f35b61010f600480360381019061010a9190611dd8565b610294565b60405161011c9190611d8c565b60405180910390f35b61012d6106cb565b60405161013a9190611d8c565b60405180910390f35b61014b6106d1565b6040516101589190611d8c565b60405180910390f35b61017b60048036038101906101769190611e2b565b6106d7565b604051610189929190611e58565b60405180910390f35b6101ac60048036038101906101a79190611ebf565b610d79565b6040516101b99190611f2d565b60405180910390f35b6101dc60048036038101906101d79190611f48565b61120e565b6040516101e99190611d8c565b60405180910390f35b6101fa611658565b6040516102079190611d58565b60405180910390f35b61021861167e565b6040516102259190611d8c565b60405180910390f35b61023661171b565b6040516102439190611fa9565b60405180910390f35b61026660048036038101906102619190611fc4565b611741565b005b600560009054906101000a900473ffffffffffffffffffffffffffffffffffffffff1681565b60005481565b600080841180156102a55750600083115b6102ae57600080fd5b600060065411806102c157506000600754115b156102fc57600654836102d49190612020565b600754856102e29190612020565b146102fb576102f2848484611785565b80945081955050505b5b600460009054906101000a900473ffffffffffffffffffffffffffffffffffffffff1673ffffffffffffffffffffffffffffffffffffffff166323b872dd3330876040518463ffffffff1660e01b815260040161035b93929190612071565b6020604051808303816000875af115801561037a573d6000803e3d6000fd5b505050506040513d601f19601f8201168201806040525081019061039e91906120d4565b50600560009054906101000a900473ffffffffffffffffffffffffffffffffffffffff1673ffffffffffffffffffffffffffffffffffffffff166323b872dd3330866040518463ffffffff1660e01b81526004016103fe93929190612071565b6020604051808303816000875af115801561041d573d6000803e3d6000fd5b505050506040513d601f19601f8201168201806040525081019061044191906120d4565b506000600360009054906101000a900473ffffffffffffffffffffffffffffffffffffffff1673ffffffffffffffffffffffffffffffffffffffff166318160ddd6040518163ffffffff1660e01b8152600401602060405180830381865afa1580156104b1573d6000803e3d6000fd5b505050506040513d601f19601f820116820180604052508101906104d59190612116565b9050600081036104fa576104f384866104ee9190612020565b6118a3565b9150610537565b610534600654828761050c9190612020565b6105169190612172565b60075483876105259190612020565b61052f9190612172565b61191d565b91505b6000821161057a576040517f08c379a000000000000000000000000000000000000000000000000000000000815260040161057190612226565b60405180910390fd5b6106ba600460009054906101000a900473ffffffffffffffffffffffffffffffffffffffff1673ffffffffffffffffffffffffffffffffffffffff166370a08231306040518263ffffffff1660e01b81526004016105d89190612246565b602060405180830381865afa1580156105f5573d6000803e3d6000fd5b505050506040513d601f19601f820116820180604052508101906106199190612116565b600560009054906101000a900473ffffffffffffffffffffffffffffffffffffffff1673ffffffffffffffffffffffffffffffffffffffff166370a08231306040518263ffffffff1660e01b81526004016106749190612246565b602060405180830381865afa158015610691573d6000803e3d6000fd5b505050506040513d601f19601f820116820180604052508101906106b59190612116565b611937565b6106c382611949565b509392505050565b60065481565b60075481565b6000806000600360009054906101000a900473ffffffffffffffffffffffffffffffffffffffff1673ffffffffffffffffffffffffffffffffffffffff166370a08231336040518263ffffffff1660e01b81526004016107379190612246565b602060405180830381865afa158015610754573d6000803e3d6000fd5b505050506040513d601f19601f820116820180604052508101906107789190612116565b9050808411156107bd576040517f08c379a00000000000000000000000000000000000000000000000000000000081526004016107b4906122d3565b60405180910390fd5b6000600160003373ffffffffffffffffffffffffffffffffffffffff1673ffffffffffffffffffffffffffffffffffffffff168152602001908152602001600020600001541180156108515750600160003373ffffffffffffffffffffffffffffffffffffffff1673ffffffffffffffffffffffffffffffffffffffff168152602001908152602001600020600001548411155b801561089f575042600160003373ffffffffffffffffffffffffffffffffffffffff1673ffffffffffffffffffffffffffffffffffffffff1681526020019081526020016000206001015411155b6108de576040517f08c379a00000000000000000000000000000000000000000000000000000000081526004016108d59061233f565b60405180910390fd5b6000600360009054906101000a900473ffffffffffffffffffffffffffffffffffffffff1673ffffffffffffffffffffffffffffffffffffffff166318160ddd6040518163ffffffff1660e01b8152600401602060405180830381865afa15801561094d573d6000803e3d6000fd5b505050506040513d601f19601f820116820180604052508101906109719190612116565b90506000600460009054906101000a900473ffffffffffffffffffffffffffffffffffffffff1673ffffffffffffffffffffffffffffffffffffffff166370a08231306040518263ffffffff1660e01b81526004016109d09190612246565b602060405180830381865afa1580156109ed573d6000803e3d6000fd5b505050506040513d601f19601f82011682018060405250810190610a119190612116565b90506000600560009054906101000a900473ffffffffffffffffffffffffffffffffffffffff1673ffffffffffffffffffffffffffffffffffffffff166370a08231306040518263ffffffff1660e01b8152600401610a709190612246565b602060405180830381865afa158015610a8d573d6000803e3d6000fd5b505050506040513d601f19601f82011682018060405250810190610ab19190612116565b9050828783610ac09190612020565b610aca9190612172565b9550828782610ad99190612020565b610ae39190612172565b9450600460009054906101000a900473ffffffffffffffffffffffffffffffffffffffff1673ffffffffffffffffffffffffffffffffffffffff1663a9059cbb33886040518363ffffffff1660e01b8152600401610b4292919061235f565b6020604051808303816000875af1158015610b61573d6000803e3d6000fd5b505050506040513d601f19601f82011682018060405250810190610b8591906120d4565b50600560009054906101000a900473ffffffffffffffffffffffffffffffffffffffff1673ffffffffffffffffffffffffffffffffffffffff1663a9059cbb33876040518363ffffffff1660e01b8152600401610be392919061235f565b6020604051808303816000875af1158015610c02573d6000803e3d6000fd5b505050506040513d601f19601f82011682018060405250810190610c2691906120d4565b50610d67600460009054906101000a900473ffffffffffffffffffffffffffffffffffffffff1673ffffffffffffffffffffffffffffffffffffffff166370a08231306040518263ffffffff1660e01b8152600401610c859190612246565b602060405180830381865afa158015610ca2573d6000803e3d6000fd5b505050506040513d601f19601f82011682018060405250810190610cc69190612116565b600560009054906101000a900473ffffffffffffffffffffffffffffffffffffffff1673ffffffffffffffffffffffffffffffffffffffff166370a08231306040518263ffffffff1660e01b8152600401610d219190612246565b602060405180830381865afa158015610d3e573d6000803e3d6000fd5b505050506040513d601f19601f82011682018060405250810190610d629190612116565b611937565b610d7087611b67565b50505050915091565b600083600460009054906101000a900473ffffffffffffffffffffffffffffffffffffffff1673ffffffffffffffffffffffffffffffffffffffff168173ffffffffffffffffffffffffffffffffffffffff161480610e255750600560009054906101000a900473ffffffffffffffffffffffffffffffffffffffff1673ffffffffffffffffffffffffffffffffffffffff168173ffffffffffffffffffffffffffffffffffffffff16145b610e64576040517f08c379a0000000000000000000000000000000000000000000000000000000008152600401610e5b906123d4565b60405180910390fd5b6000600460009054906101000a900473ffffffffffffffffffffffffffffffffffffffff1673ffffffffffffffffffffffffffffffffffffffff168673ffffffffffffffffffffffffffffffffffffffff1614905060008060008084610f1557600560009054906101000a900473ffffffffffffffffffffffffffffffffffffffff16600460009054906101000a900473ffffffffffffffffffffffffffffffffffffffff16600754600654610f62565b600460009054906101000a900473ffffffffffffffffffffffffffffffffffffffff16600560009054906101000a900473ffffffffffffffffffffffffffffffffffffffff166006546007545b93509350935093506000610f778a8484611c8d565b905088811015610fbc576040517f08c379a0000000000000000000000000000000000000000000000000000000008152600401610fb390612466565b60405180910390fd5b8473ffffffffffffffffffffffffffffffffffffffff166323b872dd33308d6040518463ffffffff1660e01b8152600401610ff993929190612071565b6020604051808303816000875af1158015611018573d6000803e3d6000fd5b505050506040513d601f19601f8201168201806040525081019061103c91906120d4565b508373ffffffffffffffffffffffffffffffffffffffff1663a9059cbb33836040518363ffffffff1660e01b815260040161107892919061235f565b6020604051808303816000875af1158015611097573d6000803e3d6000fd5b505050506040513d601f19601f820116820180604052508101906110bb91906120d4565b506111fc600460009054906101000a900473ffffffffffffffffffffffffffffffffffffffff1673ffffffffffffffffffffffffffffffffffffffff166370a08231306040518263ffffffff1660e01b815260040161111a9190612246565b602060405180830381865afa158015611137573d6000803e3d6000fd5b505050506040513d601f19601f8201168201806040525081019061115b9190612116565b600560009054906101000a900473ffffffffffffffffffffffffffffffffffffffff1673ffffffffffffffffffffffffffffffffffffffff166370a08231306040518263ffffffff1660e01b81526004016111b69190612246565b602060405180830381865afa1580156111d3573d6000803e3d6000fd5b505050506040513d601f19601f820116820180604052508101906111f79190612116565b611937565b60019750505050505050509392505050565b600082600460009054906101000a900473ffffffffffffffffffffffffffffffffffffffff1673ffffffffffffffffffffffffffffffffffffffff168173ffffffffffffffffffffffffffffffffffffffff1614806112ba5750600560009054906101000a900473ffffffffffffffffffffffffffffffffffffffff1673ffffffffffffffffffffffffffffffffffffffff168173ffffffffffffffffffffffffffffffffffffffff16145b6112f9576040517f08c379a00000000000000000000000000000000000000000000000000000000081526004016112f0906123d4565b60405180910390fd5b6000600460009054906101000a900473ffffffffffffffffffffffffffffffffffffffff1673ffffffffffffffffffffffffffffffffffffffff168573ffffffffffffffffffffffffffffffffffffffff16149050600080600080846113aa57600560009054906101000a900473ffffffffffffffffffffffffffffffffffffffff16600460009054906101000a900473ffffffffffffffffffffffffffffffffffffffff166007546006546113f7565b600460009054906101000a900473ffffffffffffffffffffffffffffffffffffffff16600560009054906101000a900473ffffffffffffffffffffffffffffffffffffffff166006546007545b935093509350935061140a888383611c8d565b96508373ffffffffffffffffffffffffffffffffffffffff166323b872dd33308b6040518463ffffffff1660e01b815260040161144993929190612071565b6020604051808303816000875af1158015611468573d6000803e3d6000fd5b505050506040513d601f19601f8201168201806040525081019061148c91906120d4565b508273ffffffffffffffffffffffffffffffffffffffff1663a9059cbb33896040518363ffffffff1660e01b81526004016114c892919061235f565b6020604051808303816000875af11580156114e7573d6000803e3d6000fd5b505050506040513d601f19601f8201168201806040525081019061150b91906120d4565b5061164c600460009054906101000a900473ffffffffffffffffffffffffffffffffffffffff1673ffffffffffffffffffffffffffffffffffffffff166370a08231306040518263ffffffff1660e01b815260040161156a9190612246565b602060405180830381865afa158015611587573d6000803e3d6000fd5b505050506040513d601f19601f820116820180604052508101906115ab9190612116565b600560009054906101000a900473ffffffffffffffffffffffffffffffffffffffff1673ffffffffffffffffffffffffffffffffffffffff166370a08231306040518263ffffffff1660e01b81526004016116069190612246565b602060405180830381865afa158015611623573d6000803e3d6000fd5b505050506040513d601f19601f820116820180604052508101906116479190612116565b611937565b50505050505092915050565b600460009054906101000a900473ffffffffffffffffffffffffffffffffffffffff1681565b600080600260009054906101000a900473ffffffffffffffffffffffffffffffffffffffff1690508073ffffffffffffffffffffffffffffffffffffffff166318160ddd6040518163ffffffff1660e01b8152600401602060405180830381865afa1580156116f1573d6000803e3d6000fd5b505050506040513d601f19601f820116820180604052508101906117159190612116565b91505090565b600360009054906101000a900473ffffffffffffffffffffffffffffffffffffffff1681565b80600260006101000a81548173ffffffffffffffffffffffffffffffffffffffff021916908373ffffffffffffffffffffffffffffffffffffffff16021790555050565b60008060006006546007548761179b9190612020565b6117a59190612172565b90506000612710856127106117ba9190612486565b876117c59190612020565b6117cf9190612172565b90508082101580156117e15750858211155b156117f357868293509350505061189b565b6000600754600654886118069190612020565b6118109190612172565b90506000612710876127106118259190612486565b8a6118309190612020565b61183a9190612172565b905080821015801561184c5750888211155b15611860578188955095505050505061189b565b6040517f08c379a00000000000000000000000000000000000000000000000000000000081526004016118929061252c565b60405180910390fd5b935093915050565b6000600382111561190a57819050600060016002846118c29190612172565b6118cc919061254c565b90505b818110156119045780915060028182856118e99190612172565b6118f3919061254c565b6118fd9190612172565b90506118cf565b50611918565b6000821461191757600190505b5b919050565b60008183111561192d578161192f565b825b905092915050565b81600681905550806007819055505050565b6000805442611958919061254c565b90506000600160003373ffffffffffffffffffffffffffffffffffffffff1673ffffffffffffffffffffffffffffffffffffffff168152602001908152602001600020600001541115611a68576000600160003373ffffffffffffffffffffffffffffffffffffffff1673ffffffffffffffffffffffffffffffffffffffff16815260200190815260200160002060000154836119f5919061254c565b9050604051806040016040528082815260200183815250600160003373ffffffffffffffffffffffffffffffffffffffff1673ffffffffffffffffffffffffffffffffffffffff168152602001908152602001600020600082015181600001556020820151816001015590505050611ad4565b604051806040016040528083815260200182815250600160003373ffffffffffffffffffffffffffffffffffffffff1673ffffffffffffffffffffffffffffffffffffffff16815260200190815260200160002060008201518160000155602082015181600101559050505b600360009054906101000a900473ffffffffffffffffffffffffffffffffffffffff1673ffffffffffffffffffffffffffffffffffffffff166340c10f1933846040518363ffffffff1660e01b8152600401611b3192919061235f565b600060405180830381600087803b158015611b4b57600080fd5b505af1158015611b5f573d6000803e3d6000fd5b505050505050565b80600160003373ffffffffffffffffffffffffffffffffffffffff1673ffffffffffffffffffffffffffffffffffffffff16815260200190815260200160002060000154611bb59190612486565b600160003373ffffffffffffffffffffffffffffffffffffffff1673ffffffffffffffffffffffffffffffffffffffff16815260200190815260200160002060000181905550600360009054906101000a900473ffffffffffffffffffffffffffffffffffffffff1673ffffffffffffffffffffffffffffffffffffffff16639dc29fac33836040518363ffffffff1660e01b8152600401611c5892919061235f565b600060405180830381600087803b158015611c7257600080fd5b505af1158015611c86573d6000803e3d6000fd5b5050505050565b6000806103e86103e586611ca19190612020565b611cab9190612172565b90508084611cb9919061254c565b8184611cc59190612020565b611ccf9190612172565b9150509392505050565b600073ffffffffffffffffffffffffffffffffffffffff82169050919050565b6000819050919050565b6000611d1e611d19611d1484611cd9565b611cf9565b611cd9565b9050919050565b6000611d3082611d03565b9050919050565b6000611d4282611d25565b9050919050565b611d5281611d37565b82525050565b6000602082019050611d6d6000830184611d49565b92915050565b6000819050919050565b611d8681611d73565b82525050565b6000602082019050611da16000830184611d7d565b92915050565b600080fd5b611db581611d73565b8114611dc057600080fd5b50565b600081359050611dd281611dac565b92915050565b600080600060608486031215611df157611df0611da7565b5b6000611dff86828701611dc3565b9350506020611e1086828701611dc3565b9250506040611e2186828701611dc3565b9150509250925092565b600060208284031215611e4157611e40611da7565b5b6000611e4f84828501611dc3565b91505092915050565b6000604082019050611e6d6000830185611d7d565b611e7a6020830184611d7d565b9392505050565b6000611e8c82611cd9565b9050919050565b611e9c81611e81565b8114611ea757600080fd5b50565b600081359050611eb981611e93565b92915050565b600080600060608486031215611ed857611ed7611da7565b5b6000611ee686828701611eaa565b9350506020611ef786828701611dc3565b9250506040611f0886828701611dc3565b9150509250925092565b60008115159050919050565b611f2781611f12565b82525050565b6000602082019050611f426000830184611f1e565b92915050565b60008060408385031215611f5f57611f5e611da7565b5b6000611f6d85828601611eaa565b9250506020611f7e85828601611dc3565b9150509250929050565b6000611f9382611d25565b9050919050565b611fa381611f88565b82525050565b6000602082019050611fbe6000830184611f9a565b92915050565b600060208284031215611fda57611fd9611da7565b5b6000611fe884828501611eaa565b91505092915050565b7f4e487b7100000000000000000000000000000000000000000000000000000000600052601160045260246000fd5b600061202b82611d73565b915061203683611d73565b925082820261204481611d73565b9150828204841483151761205b5761205a611ff1565b5b5092915050565b61206b81611e81565b82525050565b60006060820190506120866000830186612062565b6120936020830185612062565b6120a06040830184611d7d565b949350505050565b6120b181611f12565b81146120bc57600080fd5b50565b6000815190506120ce816120a8565b92915050565b6000602082840312156120ea576120e9611da7565b5b60006120f8848285016120bf565b91505092915050565b60008151905061211081611dac565b92915050565b60006020828403121561212c5761212b611da7565b5b600061213a84828501612101565b91505092915050565b7f4e487b7100000000000000000000000000000000000000000000000000000000600052601260045260246000fd5b600061217d82611d73565b915061218883611d73565b92508261219857612197612143565b5b828204905092915050565b600082825260208201905092915050565b7f4d696e74656420736861726573206d757374206265206772656174657220746860008201527f616e207a65726f00000000000000000000000000000000000000000000000000602082015250565b60006122106027836121a3565b915061221b826121b4565b604082019050919050565b6000602082019050818103600083015261223f81612203565b9050919050565b600060208201905061225b6000830184612062565b92915050565b7f417474656d7074696e6720746f206275726e20746f6f206d616e79204c50205460008201527f6f6b656e73000000000000000000000000000000000000000000000000000000602082015250565b60006122bd6025836121a3565b91506122c882612261565b604082019050919050565b600060208201905081810360008301526122ec816122b0565b9050919050565b7f546f6f206561726c7920746f207769746864726177206c697175696469747900600082015250565b6000612329601f836121a3565b9150612334826122f3565b602082019050919050565b600060208201905081810360008301526123588161231c565b9050919050565b60006040820190506123746000830185612062565b6123816020830184611d7d565b9392505050565b7f496e76616c696420746f6b656e207479706520666f7220746869732073776170600082015250565b60006123be6020836121a3565b91506123c982612388565b602082019050919050565b600060208201905081810360008301526123ed816123b1565b9050919050565b7f4f6e2d436861696e2065786368616e67652072617465206973206e6f7420776960008201527f7468696e20736c69707061676520626f756e6473207365742062792075736572602082015250565b60006124506040836121a3565b915061245b826123f4565b604082019050919050565b6000602082019050818103600083015261247f81612443565b9050919050565b600061249182611d73565b915061249c83611d73565b92508282039050818111156124b4576124b3611ff1565b5b92915050565b7f536c69707061676520746f6c6572616e63652065786365656465642c2061646a60008201527f757374206c697175696469747920616d6f756e74730000000000000000000000602082015250565b60006125166035836121a3565b9150612521826124ba565b604082019050919050565b6000602082019050818103600083015261254581612509565b9050919050565b600061255782611d73565b915061256283611d73565b925082820190508082111561257a57612579611ff1565b5b9291505056fea2646970667358221220560022572dd9cc0d0d8c78639f2c331cb74593a4d506ecd7cd54f0d2f2c46bf564736f6c63430008140033",
  "immutableReferences": {},
  "source": "// SPDX-License-Identifier: GPL-3.0\r\n\r\npragma solidity 0.8.20;\r\n\r\nimport \"@openzeppelin/contracts/token/ERC20/ERC20.sol\";\r\nimport \"./LpToken.sol\";\r\n\r\n// 000000000000000000\r\n\r\nstruct Deposit{\r\n    uint amount;\r\n    uint lockPeriodEnd;\r\n}\r\n\r\ncontract LiquidityPool{\r\n    uint public lockPeriod =  1 minutes / 2; \r\n    mapping(address => Deposit) deposits;\r\n    address LPTOKEN_ADDRESS;\r\n    LpToken public lptoken;\r\n    ERC20 public token1;\r\n    ERC20 public token2;\r\n\r\n    uint public token1_reserve = 0;\r\n    uint public token2_reserve = 0;\r\n\r\n    constructor(address _t1, address _t2, address _lptoken){\r\n        token1 = ERC20(_t1);\r\n        token2 = ERC20(_t2);\r\n        lptoken = LpToken(_lptoken);\r\n\r\n    }\r\n\r\n    \r\n    modifier validSwap(address _token){\r\n        require(_token == address(token1) || _token == address(token2), \"Invalid token type for this swap\");\r\n        _;\r\n    }\r\n    function setLPTokenAddress(address _LPToken) external {\r\n        LPTOKEN_ADDRESS = _LPToken;\r\n    }\r\n\r\n    function callToken() external view returns(uint){\r\n        ERC20 lp = ERC20(LPTOKEN_ADDRESS);\r\n        return lp.totalSupply();\r\n\r\n    }\r\n    \r\n    function sqrt(uint y) internal pure returns (uint z) {\r\n        if (y > 3) {\r\n            z = y;\r\n            uint x = y / 2 + 1;\r\n            while (x < z) {\r\n                z = x;\r\n                x = (y / x + x) / 2;\r\n            }\r\n        } else if (y != 0) {\r\n            z = 1;\r\n        }\r\n    }   \r\n\r\n    function min(uint x, uint y) private pure returns (uint){\r\n        return x<=y? x: y;\r\n    }\r\n\r\n    function updateReserves(uint _token1_reserve, uint _token2_reserve) private{\r\n        token1_reserve = _token1_reserve;\r\n        token2_reserve = _token2_reserve;\r\n    }\r\n\r\n    function addDeposit(uint shares) private{\r\n        //grab current deposit for sender if it exists (check if amount is >0)\r\n        //calculate new timestamp\r\n        uint withdrawalDate = block.timestamp + lockPeriod;\r\n        if(deposits[msg.sender].amount>0){\r\n            uint totalShares = shares + deposits[msg.sender].amount;\r\n            deposits[msg.sender] = Deposit(totalShares, withdrawalDate);\r\n        //if the depoosit is new, make a new deposit objedct\r\n        }else{\r\n            deposits[msg.sender] = Deposit(shares, withdrawalDate);\r\n        }\r\n        //mint the new LP tokens \r\n        lptoken.mint(msg.sender, shares);\r\n\r\n    }\r\n\r\n\r\n\r\n    //function for finding correct ratios in the case that there is a delay between transaction submission and transaction  (likely to occur in real use)\r\n    function calculateNewLiquidityRatios(uint _amount1, uint _amount2, uint slippage) private view returns(uint, uint){\r\n        //start by calculating a new a2 for the given a1\r\n        //a2 = (a1 x r2) / r1\r\n        uint a2 = (_amount1 * token2_reserve) / token1_reserve;\r\n        // Calculate the minimum acceptable a2 based on slippage tolerance\r\n        uint minA2 = (_amount2 * (10000 - slippage)) / 10000; // Using 10000 for better precision\r\n\r\n        if(a2 >= minA2 && a2 <= _amount2){\r\n            return (_amount1, a2);\r\n        }\r\n\r\n        uint a1 = (_amount2 * token1_reserve) / token2_reserve;\r\n        // Calculate the minimum acceptable a1 based on slippage tolerance\r\n        uint minA1 = (_amount1 * (10000 - slippage)) / 10000; // Using 10000 for better precision\r\n\r\n        if(a1 >= minA1 && a1 <= _amount1){\r\n            return (a1, _amount2);\r\n        }\r\n    \r\n        revert(\"Slippage tolerance exceeded, adjust liquidity amounts\");\r\n    }\r\n\r\n    function addLiquidity(uint _amount1, uint _amount2, uint slippage) external returns(uint shares) {\r\n        //if 0 of either token is supplied, abort\r\n        require(_amount1 >0 && _amount2>0);\r\n        //first check if the passed in # of tokens satisfies the ratio of the reserves (such that price will not change when adding this liquidity)\r\n        if(token1_reserve > 0 || token2_reserve >0 ){\r\n            //if passed amounts don't satisfiy, then find new ratios that do\r\n            if(!(_amount1 * token2_reserve == _amount2 * token1_reserve)){\r\n                (_amount1, _amount2) = calculateNewLiquidityRatios(_amount1, _amount2, slippage);\r\n            }\r\n        }\r\n        //if we make it here then we have found a ratio within slippage range such that we can add liquidity\r\n        token1.transferFrom(msg.sender, address(this), _amount1);\r\n        token2.transferFrom(msg.sender, address(this), _amount2);\r\n\r\n        //call into LP Token smart contract to get total supply\r\n        uint current_totalSupply = lptoken.totalSupply();\r\n        //i.e no shares have been minted (this is first bit of liquidity)\r\n        if(current_totalSupply == 0) {\r\n            shares = sqrt(_amount1 * _amount2);\r\n        }else{\r\n            shares = min(\r\n                (_amount1 * current_totalSupply) / token1_reserve,\r\n                (_amount2 * current_totalSupply) / token2_reserve\r\n            );\r\n        }\r\n\r\n        require(shares > 0, \"Minted shares must be greater than zero\" );\r\n        \r\n        //update reserves after minting \r\n        updateReserves(\r\n            token1.balanceOf(address(this)),\r\n            token2.balanceOf(address(this))\r\n        );\r\n\r\n        //update the current user deposit\r\n        addDeposit(shares);\r\n        return shares;\r\n\r\n    }\r\n\r\n    function removeLiquidity(uint _shareCount) external returns(uint token1Amount, uint token2Amount) {\r\n        uint senderBalance = lptoken.balanceOf(msg.sender);\r\n        require(_shareCount <= senderBalance, \"Attempting to burn too many LP Tokens\");\r\n        require(deposits[msg.sender].amount> 0 && _shareCount <= deposits[msg.sender].amount && deposits[msg.sender].lockPeriodEnd <= block.timestamp, \"Too early to withdraw liquidity\");\r\n        //we want to return amount of liquidity that is proportional to the # of shares this lp provider has\r\n        //enable calling of LpToken smart contract\r\n        \r\n        uint LPTotalSupply = lptoken.totalSupply();\r\n        //transfer correct proportion of reserves to the sender\r\n        uint b1 = token1.balanceOf(address(this));\r\n        uint b2 = token2.balanceOf(address(this));\r\n        token1Amount = b1 * _shareCount / LPTotalSupply;\r\n        token2Amount = b2 * _shareCount / LPTotalSupply;\r\n\r\n        token1.transfer(msg.sender, token1Amount);\r\n        token2.transfer(msg.sender, token2Amount);\r\n\r\n\r\n        //update reserves after burning shared\r\n        updateReserves(\r\n            token1.balanceOf(address(this)),\r\n            token2.balanceOf(address(this))\r\n        );\r\n        minusDeposit(_shareCount);\r\n\r\n    }\r\n\r\n    \r\n    function minusDeposit(uint shares) private{\r\n        deposits[msg.sender].amount = deposits[msg.sender].amount - shares;\r\n\r\n        //burn the LP tokens that the user has redemeed for their share of liquidity pool reserves\r\n        lptoken.burn(msg.sender, shares);\r\n    }\r\n\r\n    function calculateSwap(uint countIn, uint inReserve, uint outReserve) internal pure returns(uint amountOut){\r\n        //calculate amount of token in (with fee of 0.3%)\r\n        uint countInWithFee = (countIn * 997) / 1000;\r\n        //dy = ydx / x + dx \r\n        amountOut =  (outReserve * countInWithFee) / (inReserve + countInWithFee );\r\n    }\r\n\r\n    //function to call if you want slippage protection on the swap (i.e you have a minimum amount you want to get from the swap)\r\n    function slippage_swap(address _token, uint countIn, uint slippage_minimum) external validSwap(_token) returns(bool success){\r\n        bool isToken1 = (_token == address(token1));\r\n        (ERC20 tokenIn, ERC20 tokenOut, uint inReserve, uint outReserve ) = isToken1? (token1, token2, token1_reserve, token2_reserve): (token2, token1, token2_reserve, token1_reserve);\r\n        uint amountOut = calculateSwap(countIn, inReserve, outReserve);\r\n        \r\n        //check if the calculated amount output is within the slippage tolerances of the user\r\n        //we require that the on-chain calculation is within {slippage} percentage of the value that was calculated on the client, otherwise we revert the transaction\r\n        require(amountOut >= slippage_minimum, \"On-Chain exchange rate is not within slippage bounds set by user\");\r\n        tokenIn.transferFrom(msg.sender, address(this), countIn);\r\n        //transfer the 'amountOut' amount of tokens to sender\r\n        tokenOut.transfer(msg.sender, amountOut);\r\n        \r\n        //update the reserves to reflect new balances;\r\n        updateReserves(token1.balanceOf(address(this)), token2.balanceOf(address(this)));\r\n        success = true;\r\n\r\n    }\r\n\r\n\r\n    function swap(address _token, uint countIn) external validSwap(_token) returns(uint amountOut ){\r\n        //check what token we are receiving\r\n        bool isToken1 = (_token == address(token1));\r\n        (ERC20 tokenIn, ERC20 tokenOut, uint inReserve, uint outReserve ) = isToken1? (token1, token2, token1_reserve, token2_reserve): (token2, token1, token2_reserve, token1_reserve);\r\n        amountOut = calculateSwap(countIn, inReserve, outReserve);\r\n        //transfer the 'inToken' in\r\n        tokenIn.transferFrom(msg.sender, address(this), countIn);\r\n        //transfer the 'amountOut' amount of tokens to sender\r\n        tokenOut.transfer(msg.sender, amountOut);\r\n        //update the reserves to reflect new balances;\r\n        updateReserves(token1.balanceOf(address(this)), token2.balanceOf(address(this)));\r\n\r\n    }\r\n\r\n}\r\n\r\n",
  "sourcePath": "C:\\Users\\liamd\\Documents\\FYP-liquidity-pool\\truffle\\contracts\\liquiditypool.sol",
  "compiler": {
    "name": "solc",
    "version": "0.8.20+commit.a1b79de6.Emscripten.clang"
  },
  "schemaVersion": "3.4.16",
  "updatedAt": "2024-04-17T01:28:36.797Z",
  "devdoc": {
    "kind": "dev",
    "methods": {},
    "version": 1
  },
  "userdoc": {
    "kind": "user",
    "methods": {},
    "version": 1
  }
}