{
  "contractName": "PriceConsumer",
  "abi": [
    {
      "inputs": [],
      "stateMutability": "nonpayable",
      "type": "constructor"
    },
    {
      "inputs": [],
      "name": "getChainlinkDataFeedLatestAnswer",
      "outputs": [
        {
          "internalType": "uint256",
          "name": "",
          "type": "uint256"
        }
      ],
      "stateMutability": "pure",
      "type": "function"
    },
    {
      "inputs": [
        {
          "internalType": "uint256",
          "name": "_reserve1",
          "type": "uint256"
        }
      ],
      "name": "setReserve1",
      "outputs": [
        {
          "internalType": "uint256",
          "name": "",
          "type": "uint256"
        }
      ],
      "stateMutability": "nonpayable",
      "type": "function"
    },
    {
      "inputs": [
        {
          "internalType": "uint256",
          "name": "_reserve2",
          "type": "uint256"
        }
      ],
      "name": "setReserve2",
      "outputs": [
        {
          "internalType": "uint256",
          "name": "",
          "type": "uint256"
        }
      ],
      "stateMutability": "nonpayable",
      "type": "function"
    },
    {
      "inputs": [],
      "name": "getReserveRatio",
      "outputs": [
        {
          "internalType": "uint256",
          "name": "",
          "type": "uint256"
        }
      ],
      "stateMutability": "view",
      "type": "function"
    },
    {
      "inputs": [
        {
          "internalType": "uint256",
          "name": "amount",
          "type": "uint256"
        }
      ],
      "name": "withFee",
      "outputs": [
        {
          "internalType": "uint256",
          "name": "",
          "type": "uint256"
        }
      ],
      "stateMutability": "pure",
      "type": "function"
    },
    {
      "inputs": [],
      "name": "calculateNewSwapFee",
      "outputs": [
        {
          "internalType": "string",
          "name": "",
          "type": "string"
        }
      ],
      "stateMutability": "view",
      "type": "function"
    },
    {
      "inputs": [
        {
          "internalType": "uint256",
          "name": "num1",
          "type": "uint256"
        },
        {
          "internalType": "uint256",
          "name": "num2",
          "type": "uint256"
        }
      ],
      "name": "calculatePercentageDifference",
      "outputs": [
        {
          "internalType": "uint256",
          "name": "",
          "type": "uint256"
        }
      ],
      "stateMutability": "pure",
      "type": "function"
    }
  ],
  "bytecode": "0x60c06040526000805560006001556012608090815250660aa87bee53800060a0908152504260035534801561003357600080fd5b5060805160a0516108e9610059600039600061023e015260006102c801526108e96000f3fe608060405234801561001057600080fd5b506004361061007d5760003560e01c806356b6d0d51161005b57806356b6d0d5146101125780639b67684f14610130578063bea4dfb514610160578063ff7fd4101461017e5761007d565b806310e3b14914610082578063255021a2146100b25780633d65ce58146100e2575b600080fd5b61009c6004803603810190610097919061047b565b61019c565b6040516100a991906104ca565b60405180910390f35b6100cc60048036038101906100c791906104e5565b610230565b6040516100d991906104ca565b60405180910390f35b6100fc60048036038101906100f791906104e5565b610290565b60405161010991906104ca565b60405180910390f35b61011a6102a3565b60405161012791906104ca565b60405180910390f35b61014a600480360381019061014591906104e5565b610313565b60405161015791906104ca565b60405180910390f35b610168610326565b60405161017591906104ca565b60405180910390f35b610186610336565b60405161019391906105a2565b60405180910390f35b60008082036101e0576040517f08c379a00000000000000000000000000000000000000000000000000000000081526004016101d790610610565b60405180910390fd5b60008284116101fa5783836101f5919061065f565b610207565b8284610206919061065f565b5b90506000836064836102199190610693565b6102239190610704565b9050809250505092915050565b600080670de0b6b3a76400007f0000000000000000000000000000000000000000000000000000000000000000670de0b6b3a7640000610270919061065f565b8461027b9190610693565b6102859190610704565b905080915050919050565b6000816001819055506001549050919050565b6000806000541180156102b857506000600154115b6102c157600080fd5b60006001547f0000000000000000000000000000000000000000000000000000000000000000600a6102f39190610868565b6000546103009190610693565b61030a9190610704565b90508091505090565b6000816000819055506000549050919050565b6000671bc16d674ec80000905090565b60606000805411801561034b57506000600154115b61035457600080fd5b600061035e610326565b9050600061036a6102a3565b905060006103e86103ed8361037f9190610693565b6103899190610704565b905060006103e86103e38461039e9190610693565b6103a89190610704565b90508084101580156103ba5750818411155b15610400576040518060400160405280600c81526020017f57697468696e20726174696f000000000000000000000000000000000000000081525094505050505061043d565b6040518060400160405280601081526020017f4e6f742077697468696e20726174696f000000000000000000000000000000008152509450505050505b90565b600080fd5b6000819050919050565b61045881610445565b811461046357600080fd5b50565b6000813590506104758161044f565b92915050565b6000806040838503121561049257610491610440565b5b60006104a085828601610466565b92505060206104b185828601610466565b9150509250929050565b6104c481610445565b82525050565b60006020820190506104df60008301846104bb565b92915050565b6000602082840312156104fb576104fa610440565b5b600061050984828501610466565b91505092915050565b600081519050919050565b600082825260208201905092915050565b60005b8381101561054c578082015181840152602081019050610531565b60008484015250505050565b6000601f19601f8301169050919050565b600061057482610512565b61057e818561051d565b935061058e81856020860161052e565b61059781610558565b840191505092915050565b600060208201905081810360008301526105bc8184610569565b905092915050565b7f43616e6e6f7420646976696465206279207a65726f0000000000000000000000600082015250565b60006105fa60158361051d565b9150610605826105c4565b602082019050919050565b60006020820190508181036000830152610629816105ed565b9050919050565b7f4e487b7100000000000000000000000000000000000000000000000000000000600052601160045260246000fd5b600061066a82610445565b915061067583610445565b925082820390508181111561068d5761068c610630565b5b92915050565b600061069e82610445565b91506106a983610445565b92508282026106b781610445565b915082820484148315176106ce576106cd610630565b5b5092915050565b7f4e487b7100000000000000000000000000000000000000000000000000000000600052601260045260246000fd5b600061070f82610445565b915061071a83610445565b92508261072a576107296106d5565b5b828204905092915050565b60008160011c9050919050565b6000808291508390505b600185111561078c5780860481111561076857610767610630565b5b60018516156107775780820291505b808102905061078585610735565b945061074c565b94509492505050565b6000826107a55760019050610861565b816107b35760009050610861565b81600181146107c957600281146107d357610802565b6001915050610861565b60ff8411156107e5576107e4610630565b5b8360020a9150848211156107fc576107fb610630565b5b50610861565b5060208310610133831016604e8410600b84101617156108375782820a90508381111561083257610831610630565b5b610861565b6108448484846001610742565b9250905081840481111561085b5761085a610630565b5b81810290505b9392505050565b600061087382610445565b915061087e83610445565b92506108ab7fffffffffffffffffffffffffffffffffffffffffffffffffffffffffffffffff8484610795565b90509291505056fea2646970667358221220745fb488d5fd560f23bd985f54f0740ad58ca8ccd9d8e237b36c8947e05d452b64736f6c63430008140033",
  "immutableReferences": {
    "2005": [
      {
        "length": 32,
        "start": 712
      }
    ],
    "2012": [
      {
        "length": 32,
        "start": 574
      }
    ]
  },
  "source": "// contracts/GLDToken.sol\r\n// SPDX-License-Identifier: MIT\r\npragma solidity ^0.8.0;\r\n//import {AggregatorV3Interface} from \"@chainlink/contracts/src/v0.8/interfaces/AggregatorV3Interface.sol\";\r\n\r\ncontract PriceConsumer{\r\n    //AggregatorV3Interface internal dataFeed;\r\n\r\n    uint reserve1 = 0;\r\n    uint reserve2 = 0;\r\n    uint immutable precision = 18;\r\n    uint immutable baseFee = 3 * 10**15 ;//0.3% fee for each trade\r\n    uint[] private dataPoints;\r\n    uint lastCheckTime = block.timestamp;\r\n\r\n    constructor(){\r\n        //dataFeed = AggregatorV3Interface(0x42585eD362B3f1BCa95c640FdFf35Ef899212734);\r\n    }\r\n\r\n\r\n    function calculateSwap(uint countIn) internal view returns(uint amountOut){\r\n        //calculate the fee for this trade\r\n        \r\n        //calculate amount of token in (with fee of 0.3%)\r\n        uint countInWithFee = (countIn * 997) / 1000;\r\n        //dy = ydx / x + dx \r\n        amountOut =  (reserve2 * countInWithFee) / (reserve1 + countInWithFee );\r\n    }\r\n\r\n\r\n    //CURRENTLY USING LINK/ETH PRICE FEED\r\n    function getChainlinkDataFeedLatestAnswer() public pure returns (uint256) {\r\n        // (\r\n        //     /* uint80 roundID */,\r\n        //     int answer,\r\n        //     /*uint startedAt*/,\r\n        //     /*uint timeStamp*/,\r\n        //     /*uint80 answeredInRound*/\r\n        // ) = dataFeed.latestRoundData();\r\n        // return answer;\r\n        return uint256(2000000000000000000);\r\n        //return uint256(5058822323789223);\r\n    }\r\n\r\n    function setReserve1(uint _reserve1) public  returns(uint){\r\n        reserve1 = _reserve1;\r\n        return reserve1;\r\n    }\r\n\r\n    function setReserve2(uint _reserve2) public  returns(uint){\r\n        reserve2 = _reserve2;\r\n        return reserve2;\r\n    }\r\n\r\n    function getReserveRatio() public view returns(uint){  \r\n        require(reserve1> 0 && reserve2 > 0 );\r\n        uint ratio = (reserve1 * 10 ** precision) / reserve2;\r\n        return ratio;\r\n\r\n    }\r\n\r\n    function withFee(uint amount) public pure returns(uint){\r\n        uint minusFee = amount * (10**18 - baseFee) / 10**18;\r\n        return minusFee;\r\n    }\r\n    \r\n\r\n    //tA / tB should be == the price feed\r\n    function calculateNewSwapFee() public view returns(string memory){\r\n        require(reserve1 > 0 && reserve2 > 0);\r\n        uint256 chainlinkRatio = uint256(getChainlinkDataFeedLatestAnswer());\r\n        uint ratio = getReserveRatio();\r\n\r\n        uint upperBound = ratio * 1005 / 1000; // Multiply by 1.05 but adjusted for solidity's lack of decimal\r\n        uint lowerBound = ratio * 995 / 1000;  // Multiply by 0.95 adjusted for solidity\r\n\r\n        if(chainlinkRatio >= lowerBound && chainlinkRatio <= upperBound){\r\n            return \"Within ratio\";\r\n        }else{\r\n            return \"Not within ratio\";\r\n        }\r\n    \r\n    }\r\n\r\n    //function to calculate the time since last chainlink ratio fetch\r\n    function calculateTimeDiff() private view returns(bool){\r\n        if(lastCheckTime - block.timestamp > 1 minutes){\r\n            return true;\r\n        }\r\n        return false;\r\n    }\r\n\r\n    function calculateSMA() private view returns(uint256){\r\n        require(dataPoints.length>0);\r\n        uint sum = 0;\r\n        for(uint i= 0; i < dataPoints.length; i++){\r\n            sum += dataPoints[i];\r\n        }\r\n        return sum / dataPoints.length;\r\n    }\r\n\r\n\r\n    //function for shifting the points in the array back\r\n    function shiftPoints(uint length, uint point) private returns(uint256){\r\n        if(length<5){\r\n            dataPoints.push(point);\r\n        }\r\n        else{\r\n            for(uint i=0; i < dataPoints.length -1; i ++){\r\n                dataPoints[i] = dataPoints[i+1];\r\n            }\r\n            dataPoints[dataPoints.length-1] = point;\r\n        }\r\n        return calculateSMA();\r\n    }\r\n\r\n    function calculatePercentageDifference(uint256 num1, uint256 num2) public pure returns (uint256) {\r\n        require(num2 != 0, \"Cannot divide by zero\");\r\n        uint256 difference = (num1 > num2) ? (num1 - num2) : (num2 - num1);\r\n        uint256 percentage = (difference * 100) / num2;\r\n        return percentage;\r\n    }\r\n\r\n\r\n   // function swap(uint amount) public view returns(uint[] memory points){\r\n        //if(calculateTimeDiff()){\r\n            //uint256 newChainlinkRatio = getChainlinkDataFeedLatestAnswer();\r\n            //uint average_ratio = shiftPoints(dataPoints.length, newChainlinkRatio);\r\n            //uint return_amount = calculateSwap(amount);\r\n\r\n        //}\r\n\r\n       // return dataPoints;\r\n    //}\r\n\r\n\r\n\r\n}\r\n//000000000000000000",
  "sourcePath": "C:\\Users\\liamd\\Documents\\FYP-liquidity-pool\\truffle\\contracts\\test.sol",
  "compiler": {
    "name": "solc",
    "version": "0.8.20+commit.a1b79de6.Emscripten.clang"
  },
  "schemaVersion": "3.4.16",
  "updatedAt": "2024-04-17T01:28:36.803Z",
  "devdoc": {
    "kind": "dev",
    "methods": {},
    "version": 1
  },
  "userdoc": {
    "kind": "user",
    "methods": {},
    "version": 1
  }
}