{
  "contractName": "tokenPriceRate",
  "abi": [
    {
      "inputs": [],
      "name": "price",
      "outputs": [
        {
          "internalType": "uint256",
          "name": "",
          "type": "uint256"
        }
      ],
      "stateMutability": "view",
      "type": "function"
    },
    {
      "inputs": [],
      "name": "getPrice",
      "outputs": [
        {
          "internalType": "uint256",
          "name": "",
          "type": "uint256"
        }
      ],
      "stateMutability": "view",
      "type": "function"
    },
    {
      "inputs": [
        {
          "internalType": "uint256",
          "name": "_newPrice",
          "type": "uint256"
        }
      ],
      "name": "setPrice",
      "outputs": [],
      "stateMutability": "nonpayable",
      "type": "function"
    }
  ],
  "bytecode": "0x608060405234801561000f575f80fd5b506101718061001d5f395ff3fe608060405234801561000f575f80fd5b506004361061003f575f3560e01c806391b7f5ed1461004357806398d5fdca1461005f578063a035b1fe1461007d575b5f80fd5b61005d600480360381019061005891906100e8565b61009b565b005b6100676100a4565b6040516100749190610122565b60405180910390f35b6100856100ac565b6040516100929190610122565b60405180910390f35b805f8190555050565b5f8054905090565b5f5481565b5f80fd5b5f819050919050565b6100c7816100b5565b81146100d1575f80fd5b50565b5f813590506100e2816100be565b92915050565b5f602082840312156100fd576100fc6100b1565b5b5f61010a848285016100d4565b91505092915050565b61011c816100b5565b82525050565b5f6020820190506101355f830184610113565b9291505056fea26469706673582212205a40939925c006423fbb60d17a1964ea674b38ea70262e60f8beceaf0c6b5e2e64736f6c63430008140033",
  "immutableReferences": {},
  "source": "// contracts/GLDToken.sol\r\n// SPDX-License-Identifier: MIT\r\npragma solidity ^0.8.0;\r\n\r\ncontract tokenPriceRate{\r\n    uint public price;\r\n    \r\n    function getPrice() public view returns(uint){\r\n        return price;\r\n    }\r\n    function setPrice(uint _newPrice) external {\r\n        price = _newPrice;\r\n    }\r\n}",
  "sourcePath": "C:\\Users\\liamd\\Documents\\FYP-liquidity-pool\\truffle\\solidity\\contracts\\helloWorld.sol",
  "compiler": {
    "name": "solc",
    "version": "0.8.20+commit.a1b79de6.Emscripten.clang"
  },
  "schemaVersion": "3.4.16",
  "updatedAt": "2024-04-16T00:48:28.782Z",
  "devdoc": {
    "kind": "dev",
    "methods": {},
    "version": 1
  },
  "userdoc": {
    "kind": "user",
    "methods": {},
    "version": 1
  }
}