{
  "contractName": "TokenSwap",
  "abi": [
    {
      "inputs": [
        {
          "internalType": "address",
          "name": "_token1",
          "type": "address"
        },
        {
          "internalType": "address",
          "name": "_owner1",
          "type": "address"
        },
        {
          "internalType": "address",
          "name": "_token2",
          "type": "address"
        },
        {
          "internalType": "address",
          "name": "_owner2",
          "type": "address"
        }
      ],
      "stateMutability": "nonpayable",
      "type": "constructor"
    },
    {
      "inputs": [],
      "name": "owner1",
      "outputs": [
        {
          "internalType": "address",
          "name": "",
          "type": "address"
        }
      ],
      "stateMutability": "view",
      "type": "function"
    },
    {
      "inputs": [],
      "name": "owner2",
      "outputs": [
        {
          "internalType": "address",
          "name": "",
          "type": "address"
        }
      ],
      "stateMutability": "view",
      "type": "function"
    },
    {
      "inputs": [],
      "name": "token1",
      "outputs": [
        {
          "internalType": "contract IERC20",
          "name": "",
          "type": "address"
        }
      ],
      "stateMutability": "view",
      "type": "function"
    },
    {
      "inputs": [],
      "name": "token2",
      "outputs": [
        {
          "internalType": "contract IERC20",
          "name": "",
          "type": "address"
        }
      ],
      "stateMutability": "view",
      "type": "function"
    },
    {
      "inputs": [
        {
          "internalType": "uint256",
          "name": "_amount1",
          "type": "uint256"
        },
        {
          "internalType": "uint256",
          "name": "_amount2",
          "type": "uint256"
        }
      ],
      "name": "swap",
      "outputs": [],
      "stateMutability": "nonpayable",
      "type": "function"
    }
  ],
  "bytecode": "0x608060405234801561001057600080fd5b50604051610cbc380380610cbc833981810160405281019061003291906101a1565b836000806101000a81548173ffffffffffffffffffffffffffffffffffffffff021916908373ffffffffffffffffffffffffffffffffffffffff16021790555082600160006101000a81548173ffffffffffffffffffffffffffffffffffffffff021916908373ffffffffffffffffffffffffffffffffffffffff16021790555081600260006101000a81548173ffffffffffffffffffffffffffffffffffffffff021916908373ffffffffffffffffffffffffffffffffffffffff16021790555080600360006101000a81548173ffffffffffffffffffffffffffffffffffffffff021916908373ffffffffffffffffffffffffffffffffffffffff16021790555050505050610208565b600080fd5b600073ffffffffffffffffffffffffffffffffffffffff82169050919050565b600061016e82610143565b9050919050565b61017e81610163565b811461018957600080fd5b50565b60008151905061019b81610175565b92915050565b600080600080608085870312156101bb576101ba61013e565b5b60006101c98782880161018c565b94505060206101da8782880161018c565b93505060406101eb8782880161018c565b92505060606101fc8782880161018c565b91505092959194509250565b610aa5806102176000396000f3fe608060405234801561001057600080fd5b50600436106100575760003560e01c806325be124e1461005c578063527097251461007a5780637368891414610098578063d21220a7146100b6578063d96073cf146100d4575b600080fd5b6100646100f0565b60405161007191906106a0565b60405180910390f35b610082610116565b60405161008f91906106dc565b60405180910390f35b6100a061013c565b6040516100ad91906106dc565b60405180910390f35b6100be610162565b6040516100cb91906106a0565b60405180910390f35b6100ee60048036038101906100e99190610732565b610186565b005b600260009054906101000a900473ffffffffffffffffffffffffffffffffffffffff1681565b600360009054906101000a900473ffffffffffffffffffffffffffffffffffffffff1681565b600160009054906101000a900473ffffffffffffffffffffffffffffffffffffffff1681565b60008054906101000a900473ffffffffffffffffffffffffffffffffffffffff1681565b600160009054906101000a900473ffffffffffffffffffffffffffffffffffffffff1673ffffffffffffffffffffffffffffffffffffffff163373ffffffffffffffffffffffffffffffffffffffff16148061022f5750600360009054906101000a900473ffffffffffffffffffffffffffffffffffffffff1673ffffffffffffffffffffffffffffffffffffffff163373ffffffffffffffffffffffffffffffffffffffff16145b61026e576040517f08c379a0000000000000000000000000000000000000000000000000000000008152600401610265906107f5565b60405180910390fd5b8160008054906101000a900473ffffffffffffffffffffffffffffffffffffffff1673ffffffffffffffffffffffffffffffffffffffff1663dd62ed3e600160009054906101000a900473ffffffffffffffffffffffffffffffffffffffff16306040518363ffffffff1660e01b81526004016102ec929190610815565b602060405180830381865afa158015610309573d6000803e3d6000fd5b505050506040513d601f19601f8201168201806040525081019061032d9190610853565b101561036e576040517f08c379a0000000000000000000000000000000000000000000000000000000008152600401610365906108cc565b60405180910390fd5b80600260009054906101000a900473ffffffffffffffffffffffffffffffffffffffff1673ffffffffffffffffffffffffffffffffffffffff1663dd62ed3e600360009054906101000a900473ffffffffffffffffffffffffffffffffffffffff16306040518363ffffffff1660e01b81526004016103ee929190610815565b602060405180830381865afa15801561040b573d6000803e3d6000fd5b505050506040513d601f19601f8201168201806040525081019061042f9190610853565b1015610470576040517f08c379a000000000000000000000000000000000000000000000000000000000815260040161046790610938565b60405180910390fd5b6104e060008054906101000a900473ffffffffffffffffffffffffffffffffffffffff16600160009054906101000a900473ffffffffffffffffffffffffffffffffffffffff16600360009054906101000a900473ffffffffffffffffffffffffffffffffffffffff1685610556565b610552600260009054906101000a900473ffffffffffffffffffffffffffffffffffffffff16600360009054906101000a900473ffffffffffffffffffffffffffffffffffffffff16600160009054906101000a900473ffffffffffffffffffffffffffffffffffffffff1684610556565b5050565b60008473ffffffffffffffffffffffffffffffffffffffff166323b872dd8585856040518463ffffffff1660e01b815260040161059593929190610967565b6020604051808303816000875af11580156105b4573d6000803e3d6000fd5b505050506040513d601f19601f820116820180604052508101906105d891906109d6565b90508061061a576040517f08c379a000000000000000000000000000000000000000000000000000000000815260040161061190610a4f565b60405180910390fd5b5050505050565b600073ffffffffffffffffffffffffffffffffffffffff82169050919050565b6000819050919050565b600061066661066161065c84610621565b610641565b610621565b9050919050565b60006106788261064b565b9050919050565b600061068a8261066d565b9050919050565b61069a8161067f565b82525050565b60006020820190506106b56000830184610691565b92915050565b60006106c682610621565b9050919050565b6106d6816106bb565b82525050565b60006020820190506106f160008301846106cd565b92915050565b600080fd5b6000819050919050565b61070f816106fc565b811461071a57600080fd5b50565b60008135905061072c81610706565b92915050565b60008060408385031215610749576107486106f7565b5b60006107578582860161071d565b92505060206107688582860161071d565b9150509250929050565b600082825260208201905092915050565b7f4e6f7420617574686f72697a656420746f2063616c6c20746869732066756e6360008201527f74696f6e00000000000000000000000000000000000000000000000000000000602082015250565b60006107df602483610772565b91506107ea82610783565b604082019050919050565b6000602082019050818103600083015261080e816107d2565b9050919050565b600060408201905061082a60008301856106cd565b61083760208301846106cd565b9392505050565b60008151905061084d81610706565b92915050565b600060208284031215610869576108686106f7565b5b60006108778482850161083e565b91505092915050565b7f546f6b656e203120416c6c6f77616e636520746f6f206c6f7700000000000000600082015250565b60006108b6601983610772565b91506108c182610880565b602082019050919050565b600060208201905081810360008301526108e5816108a9565b9050919050565b7f546f6b656e203220416c6c6f77616e636520746f6f206c6f7700000000000000600082015250565b6000610922601983610772565b915061092d826108ec565b602082019050919050565b6000602082019050818103600083015261095181610915565b9050919050565b610961816106fc565b82525050565b600060608201905061097c60008301866106cd565b61098960208301856106cd565b6109966040830184610958565b949350505050565b60008115159050919050565b6109b38161099e565b81146109be57600080fd5b50565b6000815190506109d0816109aa565b92915050565b6000602082840312156109ec576109eb6106f7565b5b60006109fa848285016109c1565b91505092915050565b7f546f6b656e207472616e73666572206661696c65640000000000000000000000600082015250565b6000610a39601583610772565b9150610a4482610a03565b602082019050919050565b60006020820190508181036000830152610a6881610a2c565b905091905056fea264697066735822122046e25f77d0f878435703c820d686a862447b77812d1348e82afe39d6daed8c3564736f6c63430008140033",
  "immutableReferences": {},
  "source": "// SPDX-License-Identifier: GPL-3.0\r\n\r\npragma solidity 0.8.20;\r\n\r\n\r\n// https://github.com/OpenZeppelin/openzeppelin-contracts/blob/v3.0.0/contracts/token/ERC20/IERC20.sol\r\ninterface IERC20 {\r\n    function totalSupply() external view returns (uint);\r\n\r\n    function balanceOf(address account) external view returns (uint);\r\n\r\n    function transfer(address recipient, uint amount) external returns (bool);\r\n\r\n    function allowance(address owner, address spender) external view returns (uint);\r\n\r\n    function approve(address spender, uint amount) external returns (bool);\r\n\r\n    function transferFrom(\r\n        address sender,\r\n        address recipient,\r\n        uint amount\r\n    ) external returns (bool);\r\n\r\n    event Transfer(address indexed from, address indexed to, uint value);\r\n    event Approval(address indexed owner, address indexed spender, uint value);\r\n}\r\n\r\ncontract TokenSwap {\r\n    IERC20 public token1;\r\n    address public owner1;\r\n    IERC20 public token2;\r\n    address public owner2;\r\n\r\n    constructor(\r\n        address _token1,\r\n        address _owner1,\r\n        address _token2,\r\n        address _owner2\r\n    ) {\r\n        token1 = IERC20(_token1);\r\n        owner1 = _owner1;\r\n        token2 = IERC20(_token2);\r\n        owner2 = _owner2;\r\n    }\r\n    \r\n    function swap(uint _amount1, uint _amount2) public{\r\n        require(msg.sender == owner1 || msg.sender == owner2, \"Not authorized to call this function\");\r\n        require(token1.allowance(owner1, address(this)) >= _amount1, \"Token 1 Allowance too low\");\r\n        require(token2.allowance(owner2, address(this)) >= _amount2, \"Token 2 Allowance too low\");\r\n\r\n        //now transfer tokens\r\n        _safeTransferFrom(token1, owner1, owner2, _amount1);\r\n        _safeTransferFrom(token2, owner2, owner1, _amount2);\r\n\r\n    }\r\n\r\n    function _safeTransferFrom(\r\n        IERC20 token,\r\n        address sender,\r\n        address recipient,\r\n        uint amount\r\n    ) private {\r\n        bool sent = token.transferFrom(sender, recipient, amount);\r\n        require(sent, \"Token transfer failed\");\r\n    }\r\n\r\n}",
  "sourcePath": "C:\\Users\\liamd\\Documents\\FYP-liquidity-pool\\truffle\\contracts\\transferContract.sol",
  "compiler": {
    "name": "solc",
    "version": "0.8.20+commit.a1b79de6.Emscripten.clang"
  },
  "schemaVersion": "3.4.16",
  "updatedAt": "2024-04-18T02:48:15.344Z",
  "devdoc": {
    "kind": "dev",
    "methods": {},
    "version": 1
  },
  "userdoc": {
    "kind": "user",
    "methods": {},
    "version": 1
  }
}