{
  "_format": "hh-sol-artifact-1",
  "contractName": "LiquidityPool",
  "sourceName": "contracts/liquiditypool.sol",
  "abi": [
    {
      "inputs": [
        {
          "internalType": "address",
          "name": "_t1",
          "type": "address"
        },
        {
          "internalType": "address",
          "name": "_t2",
          "type": "address"
        },
        {
          "internalType": "address",
          "name": "_lptoken",
          "type": "address"
        }
      ],
      "stateMutability": "nonpayable",
      "type": "constructor"
    },
    {
      "inputs": [
        {
          "internalType": "uint256",
          "name": "_amount1",
          "type": "uint256"
        },
        {
          "internalType": "uint256",
          "name": "_amount2",
          "type": "uint256"
        },
        {
          "internalType": "uint256",
          "name": "slippage",
          "type": "uint256"
        }
      ],
      "name": "addLiquidity",
      "outputs": [
        {
          "internalType": "uint256",
          "name": "shares",
          "type": "uint256"
        }
      ],
      "stateMutability": "nonpayable",
      "type": "function"
    },
    {
      "inputs": [
        {
          "internalType": "uint256",
          "name": "countIn",
          "type": "uint256"
        },
        {
          "internalType": "uint256",
          "name": "inReserve",
          "type": "uint256"
        },
        {
          "internalType": "uint256",
          "name": "outReserve",
          "type": "uint256"
        }
      ],
      "name": "calculateSwap",
      "outputs": [
        {
          "internalType": "uint256",
          "name": "amountOut",
          "type": "uint256"
        }
      ],
      "stateMutability": "pure",
      "type": "function"
    },
    {
      "inputs": [],
      "name": "callToken",
      "outputs": [
        {
          "internalType": "uint256",
          "name": "",
          "type": "uint256"
        }
      ],
      "stateMutability": "view",
      "type": "function"
    },
    {
      "inputs": [],
      "name": "lockPeriod",
      "outputs": [
        {
          "internalType": "uint256",
          "name": "",
          "type": "uint256"
        }
      ],
      "stateMutability": "view",
      "type": "function"
    },
    {
      "inputs": [],
      "name": "lptoken",
      "outputs": [
        {
          "internalType": "contract LpToken",
          "name": "",
          "type": "address"
        }
      ],
      "stateMutability": "view",
      "type": "function"
    },
    {
      "inputs": [
        {
          "internalType": "uint256",
          "name": "_shareCount",
          "type": "uint256"
        }
      ],
      "name": "removeLiquidity",
      "outputs": [
        {
          "internalType": "uint256",
          "name": "token1Amount",
          "type": "uint256"
        },
        {
          "internalType": "uint256",
          "name": "token2Amount",
          "type": "uint256"
        }
      ],
      "stateMutability": "nonpayable",
      "type": "function"
    },
    {
      "inputs": [
        {
          "internalType": "address",
          "name": "_LPToken",
          "type": "address"
        }
      ],
      "name": "setLPTokenAddress",
      "outputs": [],
      "stateMutability": "nonpayable",
      "type": "function"
    },
    {
      "inputs": [
        {
          "internalType": "address",
          "name": "_token",
          "type": "address"
        },
        {
          "internalType": "uint256",
          "name": "countIn",
          "type": "uint256"
        },
        {
          "internalType": "uint256",
          "name": "slippage_minimum",
          "type": "uint256"
        }
      ],
      "name": "slippage_swap",
      "outputs": [
        {
          "internalType": "bool",
          "name": "success",
          "type": "bool"
        }
      ],
      "stateMutability": "nonpayable",
      "type": "function"
    },
    {
      "inputs": [
        {
          "internalType": "address",
          "name": "_token",
          "type": "address"
        },
        {
          "internalType": "uint256",
          "name": "countIn",
          "type": "uint256"
        }
      ],
      "name": "swap",
      "outputs": [
        {
          "internalType": "uint256",
          "name": "amountOut",
          "type": "uint256"
        }
      ],
      "stateMutability": "nonpayable",
      "type": "function"
    },
    {
      "inputs": [],
      "name": "token1",
      "outputs": [
        {
          "internalType": "contract ERC20",
          "name": "",
          "type": "address"
        }
      ],
      "stateMutability": "view",
      "type": "function"
    },
    {
      "inputs": [],
      "name": "token1_reserve",
      "outputs": [
        {
          "internalType": "uint256",
          "name": "",
          "type": "uint256"
        }
      ],
      "stateMutability": "view",
      "type": "function"
    },
    {
      "inputs": [],
      "name": "token2",
      "outputs": [
        {
          "internalType": "contract ERC20",
          "name": "",
          "type": "address"
        }
      ],
      "stateMutability": "view",
      "type": "function"
    },
    {
      "inputs": [],
      "name": "token2_reserve",
      "outputs": [
        {
          "internalType": "uint256",
          "name": "",
          "type": "uint256"
        }
      ],
      "stateMutability": "view",
      "type": "function"
    }
  ],
  "bytecode": "0x6080604052601e600055600060065560006007553480156200002057600080fd5b506040516200279b3803806200279b83398181016040528101906200004691906200017c565b82600460006101000a81548173ffffffffffffffffffffffffffffffffffffffff021916908373ffffffffffffffffffffffffffffffffffffffff16021790555081600560006101000a81548173ffffffffffffffffffffffffffffffffffffffff021916908373ffffffffffffffffffffffffffffffffffffffff16021790555080600360006101000a81548173ffffffffffffffffffffffffffffffffffffffff021916908373ffffffffffffffffffffffffffffffffffffffff160217905550505050620001d8565b600080fd5b600073ffffffffffffffffffffffffffffffffffffffff82169050919050565b6000620001448262000117565b9050919050565b620001568162000137565b81146200016257600080fd5b50565b60008151905062000176816200014b565b92915050565b60008060006060848603121562000198576200019762000112565b5b6000620001a88682870162000165565b9350506020620001bb8682870162000165565b9250506040620001ce8682870162000165565b9150509250925092565b6125b380620001e86000396000f3fe608060405234801561001057600080fd5b50600436106100cf5760003560e01c8063c773aab41161008c578063de93166211610066578063de9316621461022b578063ec6341b314610249578063f363393b14610279578063f42ebbe014610297576100cf565b8063c773aab4146101ad578063d004f0f7146101dd578063d21220a71461020d576100cf565b806325be124e146100d45780633fd8b02f146100f2578063422f1043146101105780634be6ab3414610140578063554243081461015e5780639c8f9f231461017c575b600080fd5b6100dc6102b3565b6040516100e99190611d55565b60405180910390f35b6100fa6102d9565b6040516101079190611d89565b60405180910390f35b61012a60048036038101906101259190611dd5565b6102df565b6040516101379190611d89565b60405180910390f35b610148610716565b6040516101559190611d89565b60405180910390f35b61016661071c565b6040516101739190611d89565b60405180910390f35b61019660048036038101906101919190611e28565b610722565b6040516101a4929190611e55565b60405180910390f35b6101c760048036038101906101c29190611ebc565b610d76565b6040516101d49190611f2a565b60405180910390f35b6101f760048036038101906101f29190611f45565b61120b565b6040516102049190611d89565b60405180910390f35b610215611655565b6040516102229190611d55565b60405180910390f35b61023361167b565b6040516102409190611d89565b60405180910390f35b610263600480360381019061025e9190611dd5565b611718565b6040516102709190611d89565b60405180910390f35b610281611764565b60405161028e9190611fa6565b60405180910390f35b6102b160048036038101906102ac9190611fc1565b61178a565b005b600560009054906101000a900473ffffffffffffffffffffffffffffffffffffffff1681565b60005481565b600080841180156102f05750600083115b6102f957600080fd5b6000600654118061030c57506000600754115b15610347576006548361031f919061201d565b6007548561032d919061201d565b146103465761033d8484846117ce565b80945081955050505b5b600460009054906101000a900473ffffffffffffffffffffffffffffffffffffffff1673ffffffffffffffffffffffffffffffffffffffff166323b872dd3330876040518463ffffffff1660e01b81526004016103a69392919061206e565b6020604051808303816000875af11580156103c5573d6000803e3d6000fd5b505050506040513d601f19601f820116820180604052508101906103e991906120d1565b50600560009054906101000a900473ffffffffffffffffffffffffffffffffffffffff1673ffffffffffffffffffffffffffffffffffffffff166323b872dd3330866040518463ffffffff1660e01b81526004016104499392919061206e565b6020604051808303816000875af1158015610468573d6000803e3d6000fd5b505050506040513d601f19601f8201168201806040525081019061048c91906120d1565b506000600360009054906101000a900473ffffffffffffffffffffffffffffffffffffffff1673ffffffffffffffffffffffffffffffffffffffff166318160ddd6040518163ffffffff1660e01b8152600401602060405180830381865afa1580156104fc573d6000803e3d6000fd5b505050506040513d601f19601f820116820180604052508101906105209190612113565b9050600081036105455761053e8486610539919061201d565b6118ec565b9150610582565b61057f6006548287610557919061201d565b610561919061216f565b6007548387610570919061201d565b61057a919061216f565b611966565b91505b600082116105c5576040517f08c379a00000000000000000000000000000000000000000000000000000000081526004016105bc90612223565b60405180910390fd5b610705600460009054906101000a900473ffffffffffffffffffffffffffffffffffffffff1673ffffffffffffffffffffffffffffffffffffffff166370a08231306040518263ffffffff1660e01b81526004016106239190612243565b602060405180830381865afa158015610640573d6000803e3d6000fd5b505050506040513d601f19601f820116820180604052508101906106649190612113565b600560009054906101000a900473ffffffffffffffffffffffffffffffffffffffff1673ffffffffffffffffffffffffffffffffffffffff166370a08231306040518263ffffffff1660e01b81526004016106bf9190612243565b602060405180830381865afa1580156106dc573d6000803e3d6000fd5b505050506040513d601f19601f820116820180604052508101906107009190612113565b611980565b61070e82611992565b509392505050565b60065481565b60075481565b6000806000600360009054906101000a900473ffffffffffffffffffffffffffffffffffffffff1673ffffffffffffffffffffffffffffffffffffffff166370a08231336040518263ffffffff1660e01b81526004016107829190612243565b602060405180830381865afa15801561079f573d6000803e3d6000fd5b505050506040513d601f19601f820116820180604052508101906107c39190612113565b905080841115610808576040517f08c379a00000000000000000000000000000000000000000000000000000000081526004016107ff906122d0565b60405180910390fd5b6000600160003373ffffffffffffffffffffffffffffffffffffffff1673ffffffffffffffffffffffffffffffffffffffff1681526020019081526020016000206000015411801561089c5750600160003373ffffffffffffffffffffffffffffffffffffffff1673ffffffffffffffffffffffffffffffffffffffff168152602001908152602001600020600001548411155b6108db576040517f08c379a00000000000000000000000000000000000000000000000000000000081526004016108d29061233c565b60405180910390fd5b6000600360009054906101000a900473ffffffffffffffffffffffffffffffffffffffff1673ffffffffffffffffffffffffffffffffffffffff166318160ddd6040518163ffffffff1660e01b8152600401602060405180830381865afa15801561094a573d6000803e3d6000fd5b505050506040513d601f19601f8201168201806040525081019061096e9190612113565b90506000600460009054906101000a900473ffffffffffffffffffffffffffffffffffffffff1673ffffffffffffffffffffffffffffffffffffffff166370a08231306040518263ffffffff1660e01b81526004016109cd9190612243565b602060405180830381865afa1580156109ea573d6000803e3d6000fd5b505050506040513d601f19601f82011682018060405250810190610a0e9190612113565b90506000600560009054906101000a900473ffffffffffffffffffffffffffffffffffffffff1673ffffffffffffffffffffffffffffffffffffffff166370a08231306040518263ffffffff1660e01b8152600401610a6d9190612243565b602060405180830381865afa158015610a8a573d6000803e3d6000fd5b505050506040513d601f19601f82011682018060405250810190610aae9190612113565b9050828783610abd919061201d565b610ac7919061216f565b9550828782610ad6919061201d565b610ae0919061216f565b9450600460009054906101000a900473ffffffffffffffffffffffffffffffffffffffff1673ffffffffffffffffffffffffffffffffffffffff1663a9059cbb33886040518363ffffffff1660e01b8152600401610b3f92919061235c565b6020604051808303816000875af1158015610b5e573d6000803e3d6000fd5b505050506040513d601f19601f82011682018060405250810190610b8291906120d1565b50600560009054906101000a900473ffffffffffffffffffffffffffffffffffffffff1673ffffffffffffffffffffffffffffffffffffffff1663a9059cbb33876040518363ffffffff1660e01b8152600401610be092919061235c565b6020604051808303816000875af1158015610bff573d6000803e3d6000fd5b505050506040513d601f19601f82011682018060405250810190610c2391906120d1565b50610d64600460009054906101000a900473ffffffffffffffffffffffffffffffffffffffff1673ffffffffffffffffffffffffffffffffffffffff166370a08231306040518263ffffffff1660e01b8152600401610c829190612243565b602060405180830381865afa158015610c9f573d6000803e3d6000fd5b505050506040513d601f19601f82011682018060405250810190610cc39190612113565b600560009054906101000a900473ffffffffffffffffffffffffffffffffffffffff1673ffffffffffffffffffffffffffffffffffffffff166370a08231306040518263ffffffff1660e01b8152600401610d1e9190612243565b602060405180830381865afa158015610d3b573d6000803e3d6000fd5b505050506040513d601f19601f82011682018060405250810190610d5f9190612113565b611980565b610d6d87611bb0565b50505050915091565b600083600460009054906101000a900473ffffffffffffffffffffffffffffffffffffffff1673ffffffffffffffffffffffffffffffffffffffff168173ffffffffffffffffffffffffffffffffffffffff161480610e225750600560009054906101000a900473ffffffffffffffffffffffffffffffffffffffff1673ffffffffffffffffffffffffffffffffffffffff168173ffffffffffffffffffffffffffffffffffffffff16145b610e61576040517f08c379a0000000000000000000000000000000000000000000000000000000008152600401610e58906123d1565b60405180910390fd5b6000600460009054906101000a900473ffffffffffffffffffffffffffffffffffffffff1673ffffffffffffffffffffffffffffffffffffffff168673ffffffffffffffffffffffffffffffffffffffff1614905060008060008084610f1257600560009054906101000a900473ffffffffffffffffffffffffffffffffffffffff16600460009054906101000a900473ffffffffffffffffffffffffffffffffffffffff16600754600654610f5f565b600460009054906101000a900473ffffffffffffffffffffffffffffffffffffffff16600560009054906101000a900473ffffffffffffffffffffffffffffffffffffffff166006546007545b93509350935093506000610f748a8484611718565b905088811015610fb9576040517f08c379a0000000000000000000000000000000000000000000000000000000008152600401610fb090612463565b60405180910390fd5b8473ffffffffffffffffffffffffffffffffffffffff166323b872dd33308d6040518463ffffffff1660e01b8152600401610ff69392919061206e565b6020604051808303816000875af1158015611015573d6000803e3d6000fd5b505050506040513d601f19601f8201168201806040525081019061103991906120d1565b508373ffffffffffffffffffffffffffffffffffffffff1663a9059cbb33836040518363ffffffff1660e01b815260040161107592919061235c565b6020604051808303816000875af1158015611094573d6000803e3d6000fd5b505050506040513d601f19601f820116820180604052508101906110b891906120d1565b506111f9600460009054906101000a900473ffffffffffffffffffffffffffffffffffffffff1673ffffffffffffffffffffffffffffffffffffffff166370a08231306040518263ffffffff1660e01b81526004016111179190612243565b602060405180830381865afa158015611134573d6000803e3d6000fd5b505050506040513d601f19601f820116820180604052508101906111589190612113565b600560009054906101000a900473ffffffffffffffffffffffffffffffffffffffff1673ffffffffffffffffffffffffffffffffffffffff166370a08231306040518263ffffffff1660e01b81526004016111b39190612243565b602060405180830381865afa1580156111d0573d6000803e3d6000fd5b505050506040513d601f19601f820116820180604052508101906111f49190612113565b611980565b60019750505050505050509392505050565b600082600460009054906101000a900473ffffffffffffffffffffffffffffffffffffffff1673ffffffffffffffffffffffffffffffffffffffff168173ffffffffffffffffffffffffffffffffffffffff1614806112b75750600560009054906101000a900473ffffffffffffffffffffffffffffffffffffffff1673ffffffffffffffffffffffffffffffffffffffff168173ffffffffffffffffffffffffffffffffffffffff16145b6112f6576040517f08c379a00000000000000000000000000000000000000000000000000000000081526004016112ed906123d1565b60405180910390fd5b6000600460009054906101000a900473ffffffffffffffffffffffffffffffffffffffff1673ffffffffffffffffffffffffffffffffffffffff168573ffffffffffffffffffffffffffffffffffffffff16149050600080600080846113a757600560009054906101000a900473ffffffffffffffffffffffffffffffffffffffff16600460009054906101000a900473ffffffffffffffffffffffffffffffffffffffff166007546006546113f4565b600460009054906101000a900473ffffffffffffffffffffffffffffffffffffffff16600560009054906101000a900473ffffffffffffffffffffffffffffffffffffffff166006546007545b9350935093509350611407888383611718565b96508373ffffffffffffffffffffffffffffffffffffffff166323b872dd33308b6040518463ffffffff1660e01b81526004016114469392919061206e565b6020604051808303816000875af1158015611465573d6000803e3d6000fd5b505050506040513d601f19601f8201168201806040525081019061148991906120d1565b508273ffffffffffffffffffffffffffffffffffffffff1663a9059cbb33896040518363ffffffff1660e01b81526004016114c592919061235c565b6020604051808303816000875af11580156114e4573d6000803e3d6000fd5b505050506040513d601f19601f8201168201806040525081019061150891906120d1565b50611649600460009054906101000a900473ffffffffffffffffffffffffffffffffffffffff1673ffffffffffffffffffffffffffffffffffffffff166370a08231306040518263ffffffff1660e01b81526004016115679190612243565b602060405180830381865afa158015611584573d6000803e3d6000fd5b505050506040513d601f19601f820116820180604052508101906115a89190612113565b600560009054906101000a900473ffffffffffffffffffffffffffffffffffffffff1673ffffffffffffffffffffffffffffffffffffffff166370a08231306040518263ffffffff1660e01b81526004016116039190612243565b602060405180830381865afa158015611620573d6000803e3d6000fd5b505050506040513d601f19601f820116820180604052508101906116449190612113565b611980565b50505050505092915050565b600460009054906101000a900473ffffffffffffffffffffffffffffffffffffffff1681565b600080600260009054906101000a900473ffffffffffffffffffffffffffffffffffffffff1690508073ffffffffffffffffffffffffffffffffffffffff166318160ddd6040518163ffffffff1660e01b8152600401602060405180830381865afa1580156116ee573d6000803e3d6000fd5b505050506040513d601f19601f820116820180604052508101906117129190612113565b91505090565b6000806103e86103e58661172c919061201d565b611736919061216f565b905080846117449190612483565b8184611750919061201d565b61175a919061216f565b9150509392505050565b600360009054906101000a900473ffffffffffffffffffffffffffffffffffffffff1681565b80600260006101000a81548173ffffffffffffffffffffffffffffffffffffffff021916908373ffffffffffffffffffffffffffffffffffffffff16021790555050565b6000806000600654600754876117e4919061201d565b6117ee919061216f565b905060006127108561271061180391906124b7565b8761180e919061201d565b611818919061216f565b905080821015801561182a5750858211155b1561183c5786829350935050506118e4565b60006007546006548861184f919061201d565b611859919061216f565b905060006127108761271061186e91906124b7565b8a611879919061201d565b611883919061216f565b90508082101580156118955750888211155b156118a957818895509550505050506118e4565b6040517f08c379a00000000000000000000000000000000000000000000000000000000081526004016118db9061255d565b60405180910390fd5b935093915050565b60006003821115611953578190506000600160028461190b919061216f565b6119159190612483565b90505b8181101561194d578091506002818285611932919061216f565b61193c9190612483565b611946919061216f565b9050611918565b50611961565b6000821461196057600190505b5b919050565b6000818311156119765781611978565b825b905092915050565b81600681905550806007819055505050565b60008054426119a19190612483565b90506000600160003373ffffffffffffffffffffffffffffffffffffffff1673ffffffffffffffffffffffffffffffffffffffff168152602001908152602001600020600001541115611ab1576000600160003373ffffffffffffffffffffffffffffffffffffffff1673ffffffffffffffffffffffffffffffffffffffff1681526020019081526020016000206000015483611a3e9190612483565b9050604051806040016040528082815260200183815250600160003373ffffffffffffffffffffffffffffffffffffffff1673ffffffffffffffffffffffffffffffffffffffff168152602001908152602001600020600082015181600001556020820151816001015590505050611b1d565b604051806040016040528083815260200182815250600160003373ffffffffffffffffffffffffffffffffffffffff1673ffffffffffffffffffffffffffffffffffffffff16815260200190815260200160002060008201518160000155602082015181600101559050505b600360009054906101000a900473ffffffffffffffffffffffffffffffffffffffff1673ffffffffffffffffffffffffffffffffffffffff166340c10f1933846040518363ffffffff1660e01b8152600401611b7a92919061235c565b600060405180830381600087803b158015611b9457600080fd5b505af1158015611ba8573d6000803e3d6000fd5b505050505050565b80600160003373ffffffffffffffffffffffffffffffffffffffff1673ffffffffffffffffffffffffffffffffffffffff16815260200190815260200160002060000154611bfe91906124b7565b600160003373ffffffffffffffffffffffffffffffffffffffff1673ffffffffffffffffffffffffffffffffffffffff16815260200190815260200160002060000181905550600360009054906101000a900473ffffffffffffffffffffffffffffffffffffffff1673ffffffffffffffffffffffffffffffffffffffff16639dc29fac33836040518363ffffffff1660e01b8152600401611ca192919061235c565b600060405180830381600087803b158015611cbb57600080fd5b505af1158015611ccf573d6000803e3d6000fd5b5050505050565b600073ffffffffffffffffffffffffffffffffffffffff82169050919050565b6000819050919050565b6000611d1b611d16611d1184611cd6565b611cf6565b611cd6565b9050919050565b6000611d2d82611d00565b9050919050565b6000611d3f82611d22565b9050919050565b611d4f81611d34565b82525050565b6000602082019050611d6a6000830184611d46565b92915050565b6000819050919050565b611d8381611d70565b82525050565b6000602082019050611d9e6000830184611d7a565b92915050565b600080fd5b611db281611d70565b8114611dbd57600080fd5b50565b600081359050611dcf81611da9565b92915050565b600080600060608486031215611dee57611ded611da4565b5b6000611dfc86828701611dc0565b9350506020611e0d86828701611dc0565b9250506040611e1e86828701611dc0565b9150509250925092565b600060208284031215611e3e57611e3d611da4565b5b6000611e4c84828501611dc0565b91505092915050565b6000604082019050611e6a6000830185611d7a565b611e776020830184611d7a565b9392505050565b6000611e8982611cd6565b9050919050565b611e9981611e7e565b8114611ea457600080fd5b50565b600081359050611eb681611e90565b92915050565b600080600060608486031215611ed557611ed4611da4565b5b6000611ee386828701611ea7565b9350506020611ef486828701611dc0565b9250506040611f0586828701611dc0565b9150509250925092565b60008115159050919050565b611f2481611f0f565b82525050565b6000602082019050611f3f6000830184611f1b565b92915050565b60008060408385031215611f5c57611f5b611da4565b5b6000611f6a85828601611ea7565b9250506020611f7b85828601611dc0565b9150509250929050565b6000611f9082611d22565b9050919050565b611fa081611f85565b82525050565b6000602082019050611fbb6000830184611f97565b92915050565b600060208284031215611fd757611fd6611da4565b5b6000611fe584828501611ea7565b91505092915050565b7f4e487b7100000000000000000000000000000000000000000000000000000000600052601160045260246000fd5b600061202882611d70565b915061203383611d70565b925082820261204181611d70565b9150828204841483151761205857612057611fee565b5b5092915050565b61206881611e7e565b82525050565b6000606082019050612083600083018661205f565b612090602083018561205f565b61209d6040830184611d7a565b949350505050565b6120ae81611f0f565b81146120b957600080fd5b50565b6000815190506120cb816120a5565b92915050565b6000602082840312156120e7576120e6611da4565b5b60006120f5848285016120bc565b91505092915050565b60008151905061210d81611da9565b92915050565b60006020828403121561212957612128611da4565b5b6000612137848285016120fe565b91505092915050565b7f4e487b7100000000000000000000000000000000000000000000000000000000600052601260045260246000fd5b600061217a82611d70565b915061218583611d70565b92508261219557612194612140565b5b828204905092915050565b600082825260208201905092915050565b7f4d696e74656420736861726573206d757374206265206772656174657220746860008201527f616e207a65726f00000000000000000000000000000000000000000000000000602082015250565b600061220d6027836121a0565b9150612218826121b1565b604082019050919050565b6000602082019050818103600083015261223c81612200565b9050919050565b6000602082019050612258600083018461205f565b92915050565b7f417474656d7074696e6720746f206275726e20746f6f206d616e79204c50205460008201527f6f6b656e73000000000000000000000000000000000000000000000000000000602082015250565b60006122ba6025836121a0565b91506122c58261225e565b604082019050919050565b600060208201905081810360008301526122e9816122ad565b9050919050565b7f546f6f206561726c7920746f207769746864726177206c697175696469747900600082015250565b6000612326601f836121a0565b9150612331826122f0565b602082019050919050565b6000602082019050818103600083015261235581612319565b9050919050565b6000604082019050612371600083018561205f565b61237e6020830184611d7a565b9392505050565b7f496e76616c696420746f6b656e207479706520666f7220746869732073776170600082015250565b60006123bb6020836121a0565b91506123c682612385565b602082019050919050565b600060208201905081810360008301526123ea816123ae565b9050919050565b7f4f6e2d436861696e2065786368616e67652072617465206973206e6f7420776960008201527f7468696e20736c69707061676520626f756e6473207365742062792075736572602082015250565b600061244d6040836121a0565b9150612458826123f1565b604082019050919050565b6000602082019050818103600083015261247c81612440565b9050919050565b600061248e82611d70565b915061249983611d70565b92508282019050808211156124b1576124b0611fee565b5b92915050565b60006124c282611d70565b91506124cd83611d70565b92508282039050818111156124e5576124e4611fee565b5b92915050565b7f536c69707061676520746f6c6572616e63652065786365656465642c2061646a60008201527f757374206c697175696469747920616d6f756e74730000000000000000000000602082015250565b60006125476035836121a0565b9150612552826124eb565b604082019050919050565b600060208201905081810360008301526125768161253a565b905091905056fea264697066735822122001ba09ed99f3f535705a0fa58edab32c5a863ced1a8d95dc4d2be1b7037078ff64736f6c63430008140033",
  "linkReferences": {},
  "deployedLinkReferences": {}
}