{
  "_format": "hh-sol-artifact-1",
  "contractName": "LiquidityPool",
  "sourceName": "contracts/liquiditypool.sol",
  "abi": [
    {
      "inputs": [
        {
          "internalType": "address",
          "name": "_t1",
          "type": "address"
        },
        {
          "internalType": "address",
          "name": "_t2",
          "type": "address"
        },
        {
          "internalType": "address",
          "name": "_lptoken",
          "type": "address"
        }
      ],
      "stateMutability": "nonpayable",
      "type": "constructor"
    },
    {
      "inputs": [
        {
          "internalType": "uint256",
          "name": "_amount1",
          "type": "uint256"
        },
        {
          "internalType": "uint256",
          "name": "_amount2",
          "type": "uint256"
        },
        {
          "internalType": "uint256",
          "name": "slippage",
          "type": "uint256"
        }
      ],
      "name": "addLiquidity",
      "outputs": [
        {
          "internalType": "uint256",
          "name": "shares",
          "type": "uint256"
        }
      ],
      "stateMutability": "nonpayable",
      "type": "function"
    },
    {
      "inputs": [],
      "name": "callToken",
      "outputs": [
        {
          "internalType": "uint256",
          "name": "",
          "type": "uint256"
        }
      ],
      "stateMutability": "view",
      "type": "function"
    },
    {
      "inputs": [],
      "name": "lockPeriod",
      "outputs": [
        {
          "internalType": "uint256",
          "name": "",
          "type": "uint256"
        }
      ],
      "stateMutability": "view",
      "type": "function"
    },
    {
      "inputs": [],
      "name": "lptoken",
      "outputs": [
        {
          "internalType": "contract LpToken",
          "name": "",
          "type": "address"
        }
      ],
      "stateMutability": "view",
      "type": "function"
    },
    {
      "inputs": [
        {
          "internalType": "uint256",
          "name": "_shareCount",
          "type": "uint256"
        }
      ],
      "name": "removeLiquidity",
      "outputs": [
        {
          "internalType": "uint256",
          "name": "token1Amount",
          "type": "uint256"
        },
        {
          "internalType": "uint256",
          "name": "token2Amount",
          "type": "uint256"
        }
      ],
      "stateMutability": "nonpayable",
      "type": "function"
    },
    {
      "inputs": [
        {
          "internalType": "address",
          "name": "_LPToken",
          "type": "address"
        }
      ],
      "name": "setLPTokenAddress",
      "outputs": [],
      "stateMutability": "nonpayable",
      "type": "function"
    },
    {
      "inputs": [
        {
          "internalType": "address",
          "name": "_token",
          "type": "address"
        },
        {
          "internalType": "uint256",
          "name": "countIn",
          "type": "uint256"
        },
        {
          "internalType": "uint256",
          "name": "slippage_minimum",
          "type": "uint256"
        }
      ],
      "name": "slippage_swap",
      "outputs": [
        {
          "internalType": "bool",
          "name": "success",
          "type": "bool"
        }
      ],
      "stateMutability": "nonpayable",
      "type": "function"
    },
    {
      "inputs": [
        {
          "internalType": "address",
          "name": "_token",
          "type": "address"
        },
        {
          "internalType": "uint256",
          "name": "countIn",
          "type": "uint256"
        }
      ],
      "name": "swap",
      "outputs": [
        {
          "internalType": "uint256",
          "name": "amountOut",
          "type": "uint256"
        }
      ],
      "stateMutability": "nonpayable",
      "type": "function"
    },
    {
      "inputs": [],
      "name": "token1",
      "outputs": [
        {
          "internalType": "contract ERC20",
          "name": "",
          "type": "address"
        }
      ],
      "stateMutability": "view",
      "type": "function"
    },
    {
      "inputs": [],
      "name": "token1_reserve",
      "outputs": [
        {
          "internalType": "uint256",
          "name": "",
          "type": "uint256"
        }
      ],
      "stateMutability": "view",
      "type": "function"
    },
    {
      "inputs": [],
      "name": "token2",
      "outputs": [
        {
          "internalType": "contract ERC20",
          "name": "",
          "type": "address"
        }
      ],
      "stateMutability": "view",
      "type": "function"
    },
    {
      "inputs": [],
      "name": "token2_reserve",
      "outputs": [
        {
          "internalType": "uint256",
          "name": "",
          "type": "uint256"
        }
      ],
      "stateMutability": "view",
      "type": "function"
    }
  ],
  "bytecode": "0x6080604052601e600055600060065560006007553480156200002057600080fd5b50604051620027503803806200275083398181016040528101906200004691906200017c565b82600460006101000a81548173ffffffffffffffffffffffffffffffffffffffff021916908373ffffffffffffffffffffffffffffffffffffffff16021790555081600560006101000a81548173ffffffffffffffffffffffffffffffffffffffff021916908373ffffffffffffffffffffffffffffffffffffffff16021790555080600360006101000a81548173ffffffffffffffffffffffffffffffffffffffff021916908373ffffffffffffffffffffffffffffffffffffffff160217905550505050620001d8565b600080fd5b600073ffffffffffffffffffffffffffffffffffffffff82169050919050565b6000620001448262000117565b9050919050565b620001568162000137565b81146200016257600080fd5b50565b60008151905062000176816200014b565b92915050565b60008060006060848603121562000198576200019762000112565b5b6000620001a88682870162000165565b9350506020620001bb8682870162000165565b9250506040620001ce8682870162000165565b9150509250925092565b61256880620001e86000396000f3fe608060405234801561001057600080fd5b50600436106100b45760003560e01c8063c773aab411610071578063c773aab414610192578063d004f0f7146101c2578063d21220a7146101f2578063de93166214610210578063f363393b1461022e578063f42ebbe01461024c576100b4565b806325be124e146100b95780633fd8b02f146100d7578063422f1043146100f55780634be6ab341461012557806355424308146101435780639c8f9f2314610161575b600080fd5b6100c1610268565b6040516100ce9190611d0a565b60405180910390f35b6100df61028e565b6040516100ec9190611d3e565b60405180910390f35b61010f600480360381019061010a9190611d8a565b610294565b60405161011c9190611d3e565b60405180910390f35b61012d6106cb565b60405161013a9190611d3e565b60405180910390f35b61014b6106d1565b6040516101589190611d3e565b60405180910390f35b61017b60048036038101906101769190611ddd565b6106d7565b604051610189929190611e0a565b60405180910390f35b6101ac60048036038101906101a79190611e71565b610d2b565b6040516101b99190611edf565b60405180910390f35b6101dc60048036038101906101d79190611efa565b6111c0565b6040516101e99190611d3e565b60405180910390f35b6101fa61160a565b6040516102079190611d0a565b60405180910390f35b610218611630565b6040516102259190611d3e565b60405180910390f35b6102366116cd565b6040516102439190611f5b565b60405180910390f35b61026660048036038101906102619190611f76565b6116f3565b005b600560009054906101000a900473ffffffffffffffffffffffffffffffffffffffff1681565b60005481565b600080841180156102a55750600083115b6102ae57600080fd5b600060065411806102c157506000600754115b156102fc57600654836102d49190611fd2565b600754856102e29190611fd2565b146102fb576102f2848484611737565b80945081955050505b5b600460009054906101000a900473ffffffffffffffffffffffffffffffffffffffff1673ffffffffffffffffffffffffffffffffffffffff166323b872dd3330876040518463ffffffff1660e01b815260040161035b93929190612023565b6020604051808303816000875af115801561037a573d6000803e3d6000fd5b505050506040513d601f19601f8201168201806040525081019061039e9190612086565b50600560009054906101000a900473ffffffffffffffffffffffffffffffffffffffff1673ffffffffffffffffffffffffffffffffffffffff166323b872dd3330866040518463ffffffff1660e01b81526004016103fe93929190612023565b6020604051808303816000875af115801561041d573d6000803e3d6000fd5b505050506040513d601f19601f820116820180604052508101906104419190612086565b506000600360009054906101000a900473ffffffffffffffffffffffffffffffffffffffff1673ffffffffffffffffffffffffffffffffffffffff166318160ddd6040518163ffffffff1660e01b8152600401602060405180830381865afa1580156104b1573d6000803e3d6000fd5b505050506040513d601f19601f820116820180604052508101906104d591906120c8565b9050600081036104fa576104f384866104ee9190611fd2565b611855565b9150610537565b610534600654828761050c9190611fd2565b6105169190612124565b60075483876105259190611fd2565b61052f9190612124565b6118cf565b91505b6000821161057a576040517f08c379a0000000000000000000000000000000000000000000000000000000008152600401610571906121d8565b60405180910390fd5b6106ba600460009054906101000a900473ffffffffffffffffffffffffffffffffffffffff1673ffffffffffffffffffffffffffffffffffffffff166370a08231306040518263ffffffff1660e01b81526004016105d891906121f8565b602060405180830381865afa1580156105f5573d6000803e3d6000fd5b505050506040513d601f19601f8201168201806040525081019061061991906120c8565b600560009054906101000a900473ffffffffffffffffffffffffffffffffffffffff1673ffffffffffffffffffffffffffffffffffffffff166370a08231306040518263ffffffff1660e01b815260040161067491906121f8565b602060405180830381865afa158015610691573d6000803e3d6000fd5b505050506040513d601f19601f820116820180604052508101906106b591906120c8565b6118e9565b6106c3826118fb565b509392505050565b60065481565b60075481565b6000806000600360009054906101000a900473ffffffffffffffffffffffffffffffffffffffff1673ffffffffffffffffffffffffffffffffffffffff166370a08231336040518263ffffffff1660e01b815260040161073791906121f8565b602060405180830381865afa158015610754573d6000803e3d6000fd5b505050506040513d601f19601f8201168201806040525081019061077891906120c8565b9050808411156107bd576040517f08c379a00000000000000000000000000000000000000000000000000000000081526004016107b490612285565b60405180910390fd5b6000600160003373ffffffffffffffffffffffffffffffffffffffff1673ffffffffffffffffffffffffffffffffffffffff168152602001908152602001600020600001541180156108515750600160003373ffffffffffffffffffffffffffffffffffffffff1673ffffffffffffffffffffffffffffffffffffffff168152602001908152602001600020600001548411155b610890576040517f08c379a0000000000000000000000000000000000000000000000000000000008152600401610887906122f1565b60405180910390fd5b6000600360009054906101000a900473ffffffffffffffffffffffffffffffffffffffff1673ffffffffffffffffffffffffffffffffffffffff166318160ddd6040518163ffffffff1660e01b8152600401602060405180830381865afa1580156108ff573d6000803e3d6000fd5b505050506040513d601f19601f8201168201806040525081019061092391906120c8565b90506000600460009054906101000a900473ffffffffffffffffffffffffffffffffffffffff1673ffffffffffffffffffffffffffffffffffffffff166370a08231306040518263ffffffff1660e01b815260040161098291906121f8565b602060405180830381865afa15801561099f573d6000803e3d6000fd5b505050506040513d601f19601f820116820180604052508101906109c391906120c8565b90506000600560009054906101000a900473ffffffffffffffffffffffffffffffffffffffff1673ffffffffffffffffffffffffffffffffffffffff166370a08231306040518263ffffffff1660e01b8152600401610a2291906121f8565b602060405180830381865afa158015610a3f573d6000803e3d6000fd5b505050506040513d601f19601f82011682018060405250810190610a6391906120c8565b9050828783610a729190611fd2565b610a7c9190612124565b9550828782610a8b9190611fd2565b610a959190612124565b9450600460009054906101000a900473ffffffffffffffffffffffffffffffffffffffff1673ffffffffffffffffffffffffffffffffffffffff1663a9059cbb33886040518363ffffffff1660e01b8152600401610af4929190612311565b6020604051808303816000875af1158015610b13573d6000803e3d6000fd5b505050506040513d601f19601f82011682018060405250810190610b379190612086565b50600560009054906101000a900473ffffffffffffffffffffffffffffffffffffffff1673ffffffffffffffffffffffffffffffffffffffff1663a9059cbb33876040518363ffffffff1660e01b8152600401610b95929190612311565b6020604051808303816000875af1158015610bb4573d6000803e3d6000fd5b505050506040513d601f19601f82011682018060405250810190610bd89190612086565b50610d19600460009054906101000a900473ffffffffffffffffffffffffffffffffffffffff1673ffffffffffffffffffffffffffffffffffffffff166370a08231306040518263ffffffff1660e01b8152600401610c3791906121f8565b602060405180830381865afa158015610c54573d6000803e3d6000fd5b505050506040513d601f19601f82011682018060405250810190610c7891906120c8565b600560009054906101000a900473ffffffffffffffffffffffffffffffffffffffff1673ffffffffffffffffffffffffffffffffffffffff166370a08231306040518263ffffffff1660e01b8152600401610cd391906121f8565b602060405180830381865afa158015610cf0573d6000803e3d6000fd5b505050506040513d601f19601f82011682018060405250810190610d1491906120c8565b6118e9565b610d2287611b19565b50505050915091565b600083600460009054906101000a900473ffffffffffffffffffffffffffffffffffffffff1673ffffffffffffffffffffffffffffffffffffffff168173ffffffffffffffffffffffffffffffffffffffff161480610dd75750600560009054906101000a900473ffffffffffffffffffffffffffffffffffffffff1673ffffffffffffffffffffffffffffffffffffffff168173ffffffffffffffffffffffffffffffffffffffff16145b610e16576040517f08c379a0000000000000000000000000000000000000000000000000000000008152600401610e0d90612386565b60405180910390fd5b6000600460009054906101000a900473ffffffffffffffffffffffffffffffffffffffff1673ffffffffffffffffffffffffffffffffffffffff168673ffffffffffffffffffffffffffffffffffffffff1614905060008060008084610ec757600560009054906101000a900473ffffffffffffffffffffffffffffffffffffffff16600460009054906101000a900473ffffffffffffffffffffffffffffffffffffffff16600754600654610f14565b600460009054906101000a900473ffffffffffffffffffffffffffffffffffffffff16600560009054906101000a900473ffffffffffffffffffffffffffffffffffffffff166006546007545b93509350935093506000610f298a8484611c3f565b905088811015610f6e576040517f08c379a0000000000000000000000000000000000000000000000000000000008152600401610f6590612418565b60405180910390fd5b8473ffffffffffffffffffffffffffffffffffffffff166323b872dd33308d6040518463ffffffff1660e01b8152600401610fab93929190612023565b6020604051808303816000875af1158015610fca573d6000803e3d6000fd5b505050506040513d601f19601f82011682018060405250810190610fee9190612086565b508373ffffffffffffffffffffffffffffffffffffffff1663a9059cbb33836040518363ffffffff1660e01b815260040161102a929190612311565b6020604051808303816000875af1158015611049573d6000803e3d6000fd5b505050506040513d601f19601f8201168201806040525081019061106d9190612086565b506111ae600460009054906101000a900473ffffffffffffffffffffffffffffffffffffffff1673ffffffffffffffffffffffffffffffffffffffff166370a08231306040518263ffffffff1660e01b81526004016110cc91906121f8565b602060405180830381865afa1580156110e9573d6000803e3d6000fd5b505050506040513d601f19601f8201168201806040525081019061110d91906120c8565b600560009054906101000a900473ffffffffffffffffffffffffffffffffffffffff1673ffffffffffffffffffffffffffffffffffffffff166370a08231306040518263ffffffff1660e01b815260040161116891906121f8565b602060405180830381865afa158015611185573d6000803e3d6000fd5b505050506040513d601f19601f820116820180604052508101906111a991906120c8565b6118e9565b60019750505050505050509392505050565b600082600460009054906101000a900473ffffffffffffffffffffffffffffffffffffffff1673ffffffffffffffffffffffffffffffffffffffff168173ffffffffffffffffffffffffffffffffffffffff16148061126c5750600560009054906101000a900473ffffffffffffffffffffffffffffffffffffffff1673ffffffffffffffffffffffffffffffffffffffff168173ffffffffffffffffffffffffffffffffffffffff16145b6112ab576040517f08c379a00000000000000000000000000000000000000000000000000000000081526004016112a290612386565b60405180910390fd5b6000600460009054906101000a900473ffffffffffffffffffffffffffffffffffffffff1673ffffffffffffffffffffffffffffffffffffffff168573ffffffffffffffffffffffffffffffffffffffff161490506000806000808461135c57600560009054906101000a900473ffffffffffffffffffffffffffffffffffffffff16600460009054906101000a900473ffffffffffffffffffffffffffffffffffffffff166007546006546113a9565b600460009054906101000a900473ffffffffffffffffffffffffffffffffffffffff16600560009054906101000a900473ffffffffffffffffffffffffffffffffffffffff166006546007545b93509350935093506113bc888383611c3f565b96508373ffffffffffffffffffffffffffffffffffffffff166323b872dd33308b6040518463ffffffff1660e01b81526004016113fb93929190612023565b6020604051808303816000875af115801561141a573d6000803e3d6000fd5b505050506040513d601f19601f8201168201806040525081019061143e9190612086565b508273ffffffffffffffffffffffffffffffffffffffff1663a9059cbb33896040518363ffffffff1660e01b815260040161147a929190612311565b6020604051808303816000875af1158015611499573d6000803e3d6000fd5b505050506040513d601f19601f820116820180604052508101906114bd9190612086565b506115fe600460009054906101000a900473ffffffffffffffffffffffffffffffffffffffff1673ffffffffffffffffffffffffffffffffffffffff166370a08231306040518263ffffffff1660e01b815260040161151c91906121f8565b602060405180830381865afa158015611539573d6000803e3d6000fd5b505050506040513d601f19601f8201168201806040525081019061155d91906120c8565b600560009054906101000a900473ffffffffffffffffffffffffffffffffffffffff1673ffffffffffffffffffffffffffffffffffffffff166370a08231306040518263ffffffff1660e01b81526004016115b891906121f8565b602060405180830381865afa1580156115d5573d6000803e3d6000fd5b505050506040513d601f19601f820116820180604052508101906115f991906120c8565b6118e9565b50505050505092915050565b600460009054906101000a900473ffffffffffffffffffffffffffffffffffffffff1681565b600080600260009054906101000a900473ffffffffffffffffffffffffffffffffffffffff1690508073ffffffffffffffffffffffffffffffffffffffff166318160ddd6040518163ffffffff1660e01b8152600401602060405180830381865afa1580156116a3573d6000803e3d6000fd5b505050506040513d601f19601f820116820180604052508101906116c791906120c8565b91505090565b600360009054906101000a900473ffffffffffffffffffffffffffffffffffffffff1681565b80600260006101000a81548173ffffffffffffffffffffffffffffffffffffffff021916908373ffffffffffffffffffffffffffffffffffffffff16021790555050565b60008060006006546007548761174d9190611fd2565b6117579190612124565b905060006127108561271061176c9190612438565b876117779190611fd2565b6117819190612124565b90508082101580156117935750858211155b156117a557868293509350505061184d565b6000600754600654886117b89190611fd2565b6117c29190612124565b90506000612710876127106117d79190612438565b8a6117e29190611fd2565b6117ec9190612124565b90508082101580156117fe5750888211155b15611812578188955095505050505061184d565b6040517f08c379a0000000000000000000000000000000000000000000000000000000008152600401611844906124de565b60405180910390fd5b935093915050565b600060038211156118bc57819050600060016002846118749190612124565b61187e91906124fe565b90505b818110156118b657809150600281828561189b9190612124565b6118a591906124fe565b6118af9190612124565b9050611881565b506118ca565b600082146118c957600190505b5b919050565b6000818311156118df57816118e1565b825b905092915050565b81600681905550806007819055505050565b600080544261190a91906124fe565b90506000600160003373ffffffffffffffffffffffffffffffffffffffff1673ffffffffffffffffffffffffffffffffffffffff168152602001908152602001600020600001541115611a1a576000600160003373ffffffffffffffffffffffffffffffffffffffff1673ffffffffffffffffffffffffffffffffffffffff16815260200190815260200160002060000154836119a791906124fe565b9050604051806040016040528082815260200183815250600160003373ffffffffffffffffffffffffffffffffffffffff1673ffffffffffffffffffffffffffffffffffffffff168152602001908152602001600020600082015181600001556020820151816001015590505050611a86565b604051806040016040528083815260200182815250600160003373ffffffffffffffffffffffffffffffffffffffff1673ffffffffffffffffffffffffffffffffffffffff16815260200190815260200160002060008201518160000155602082015181600101559050505b600360009054906101000a900473ffffffffffffffffffffffffffffffffffffffff1673ffffffffffffffffffffffffffffffffffffffff166340c10f1933846040518363ffffffff1660e01b8152600401611ae3929190612311565b600060405180830381600087803b158015611afd57600080fd5b505af1158015611b11573d6000803e3d6000fd5b505050505050565b80600160003373ffffffffffffffffffffffffffffffffffffffff1673ffffffffffffffffffffffffffffffffffffffff16815260200190815260200160002060000154611b679190612438565b600160003373ffffffffffffffffffffffffffffffffffffffff1673ffffffffffffffffffffffffffffffffffffffff16815260200190815260200160002060000181905550600360009054906101000a900473ffffffffffffffffffffffffffffffffffffffff1673ffffffffffffffffffffffffffffffffffffffff16639dc29fac33836040518363ffffffff1660e01b8152600401611c0a929190612311565b600060405180830381600087803b158015611c2457600080fd5b505af1158015611c38573d6000803e3d6000fd5b5050505050565b6000806103e86103e586611c539190611fd2565b611c5d9190612124565b90508084611c6b91906124fe565b8184611c779190611fd2565b611c819190612124565b9150509392505050565b600073ffffffffffffffffffffffffffffffffffffffff82169050919050565b6000819050919050565b6000611cd0611ccb611cc684611c8b565b611cab565b611c8b565b9050919050565b6000611ce282611cb5565b9050919050565b6000611cf482611cd7565b9050919050565b611d0481611ce9565b82525050565b6000602082019050611d1f6000830184611cfb565b92915050565b6000819050919050565b611d3881611d25565b82525050565b6000602082019050611d536000830184611d2f565b92915050565b600080fd5b611d6781611d25565b8114611d7257600080fd5b50565b600081359050611d8481611d5e565b92915050565b600080600060608486031215611da357611da2611d59565b5b6000611db186828701611d75565b9350506020611dc286828701611d75565b9250506040611dd386828701611d75565b9150509250925092565b600060208284031215611df357611df2611d59565b5b6000611e0184828501611d75565b91505092915050565b6000604082019050611e1f6000830185611d2f565b611e2c6020830184611d2f565b9392505050565b6000611e3e82611c8b565b9050919050565b611e4e81611e33565b8114611e5957600080fd5b50565b600081359050611e6b81611e45565b92915050565b600080600060608486031215611e8a57611e89611d59565b5b6000611e9886828701611e5c565b9350506020611ea986828701611d75565b9250506040611eba86828701611d75565b9150509250925092565b60008115159050919050565b611ed981611ec4565b82525050565b6000602082019050611ef46000830184611ed0565b92915050565b60008060408385031215611f1157611f10611d59565b5b6000611f1f85828601611e5c565b9250506020611f3085828601611d75565b9150509250929050565b6000611f4582611cd7565b9050919050565b611f5581611f3a565b82525050565b6000602082019050611f706000830184611f4c565b92915050565b600060208284031215611f8c57611f8b611d59565b5b6000611f9a84828501611e5c565b91505092915050565b7f4e487b7100000000000000000000000000000000000000000000000000000000600052601160045260246000fd5b6000611fdd82611d25565b9150611fe883611d25565b9250828202611ff681611d25565b9150828204841483151761200d5761200c611fa3565b5b5092915050565b61201d81611e33565b82525050565b60006060820190506120386000830186612014565b6120456020830185612014565b6120526040830184611d2f565b949350505050565b61206381611ec4565b811461206e57600080fd5b50565b6000815190506120808161205a565b92915050565b60006020828403121561209c5761209b611d59565b5b60006120aa84828501612071565b91505092915050565b6000815190506120c281611d5e565b92915050565b6000602082840312156120de576120dd611d59565b5b60006120ec848285016120b3565b91505092915050565b7f4e487b7100000000000000000000000000000000000000000000000000000000600052601260045260246000fd5b600061212f82611d25565b915061213a83611d25565b92508261214a576121496120f5565b5b828204905092915050565b600082825260208201905092915050565b7f4d696e74656420736861726573206d757374206265206772656174657220746860008201527f616e207a65726f00000000000000000000000000000000000000000000000000602082015250565b60006121c2602783612155565b91506121cd82612166565b604082019050919050565b600060208201905081810360008301526121f1816121b5565b9050919050565b600060208201905061220d6000830184612014565b92915050565b7f417474656d7074696e6720746f206275726e20746f6f206d616e79204c50205460008201527f6f6b656e73000000000000000000000000000000000000000000000000000000602082015250565b600061226f602583612155565b915061227a82612213565b604082019050919050565b6000602082019050818103600083015261229e81612262565b9050919050565b7f546f6f206561726c7920746f207769746864726177206c697175696469747900600082015250565b60006122db601f83612155565b91506122e6826122a5565b602082019050919050565b6000602082019050818103600083015261230a816122ce565b9050919050565b60006040820190506123266000830185612014565b6123336020830184611d2f565b9392505050565b7f496e76616c696420746f6b656e207479706520666f7220746869732073776170600082015250565b6000612370602083612155565b915061237b8261233a565b602082019050919050565b6000602082019050818103600083015261239f81612363565b9050919050565b7f4f6e2d436861696e2065786368616e67652072617465206973206e6f7420776960008201527f7468696e20736c69707061676520626f756e6473207365742062792075736572602082015250565b6000612402604083612155565b915061240d826123a6565b604082019050919050565b60006020820190508181036000830152612431816123f5565b9050919050565b600061244382611d25565b915061244e83611d25565b925082820390508181111561246657612465611fa3565b5b92915050565b7f536c69707061676520746f6c6572616e63652065786365656465642c2061646a60008201527f757374206c697175696469747920616d6f756e74730000000000000000000000602082015250565b60006124c8603583612155565b91506124d38261246c565b604082019050919050565b600060208201905081810360008301526124f7816124bb565b9050919050565b600061250982611d25565b915061251483611d25565b925082820190508082111561252c5761252b611fa3565b5b9291505056fea2646970667358221220ba2a926f0f7e8679632bf2a480700e8afc72663e424fbaee9756c54fa9829f4964736f6c63430008140033",
  "linkReferences": {},
  "deployedLinkReferences": {}
}