{
  "_format": "hh-sol-artifact-1",
  "contractName": "LiquidityPool",
  "sourceName": "contracts/liquiditypool.sol",
  "abi": [
    {
      "inputs": [
        {
          "internalType": "address",
          "name": "_t1",
          "type": "address"
        },
        {
          "internalType": "address",
          "name": "_t2",
          "type": "address"
        },
        {
          "internalType": "address",
          "name": "_lptoken",
          "type": "address"
        }
      ],
      "stateMutability": "nonpayable",
      "type": "constructor"
    },
    {
      "inputs": [
        {
          "internalType": "uint256",
          "name": "_amount1",
          "type": "uint256"
        },
        {
          "internalType": "uint256",
          "name": "_amount2",
          "type": "uint256"
        },
        {
          "internalType": "uint256",
          "name": "slippage",
          "type": "uint256"
        }
      ],
      "name": "addLiquidity",
      "outputs": [
        {
          "internalType": "uint256",
          "name": "shares",
          "type": "uint256"
        }
      ],
      "stateMutability": "nonpayable",
      "type": "function"
    },
    {
      "inputs": [
        {
          "internalType": "uint256",
          "name": "countIn",
          "type": "uint256"
        }
      ],
      "name": "amountWithFee",
      "outputs": [
        {
          "internalType": "uint256",
          "name": "",
          "type": "uint256"
        }
      ],
      "stateMutability": "view",
      "type": "function"
    },
    {
      "inputs": [
        {
          "internalType": "uint256",
          "name": "countIn",
          "type": "uint256"
        },
        {
          "internalType": "uint256",
          "name": "inReserve",
          "type": "uint256"
        },
        {
          "internalType": "uint256",
          "name": "outReserve",
          "type": "uint256"
        }
      ],
      "name": "calculateSwap",
      "outputs": [
        {
          "internalType": "uint256",
          "name": "amountOut",
          "type": "uint256"
        }
      ],
      "stateMutability": "pure",
      "type": "function"
    },
    {
      "inputs": [],
      "name": "callToken",
      "outputs": [
        {
          "internalType": "uint256",
          "name": "",
          "type": "uint256"
        }
      ],
      "stateMutability": "view",
      "type": "function"
    },
    {
      "inputs": [],
      "name": "getReserveRatio",
      "outputs": [
        {
          "internalType": "uint256",
          "name": "",
          "type": "uint256"
        }
      ],
      "stateMutability": "view",
      "type": "function"
    },
    {
      "inputs": [],
      "name": "lockPeriod",
      "outputs": [
        {
          "internalType": "uint256",
          "name": "",
          "type": "uint256"
        }
      ],
      "stateMutability": "view",
      "type": "function"
    },
    {
      "inputs": [],
      "name": "lptoken",
      "outputs": [
        {
          "internalType": "contract LpToken",
          "name": "",
          "type": "address"
        }
      ],
      "stateMutability": "view",
      "type": "function"
    },
    {
      "inputs": [
        {
          "internalType": "uint256",
          "name": "_shareCount",
          "type": "uint256"
        }
      ],
      "name": "removeLiquidity",
      "outputs": [
        {
          "internalType": "uint256",
          "name": "token1Amount",
          "type": "uint256"
        },
        {
          "internalType": "uint256",
          "name": "token2Amount",
          "type": "uint256"
        }
      ],
      "stateMutability": "nonpayable",
      "type": "function"
    },
    {
      "inputs": [
        {
          "internalType": "address",
          "name": "_LPToken",
          "type": "address"
        }
      ],
      "name": "setLPTokenAddress",
      "outputs": [],
      "stateMutability": "nonpayable",
      "type": "function"
    },
    {
      "inputs": [
        {
          "internalType": "address",
          "name": "_token",
          "type": "address"
        },
        {
          "internalType": "uint256",
          "name": "countIn",
          "type": "uint256"
        },
        {
          "internalType": "uint256",
          "name": "slippage_minimum",
          "type": "uint256"
        }
      ],
      "name": "slippage_swap",
      "outputs": [
        {
          "internalType": "bool",
          "name": "success",
          "type": "bool"
        }
      ],
      "stateMutability": "nonpayable",
      "type": "function"
    },
    {
      "inputs": [
        {
          "internalType": "address",
          "name": "_token",
          "type": "address"
        },
        {
          "internalType": "uint256",
          "name": "countIn",
          "type": "uint256"
        }
      ],
      "name": "swap",
      "outputs": [
        {
          "internalType": "uint256",
          "name": "amountOut",
          "type": "uint256"
        }
      ],
      "stateMutability": "nonpayable",
      "type": "function"
    },
    {
      "inputs": [],
      "name": "token1",
      "outputs": [
        {
          "internalType": "contract ERC20",
          "name": "",
          "type": "address"
        }
      ],
      "stateMutability": "view",
      "type": "function"
    },
    {
      "inputs": [],
      "name": "token1_reserve",
      "outputs": [
        {
          "internalType": "uint256",
          "name": "",
          "type": "uint256"
        }
      ],
      "stateMutability": "view",
      "type": "function"
    },
    {
      "inputs": [],
      "name": "token2",
      "outputs": [
        {
          "internalType": "contract ERC20",
          "name": "",
          "type": "address"
        }
      ],
      "stateMutability": "view",
      "type": "function"
    },
    {
      "inputs": [],
      "name": "token2_reserve",
      "outputs": [
        {
          "internalType": "uint256",
          "name": "",
          "type": "uint256"
        }
      ],
      "stateMutability": "view",
      "type": "function"
    }
  ],
  "bytecode": "0x6080604052601e60005560006006556000600755670de0b6b3a76400006008553480156200002c57600080fd5b506040516200288a3803806200288a833981810160405281019062000052919062000188565b82600460006101000a81548173ffffffffffffffffffffffffffffffffffffffff021916908373ffffffffffffffffffffffffffffffffffffffff16021790555081600560006101000a81548173ffffffffffffffffffffffffffffffffffffffff021916908373ffffffffffffffffffffffffffffffffffffffff16021790555080600360006101000a81548173ffffffffffffffffffffffffffffffffffffffff021916908373ffffffffffffffffffffffffffffffffffffffff160217905550505050620001e4565b600080fd5b600073ffffffffffffffffffffffffffffffffffffffff82169050919050565b6000620001508262000123565b9050919050565b620001628162000143565b81146200016e57600080fd5b50565b600081519050620001828162000157565b92915050565b600080600060608486031215620001a457620001a36200011e565b5b6000620001b48682870162000171565b9350506020620001c78682870162000171565b9250506040620001da8682870162000171565b9150509250925092565b61269680620001f46000396000f3fe608060405234801561001057600080fd5b50600436106100f55760003560e01c80639c8f9f2311610097578063de93166211610066578063de9316621461029f578063ec6341b3146102bd578063f363393b146102ed578063f42ebbe01461030b576100f5565b80639c8f9f23146101f0578063c773aab414610221578063d004f0f714610251578063d21220a714610281576100f5565b80634be6ab34116100d35780634be6ab3414610166578063554243081461018457806356b6d0d5146101a257806390db9842146101c0576100f5565b806325be124e146100fa5780633fd8b02f14610118578063422f104314610136575b600080fd5b610102610327565b60405161010f9190611e38565b60405180910390f35b61012061034d565b60405161012d9190611e6c565b60405180910390f35b610150600480360381019061014b9190611eb8565b610353565b60405161015d9190611e6c565b60405180910390f35b61016e61078a565b60405161017b9190611e6c565b60405180910390f35b61018c610790565b6040516101999190611e6c565b60405180910390f35b6101aa610796565b6040516101b79190611e6c565b60405180910390f35b6101da60048036038101906101d59190611f0b565b6107dc565b6040516101e79190611e6c565b60405180910390f35b61020a60048036038101906102059190611f0b565b610805565b604051610218929190611f38565b60405180910390f35b61023b60048036038101906102369190611f9f565b610e59565b604051610248919061200d565b60405180910390f35b61026b60048036038101906102669190612028565b6112ee565b6040516102789190611e6c565b60405180910390f35b610289611738565b6040516102969190611e38565b60405180910390f35b6102a761175e565b6040516102b49190611e6c565b60405180910390f35b6102d760048036038101906102d29190611eb8565b6117fb565b6040516102e49190611e6c565b60405180910390f35b6102f5611847565b6040516103029190612089565b60405180910390f35b610325600480360381019061032091906120a4565b61186d565b005b600560009054906101000a900473ffffffffffffffffffffffffffffffffffffffff1681565b60005481565b600080841180156103645750600083115b61036d57600080fd5b6000600654118061038057506000600754115b156103bb57600654836103939190612100565b600754856103a19190612100565b146103ba576103b18484846118b1565b80945081955050505b5b600460009054906101000a900473ffffffffffffffffffffffffffffffffffffffff1673ffffffffffffffffffffffffffffffffffffffff166323b872dd3330876040518463ffffffff1660e01b815260040161041a93929190612151565b6020604051808303816000875af1158015610439573d6000803e3d6000fd5b505050506040513d601f19601f8201168201806040525081019061045d91906121b4565b50600560009054906101000a900473ffffffffffffffffffffffffffffffffffffffff1673ffffffffffffffffffffffffffffffffffffffff166323b872dd3330866040518463ffffffff1660e01b81526004016104bd93929190612151565b6020604051808303816000875af11580156104dc573d6000803e3d6000fd5b505050506040513d601f19601f8201168201806040525081019061050091906121b4565b506000600360009054906101000a900473ffffffffffffffffffffffffffffffffffffffff1673ffffffffffffffffffffffffffffffffffffffff166318160ddd6040518163ffffffff1660e01b8152600401602060405180830381865afa158015610570573d6000803e3d6000fd5b505050506040513d601f19601f8201168201806040525081019061059491906121f6565b9050600081036105b9576105b284866105ad9190612100565b6119cf565b91506105f6565b6105f360065482876105cb9190612100565b6105d59190612252565b60075483876105e49190612100565b6105ee9190612252565b611a49565b91505b60008211610639576040517f08c379a000000000000000000000000000000000000000000000000000000000815260040161063090612306565b60405180910390fd5b610779600460009054906101000a900473ffffffffffffffffffffffffffffffffffffffff1673ffffffffffffffffffffffffffffffffffffffff166370a08231306040518263ffffffff1660e01b81526004016106979190612326565b602060405180830381865afa1580156106b4573d6000803e3d6000fd5b505050506040513d601f19601f820116820180604052508101906106d891906121f6565b600560009054906101000a900473ffffffffffffffffffffffffffffffffffffffff1673ffffffffffffffffffffffffffffffffffffffff166370a08231306040518263ffffffff1660e01b81526004016107339190612326565b602060405180830381865afa158015610750573d6000803e3d6000fd5b505050506040513d601f19601f8201168201806040525081019061077491906121f6565b611a63565b61078282611a75565b509392505050565b60065481565b60075481565b6000806006541180156107ab57506000600754115b6107b457600080fd5b60006006546008546007546107c99190612100565b6107d39190612252565b90508091505090565b6000806103e86103e5846107f09190612100565b6107fa9190612252565b905080915050919050565b6000806000600360009054906101000a900473ffffffffffffffffffffffffffffffffffffffff1673ffffffffffffffffffffffffffffffffffffffff166370a08231336040518263ffffffff1660e01b81526004016108659190612326565b602060405180830381865afa158015610882573d6000803e3d6000fd5b505050506040513d601f19601f820116820180604052508101906108a691906121f6565b9050808411156108eb576040517f08c379a00000000000000000000000000000000000000000000000000000000081526004016108e2906123b3565b60405180910390fd5b6000600160003373ffffffffffffffffffffffffffffffffffffffff1673ffffffffffffffffffffffffffffffffffffffff1681526020019081526020016000206000015411801561097f5750600160003373ffffffffffffffffffffffffffffffffffffffff1673ffffffffffffffffffffffffffffffffffffffff168152602001908152602001600020600001548411155b6109be576040517f08c379a00000000000000000000000000000000000000000000000000000000081526004016109b59061241f565b60405180910390fd5b6000600360009054906101000a900473ffffffffffffffffffffffffffffffffffffffff1673ffffffffffffffffffffffffffffffffffffffff166318160ddd6040518163ffffffff1660e01b8152600401602060405180830381865afa158015610a2d573d6000803e3d6000fd5b505050506040513d601f19601f82011682018060405250810190610a5191906121f6565b90506000600460009054906101000a900473ffffffffffffffffffffffffffffffffffffffff1673ffffffffffffffffffffffffffffffffffffffff166370a08231306040518263ffffffff1660e01b8152600401610ab09190612326565b602060405180830381865afa158015610acd573d6000803e3d6000fd5b505050506040513d601f19601f82011682018060405250810190610af191906121f6565b90506000600560009054906101000a900473ffffffffffffffffffffffffffffffffffffffff1673ffffffffffffffffffffffffffffffffffffffff166370a08231306040518263ffffffff1660e01b8152600401610b509190612326565b602060405180830381865afa158015610b6d573d6000803e3d6000fd5b505050506040513d601f19601f82011682018060405250810190610b9191906121f6565b9050828783610ba09190612100565b610baa9190612252565b9550828782610bb99190612100565b610bc39190612252565b9450600460009054906101000a900473ffffffffffffffffffffffffffffffffffffffff1673ffffffffffffffffffffffffffffffffffffffff1663a9059cbb33886040518363ffffffff1660e01b8152600401610c2292919061243f565b6020604051808303816000875af1158015610c41573d6000803e3d6000fd5b505050506040513d601f19601f82011682018060405250810190610c6591906121b4565b50600560009054906101000a900473ffffffffffffffffffffffffffffffffffffffff1673ffffffffffffffffffffffffffffffffffffffff1663a9059cbb33876040518363ffffffff1660e01b8152600401610cc392919061243f565b6020604051808303816000875af1158015610ce2573d6000803e3d6000fd5b505050506040513d601f19601f82011682018060405250810190610d0691906121b4565b50610e47600460009054906101000a900473ffffffffffffffffffffffffffffffffffffffff1673ffffffffffffffffffffffffffffffffffffffff166370a08231306040518263ffffffff1660e01b8152600401610d659190612326565b602060405180830381865afa158015610d82573d6000803e3d6000fd5b505050506040513d601f19601f82011682018060405250810190610da691906121f6565b600560009054906101000a900473ffffffffffffffffffffffffffffffffffffffff1673ffffffffffffffffffffffffffffffffffffffff166370a08231306040518263ffffffff1660e01b8152600401610e019190612326565b602060405180830381865afa158015610e1e573d6000803e3d6000fd5b505050506040513d601f19601f82011682018060405250810190610e4291906121f6565b611a63565b610e5087611c93565b50505050915091565b600083600460009054906101000a900473ffffffffffffffffffffffffffffffffffffffff1673ffffffffffffffffffffffffffffffffffffffff168173ffffffffffffffffffffffffffffffffffffffff161480610f055750600560009054906101000a900473ffffffffffffffffffffffffffffffffffffffff1673ffffffffffffffffffffffffffffffffffffffff168173ffffffffffffffffffffffffffffffffffffffff16145b610f44576040517f08c379a0000000000000000000000000000000000000000000000000000000008152600401610f3b906124b4565b60405180910390fd5b6000600460009054906101000a900473ffffffffffffffffffffffffffffffffffffffff1673ffffffffffffffffffffffffffffffffffffffff168673ffffffffffffffffffffffffffffffffffffffff1614905060008060008084610ff557600560009054906101000a900473ffffffffffffffffffffffffffffffffffffffff16600460009054906101000a900473ffffffffffffffffffffffffffffffffffffffff16600754600654611042565b600460009054906101000a900473ffffffffffffffffffffffffffffffffffffffff16600560009054906101000a900473ffffffffffffffffffffffffffffffffffffffff166006546007545b935093509350935060006110578a84846117fb565b90508881101561109c576040517f08c379a000000000000000000000000000000000000000000000000000000000815260040161109390612546565b60405180910390fd5b8473ffffffffffffffffffffffffffffffffffffffff166323b872dd33308d6040518463ffffffff1660e01b81526004016110d993929190612151565b6020604051808303816000875af11580156110f8573d6000803e3d6000fd5b505050506040513d601f19601f8201168201806040525081019061111c91906121b4565b508373ffffffffffffffffffffffffffffffffffffffff1663a9059cbb33836040518363ffffffff1660e01b815260040161115892919061243f565b6020604051808303816000875af1158015611177573d6000803e3d6000fd5b505050506040513d601f19601f8201168201806040525081019061119b91906121b4565b506112dc600460009054906101000a900473ffffffffffffffffffffffffffffffffffffffff1673ffffffffffffffffffffffffffffffffffffffff166370a08231306040518263ffffffff1660e01b81526004016111fa9190612326565b602060405180830381865afa158015611217573d6000803e3d6000fd5b505050506040513d601f19601f8201168201806040525081019061123b91906121f6565b600560009054906101000a900473ffffffffffffffffffffffffffffffffffffffff1673ffffffffffffffffffffffffffffffffffffffff166370a08231306040518263ffffffff1660e01b81526004016112969190612326565b602060405180830381865afa1580156112b3573d6000803e3d6000fd5b505050506040513d601f19601f820116820180604052508101906112d791906121f6565b611a63565b60019750505050505050509392505050565b600082600460009054906101000a900473ffffffffffffffffffffffffffffffffffffffff1673ffffffffffffffffffffffffffffffffffffffff168173ffffffffffffffffffffffffffffffffffffffff16148061139a5750600560009054906101000a900473ffffffffffffffffffffffffffffffffffffffff1673ffffffffffffffffffffffffffffffffffffffff168173ffffffffffffffffffffffffffffffffffffffff16145b6113d9576040517f08c379a00000000000000000000000000000000000000000000000000000000081526004016113d0906124b4565b60405180910390fd5b6000600460009054906101000a900473ffffffffffffffffffffffffffffffffffffffff1673ffffffffffffffffffffffffffffffffffffffff168573ffffffffffffffffffffffffffffffffffffffff161490506000806000808461148a57600560009054906101000a900473ffffffffffffffffffffffffffffffffffffffff16600460009054906101000a900473ffffffffffffffffffffffffffffffffffffffff166007546006546114d7565b600460009054906101000a900473ffffffffffffffffffffffffffffffffffffffff16600560009054906101000a900473ffffffffffffffffffffffffffffffffffffffff166006546007545b93509350935093506114ea8883836117fb565b96508373ffffffffffffffffffffffffffffffffffffffff166323b872dd33308b6040518463ffffffff1660e01b815260040161152993929190612151565b6020604051808303816000875af1158015611548573d6000803e3d6000fd5b505050506040513d601f19601f8201168201806040525081019061156c91906121b4565b508273ffffffffffffffffffffffffffffffffffffffff1663a9059cbb33896040518363ffffffff1660e01b81526004016115a892919061243f565b6020604051808303816000875af11580156115c7573d6000803e3d6000fd5b505050506040513d601f19601f820116820180604052508101906115eb91906121b4565b5061172c600460009054906101000a900473ffffffffffffffffffffffffffffffffffffffff1673ffffffffffffffffffffffffffffffffffffffff166370a08231306040518263ffffffff1660e01b815260040161164a9190612326565b602060405180830381865afa158015611667573d6000803e3d6000fd5b505050506040513d601f19601f8201168201806040525081019061168b91906121f6565b600560009054906101000a900473ffffffffffffffffffffffffffffffffffffffff1673ffffffffffffffffffffffffffffffffffffffff166370a08231306040518263ffffffff1660e01b81526004016116e69190612326565b602060405180830381865afa158015611703573d6000803e3d6000fd5b505050506040513d601f19601f8201168201806040525081019061172791906121f6565b611a63565b50505050505092915050565b600460009054906101000a900473ffffffffffffffffffffffffffffffffffffffff1681565b600080600260009054906101000a900473ffffffffffffffffffffffffffffffffffffffff1690508073ffffffffffffffffffffffffffffffffffffffff166318160ddd6040518163ffffffff1660e01b8152600401602060405180830381865afa1580156117d1573d6000803e3d6000fd5b505050506040513d601f19601f820116820180604052508101906117f591906121f6565b91505090565b6000806127106126f28661180f9190612100565b6118199190612252565b905080846118279190612566565b81846118339190612100565b61183d9190612252565b9150509392505050565b600360009054906101000a900473ffffffffffffffffffffffffffffffffffffffff1681565b80600260006101000a81548173ffffffffffffffffffffffffffffffffffffffff021916908373ffffffffffffffffffffffffffffffffffffffff16021790555050565b6000806000600654600754876118c79190612100565b6118d19190612252565b90506000612710856127106118e6919061259a565b876118f19190612100565b6118fb9190612252565b905080821015801561190d5750858211155b1561191f5786829350935050506119c7565b6000600754600654886119329190612100565b61193c9190612252565b9050600061271087612710611951919061259a565b8a61195c9190612100565b6119669190612252565b90508082101580156119785750888211155b1561198c57818895509550505050506119c7565b6040517f08c379a00000000000000000000000000000000000000000000000000000000081526004016119be90612640565b60405180910390fd5b935093915050565b60006003821115611a3657819050600060016002846119ee9190612252565b6119f89190612566565b90505b81811015611a30578091506002818285611a159190612252565b611a1f9190612566565b611a299190612252565b90506119fb565b50611a44565b60008214611a4357600190505b5b919050565b600081831115611a595781611a5b565b825b905092915050565b81600681905550806007819055505050565b6000805442611a849190612566565b90506000600160003373ffffffffffffffffffffffffffffffffffffffff1673ffffffffffffffffffffffffffffffffffffffff168152602001908152602001600020600001541115611b94576000600160003373ffffffffffffffffffffffffffffffffffffffff1673ffffffffffffffffffffffffffffffffffffffff1681526020019081526020016000206000015483611b219190612566565b9050604051806040016040528082815260200183815250600160003373ffffffffffffffffffffffffffffffffffffffff1673ffffffffffffffffffffffffffffffffffffffff168152602001908152602001600020600082015181600001556020820151816001015590505050611c00565b604051806040016040528083815260200182815250600160003373ffffffffffffffffffffffffffffffffffffffff1673ffffffffffffffffffffffffffffffffffffffff16815260200190815260200160002060008201518160000155602082015181600101559050505b600360009054906101000a900473ffffffffffffffffffffffffffffffffffffffff1673ffffffffffffffffffffffffffffffffffffffff166340c10f1933846040518363ffffffff1660e01b8152600401611c5d92919061243f565b600060405180830381600087803b158015611c7757600080fd5b505af1158015611c8b573d6000803e3d6000fd5b505050505050565b80600160003373ffffffffffffffffffffffffffffffffffffffff1673ffffffffffffffffffffffffffffffffffffffff16815260200190815260200160002060000154611ce1919061259a565b600160003373ffffffffffffffffffffffffffffffffffffffff1673ffffffffffffffffffffffffffffffffffffffff16815260200190815260200160002060000181905550600360009054906101000a900473ffffffffffffffffffffffffffffffffffffffff1673ffffffffffffffffffffffffffffffffffffffff16639dc29fac33836040518363ffffffff1660e01b8152600401611d8492919061243f565b600060405180830381600087803b158015611d9e57600080fd5b505af1158015611db2573d6000803e3d6000fd5b5050505050565b600073ffffffffffffffffffffffffffffffffffffffff82169050919050565b6000819050919050565b6000611dfe611df9611df484611db9565b611dd9565b611db9565b9050919050565b6000611e1082611de3565b9050919050565b6000611e2282611e05565b9050919050565b611e3281611e17565b82525050565b6000602082019050611e4d6000830184611e29565b92915050565b6000819050919050565b611e6681611e53565b82525050565b6000602082019050611e816000830184611e5d565b92915050565b600080fd5b611e9581611e53565b8114611ea057600080fd5b50565b600081359050611eb281611e8c565b92915050565b600080600060608486031215611ed157611ed0611e87565b5b6000611edf86828701611ea3565b9350506020611ef086828701611ea3565b9250506040611f0186828701611ea3565b9150509250925092565b600060208284031215611f2157611f20611e87565b5b6000611f2f84828501611ea3565b91505092915050565b6000604082019050611f4d6000830185611e5d565b611f5a6020830184611e5d565b9392505050565b6000611f6c82611db9565b9050919050565b611f7c81611f61565b8114611f8757600080fd5b50565b600081359050611f9981611f73565b92915050565b600080600060608486031215611fb857611fb7611e87565b5b6000611fc686828701611f8a565b9350506020611fd786828701611ea3565b9250506040611fe886828701611ea3565b9150509250925092565b60008115159050919050565b61200781611ff2565b82525050565b60006020820190506120226000830184611ffe565b92915050565b6000806040838503121561203f5761203e611e87565b5b600061204d85828601611f8a565b925050602061205e85828601611ea3565b9150509250929050565b600061207382611e05565b9050919050565b61208381612068565b82525050565b600060208201905061209e600083018461207a565b92915050565b6000602082840312156120ba576120b9611e87565b5b60006120c884828501611f8a565b91505092915050565b7f4e487b7100000000000000000000000000000000000000000000000000000000600052601160045260246000fd5b600061210b82611e53565b915061211683611e53565b925082820261212481611e53565b9150828204841483151761213b5761213a6120d1565b5b5092915050565b61214b81611f61565b82525050565b60006060820190506121666000830186612142565b6121736020830185612142565b6121806040830184611e5d565b949350505050565b61219181611ff2565b811461219c57600080fd5b50565b6000815190506121ae81612188565b92915050565b6000602082840312156121ca576121c9611e87565b5b60006121d88482850161219f565b91505092915050565b6000815190506121f081611e8c565b92915050565b60006020828403121561220c5761220b611e87565b5b600061221a848285016121e1565b91505092915050565b7f4e487b7100000000000000000000000000000000000000000000000000000000600052601260045260246000fd5b600061225d82611e53565b915061226883611e53565b92508261227857612277612223565b5b828204905092915050565b600082825260208201905092915050565b7f4d696e74656420736861726573206d757374206265206772656174657220746860008201527f616e207a65726f00000000000000000000000000000000000000000000000000602082015250565b60006122f0602783612283565b91506122fb82612294565b604082019050919050565b6000602082019050818103600083015261231f816122e3565b9050919050565b600060208201905061233b6000830184612142565b92915050565b7f417474656d7074696e6720746f206275726e20746f6f206d616e79204c50205460008201527f6f6b656e73000000000000000000000000000000000000000000000000000000602082015250565b600061239d602583612283565b91506123a882612341565b604082019050919050565b600060208201905081810360008301526123cc81612390565b9050919050565b7f546f6f206561726c7920746f207769746864726177206c697175696469747900600082015250565b6000612409601f83612283565b9150612414826123d3565b602082019050919050565b60006020820190508181036000830152612438816123fc565b9050919050565b60006040820190506124546000830185612142565b6124616020830184611e5d565b9392505050565b7f496e76616c696420746f6b656e207479706520666f7220746869732073776170600082015250565b600061249e602083612283565b91506124a982612468565b602082019050919050565b600060208201905081810360008301526124cd81612491565b9050919050565b7f4f6e2d436861696e2065786368616e67652072617465206973206e6f7420776960008201527f7468696e20736c69707061676520626f756e6473207365742062792075736572602082015250565b6000612530604083612283565b915061253b826124d4565b604082019050919050565b6000602082019050818103600083015261255f81612523565b9050919050565b600061257182611e53565b915061257c83611e53565b9250828201905080821115612594576125936120d1565b5b92915050565b60006125a582611e53565b91506125b083611e53565b92508282039050818111156125c8576125c76120d1565b5b92915050565b7f536c69707061676520746f6c6572616e63652065786365656465642c2061646a60008201527f757374206c697175696469747920616d6f756e74730000000000000000000000602082015250565b600061262a603583612283565b9150612635826125ce565b604082019050919050565b600060208201905081810360008301526126598161261d565b905091905056fea2646970667358221220fe96b2a7edb8b204d2e9bdebe7925cfa249b2b62cc0d170444097ba2d12575d464736f6c63430008140033",
  "linkReferences": {},
  "deployedLinkReferences": {}
}