{"contracts/test.sol":{"PriceConsumer":{"abi":[{"inputs":[],"stateMutability":"nonpayable","type":"constructor"},{"inputs":[],"name":"calculateNewSwapFee","outputs":[{"internalType":"string","name":"","type":"string"}],"stateMutability":"view","type":"function"},{"inputs":[{"internalType":"uint256","name":"num1","type":"uint256"},{"internalType":"uint256","name":"num2","type":"uint256"}],"name":"calculatePercentageDifference","outputs":[{"internalType":"uint256","name":"","type":"uint256"}],"stateMutability":"pure","type":"function"},{"inputs":[],"name":"getChainlinkDataFeedLatestAnswer","outputs":[{"internalType":"uint256","name":"","type":"uint256"}],"stateMutability":"pure","type":"function"},{"inputs":[],"name":"getReserveRatio","outputs":[{"internalType":"uint256","name":"","type":"uint256"}],"stateMutability":"view","type":"function"},{"inputs":[],"name":"reserve1","outputs":[{"internalType":"uint256","name":"","type":"uint256"}],"stateMutability":"view","type":"function"},{"inputs":[],"name":"reserve2","outputs":[{"internalType":"uint256","name":"","type":"uint256"}],"stateMutability":"view","type":"function"},{"inputs":[{"internalType":"uint256","name":"_reserve1","type":"uint256"}],"name":"setReserve1","outputs":[{"internalType":"uint256","name":"","type":"uint256"}],"stateMutability":"nonpayable","type":"function"},{"inputs":[{"internalType":"uint256","name":"_reserve2","type":"uint256"}],"name":"setReserve2","outputs":[{"internalType":"uint256","name":"","type":"uint256"}],"stateMutability":"nonpayable","type":"function"},{"inputs":[{"internalType":"uint256","name":"amount","type":"uint256"}],"name":"withFee","outputs":[{"internalType":"uint256","name":"","type":"uint256"}],"stateMutability":"pure","type":"function"}],"evm":{"bytecode":{"linkReferences":{},"object":"60c0604052600080556000600155670de0b6b3a7640000608090815250660aa87bee53800060a0908152504260035534801561003a57600080fd5b5060805160a0516107cf61006060003960006102980152600061032c01526107cf6000f3fe608060405234801561001057600080fd5b50600436106100935760003560e01c80635a76f25e116100665780635a76f25e146101465780635c0b9a2b146101645780639b67684f14610182578063bea4dfb5146101b2578063ff7fd410146101d057610093565b806310e3b14914610098578063255021a2146100c85780633d65ce58146100f857806356b6d0d514610128575b600080fd5b6100b260048036038101906100ad91906104df565b6101ee565b6040516100bf919061052e565b60405180910390f35b6100e260048036038101906100dd9190610549565b610282565b6040516100ef919061052e565b60405180910390f35b610112600480360381019061010d9190610549565b6102f4565b60405161011f919061052e565b60405180910390f35b610130610307565b60405161013d919061052e565b60405180910390f35b61014e61036b565b60405161015b919061052e565b60405180910390f35b61016c610371565b604051610179919061052e565b60405180910390f35b61019c60048036038101906101979190610549565b610377565b6040516101a9919061052e565b60405180910390f35b6101ba61038a565b6040516101c7919061052e565b60405180910390f35b6101d861039a565b6040516101e59190610606565b60405180910390f35b6000808203610232576040517f08c379a000000000000000000000000000000000000000000000000000000000815260040161022990610674565b60405180910390fd5b600082841161024c57838361024791906106c3565b610259565b828461025891906106c3565b5b905060008360648361026b91906106f7565b6102759190610768565b9050809250505092915050565b600080670de0b6b3a764000066038d7ea4c680007f00000000000000000000000000000000000000000000000000000000000000006102c191906106f7565b6102cb9190610768565b670de0b6b3a76400006102de91906106c3565b836102e991906106f7565b905080915050919050565b6000816001819055506001549050919050565b60008060005411801561031c57506000600154115b61032557600080fd5b60006001547f000000000000000000000000000000000000000000000000000000000000000060005461035891906106f7565b6103629190610768565b90508091505090565b60005481565b60015481565b6000816000819055506000549050919050565b6000671bc16d674ec80000905090565b6060600080541180156103af57506000600154115b6103b857600080fd5b60006103c261038a565b905060006103ce610307565b905060006103e86103ed836103e391906106f7565b6103ed9190610768565b905060006103e86103e38461040291906106f7565b61040c9190610768565b905080841015801561041e5750818411155b15610464576040518060400160405280600c81526020017f57697468696e20726174696f00000000000000000000000000000000000000008152509450505050506104a1565b6040518060400160405280601081526020017f4e6f742077697468696e20726174696f000000000000000000000000000000008152509450505050505b90565b600080fd5b6000819050919050565b6104bc816104a9565b81146104c757600080fd5b50565b6000813590506104d9816104b3565b92915050565b600080604083850312156104f6576104f56104a4565b5b6000610504858286016104ca565b9250506020610515858286016104ca565b9150509250929050565b610528816104a9565b82525050565b6000602082019050610543600083018461051f565b92915050565b60006020828403121561055f5761055e6104a4565b5b600061056d848285016104ca565b91505092915050565b600081519050919050565b600082825260208201905092915050565b60005b838110156105b0578082015181840152602081019050610595565b60008484015250505050565b6000601f19601f8301169050919050565b60006105d882610576565b6105e28185610581565b93506105f2818560208601610592565b6105fb816105bc565b840191505092915050565b6000602082019050818103600083015261062081846105cd565b905092915050565b7f43616e6e6f7420646976696465206279207a65726f0000000000000000000000600082015250565b600061065e601583610581565b915061066982610628565b602082019050919050565b6000602082019050818103600083015261068d81610651565b9050919050565b7f4e487b7100000000000000000000000000000000000000000000000000000000600052601160045260246000fd5b60006106ce826104a9565b91506106d9836104a9565b92508282039050818111156106f1576106f0610694565b5b92915050565b6000610702826104a9565b915061070d836104a9565b925082820261071b816104a9565b9150828204841483151761073257610731610694565b5b5092915050565b7f4e487b7100000000000000000000000000000000000000000000000000000000600052601260045260246000fd5b6000610773826104a9565b915061077e836104a9565b92508261078e5761078d610739565b5b82820490509291505056fea2646970667358221220b5846006550cd272c55d789a188908e55d288a3b71538959cafbe6586844872a64736f6c63430008140033","opcodes":"PUSH1 0xC0 PUSH1 0x40 MSTORE PUSH1 0x0 DUP1 SSTORE PUSH1 0x0 PUSH1 0x1 SSTORE PUSH8 0xDE0B6B3A7640000 PUSH1 0x80 SWAP1 DUP2 MSTORE POP PUSH7 0xAA87BEE538000 PUSH1 0xA0 SWAP1 DUP2 MSTORE POP TIMESTAMP PUSH1 0x3 SSTORE CALLVALUE DUP1 ISZERO PUSH2 0x3A JUMPI PUSH1 0x0 DUP1 REVERT JUMPDEST POP PUSH1 0x80 MLOAD PUSH1 0xA0 MLOAD PUSH2 0x7CF PUSH2 0x60 PUSH1 0x0 CODECOPY PUSH1 0x0 PUSH2 0x298 ADD MSTORE PUSH1 0x0 PUSH2 0x32C ADD MSTORE PUSH2 0x7CF PUSH1 0x0 RETURN INVALID PUSH1 0x80 PUSH1 0x40 MSTORE CALLVALUE DUP1 ISZERO PUSH2 0x10 JUMPI PUSH1 0x0 DUP1 REVERT JUMPDEST POP PUSH1 0x4 CALLDATASIZE LT PUSH2 0x93 JUMPI PUSH1 0x0 CALLDATALOAD PUSH1 0xE0 SHR DUP1 PUSH4 0x5A76F25E GT PUSH2 0x66 JUMPI DUP1 PUSH4 0x5A76F25E EQ PUSH2 0x146 JUMPI DUP1 PUSH4 0x5C0B9A2B EQ PUSH2 0x164 JUMPI DUP1 PUSH4 0x9B67684F EQ PUSH2 0x182 JUMPI DUP1 PUSH4 0xBEA4DFB5 EQ PUSH2 0x1B2 JUMPI DUP1 PUSH4 0xFF7FD410 EQ PUSH2 0x1D0 JUMPI PUSH2 0x93 JUMP JUMPDEST DUP1 PUSH4 0x10E3B149 EQ PUSH2 0x98 JUMPI DUP1 PUSH4 0x255021A2 EQ PUSH2 0xC8 JUMPI DUP1 PUSH4 0x3D65CE58 EQ PUSH2 0xF8 JUMPI DUP1 PUSH4 0x56B6D0D5 EQ PUSH2 0x128 JUMPI JUMPDEST PUSH1 0x0 DUP1 REVERT JUMPDEST PUSH2 0xB2 PUSH1 0x4 DUP1 CALLDATASIZE SUB DUP2 ADD SWAP1 PUSH2 0xAD SWAP2 SWAP1 PUSH2 0x4DF JUMP JUMPDEST PUSH2 0x1EE JUMP JUMPDEST PUSH1 0x40 MLOAD PUSH2 0xBF SWAP2 SWAP1 PUSH2 0x52E JUMP JUMPDEST PUSH1 0x40 MLOAD DUP1 SWAP2 SUB SWAP1 RETURN JUMPDEST PUSH2 0xE2 PUSH1 0x4 DUP1 CALLDATASIZE SUB DUP2 ADD SWAP1 PUSH2 0xDD SWAP2 SWAP1 PUSH2 0x549 JUMP JUMPDEST PUSH2 0x282 JUMP JUMPDEST PUSH1 0x40 MLOAD PUSH2 0xEF SWAP2 SWAP1 PUSH2 0x52E JUMP JUMPDEST PUSH1 0x40 MLOAD DUP1 SWAP2 SUB SWAP1 RETURN JUMPDEST PUSH2 0x112 PUSH1 0x4 DUP1 CALLDATASIZE SUB DUP2 ADD SWAP1 PUSH2 0x10D SWAP2 SWAP1 PUSH2 0x549 JUMP JUMPDEST PUSH2 0x2F4 JUMP JUMPDEST PUSH1 0x40 MLOAD PUSH2 0x11F SWAP2 SWAP1 PUSH2 0x52E JUMP JUMPDEST PUSH1 0x40 MLOAD DUP1 SWAP2 SUB SWAP1 RETURN JUMPDEST PUSH2 0x130 PUSH2 0x307 JUMP JUMPDEST PUSH1 0x40 MLOAD PUSH2 0x13D SWAP2 SWAP1 PUSH2 0x52E JUMP JUMPDEST PUSH1 0x40 MLOAD DUP1 SWAP2 SUB SWAP1 RETURN JUMPDEST PUSH2 0x14E PUSH2 0x36B JUMP JUMPDEST PUSH1 0x40 MLOAD PUSH2 0x15B SWAP2 SWAP1 PUSH2 0x52E JUMP JUMPDEST PUSH1 0x40 MLOAD DUP1 SWAP2 SUB SWAP1 RETURN JUMPDEST PUSH2 0x16C PUSH2 0x371 JUMP JUMPDEST PUSH1 0x40 MLOAD PUSH2 0x179 SWAP2 SWAP1 PUSH2 0x52E JUMP JUMPDEST PUSH1 0x40 MLOAD DUP1 SWAP2 SUB SWAP1 RETURN JUMPDEST PUSH2 0x19C PUSH1 0x4 DUP1 CALLDATASIZE SUB DUP2 ADD SWAP1 PUSH2 0x197 SWAP2 SWAP1 PUSH2 0x549 JUMP JUMPDEST PUSH2 0x377 JUMP JUMPDEST PUSH1 0x40 MLOAD PUSH2 0x1A9 SWAP2 SWAP1 PUSH2 0x52E JUMP JUMPDEST PUSH1 0x40 MLOAD DUP1 SWAP2 SUB SWAP1 RETURN JUMPDEST PUSH2 0x1BA PUSH2 0x38A JUMP JUMPDEST PUSH1 0x40 MLOAD PUSH2 0x1C7 SWAP2 SWAP1 PUSH2 0x52E JUMP JUMPDEST PUSH1 0x40 MLOAD DUP1 SWAP2 SUB SWAP1 RETURN JUMPDEST PUSH2 0x1D8 PUSH2 0x39A JUMP JUMPDEST PUSH1 0x40 MLOAD PUSH2 0x1E5 SWAP2 SWAP1 PUSH2 0x606 JUMP JUMPDEST PUSH1 0x40 MLOAD DUP1 SWAP2 SUB SWAP1 RETURN JUMPDEST PUSH1 0x0 DUP1 DUP3 SUB PUSH2 0x232 JUMPI PUSH1 0x40 MLOAD PUSH32 0x8C379A000000000000000000000000000000000000000000000000000000000 DUP2 MSTORE PUSH1 0x4 ADD PUSH2 0x229 SWAP1 PUSH2 0x674 JUMP JUMPDEST PUSH1 0x40 MLOAD DUP1 SWAP2 SUB SWAP1 REVERT JUMPDEST PUSH1 0x0 DUP3 DUP5 GT PUSH2 0x24C JUMPI DUP4 DUP4 PUSH2 0x247 SWAP2 SWAP1 PUSH2 0x6C3 JUMP JUMPDEST PUSH2 0x259 JUMP JUMPDEST DUP3 DUP5 PUSH2 0x258 SWAP2 SWAP1 PUSH2 0x6C3 JUMP JUMPDEST JUMPDEST SWAP1 POP PUSH1 0x0 DUP4 PUSH1 0x64 DUP4 PUSH2 0x26B SWAP2 SWAP1 PUSH2 0x6F7 JUMP JUMPDEST PUSH2 0x275 SWAP2 SWAP1 PUSH2 0x768 JUMP JUMPDEST SWAP1 POP DUP1 SWAP3 POP POP POP SWAP3 SWAP2 POP POP JUMP JUMPDEST PUSH1 0x0 DUP1 PUSH8 0xDE0B6B3A7640000 PUSH7 0x38D7EA4C68000 PUSH32 0x0 PUSH2 0x2C1 SWAP2 SWAP1 PUSH2 0x6F7 JUMP JUMPDEST PUSH2 0x2CB SWAP2 SWAP1 PUSH2 0x768 JUMP JUMPDEST PUSH8 0xDE0B6B3A7640000 PUSH2 0x2DE SWAP2 SWAP1 PUSH2 0x6C3 JUMP JUMPDEST DUP4 PUSH2 0x2E9 SWAP2 SWAP1 PUSH2 0x6F7 JUMP JUMPDEST SWAP1 POP DUP1 SWAP2 POP POP SWAP2 SWAP1 POP JUMP JUMPDEST PUSH1 0x0 DUP2 PUSH1 0x1 DUP2 SWAP1 SSTORE POP PUSH1 0x1 SLOAD SWAP1 POP SWAP2 SWAP1 POP JUMP JUMPDEST PUSH1 0x0 DUP1 PUSH1 0x0 SLOAD GT DUP1 ISZERO PUSH2 0x31C JUMPI POP PUSH1 0x0 PUSH1 0x1 SLOAD GT JUMPDEST PUSH2 0x325 JUMPI PUSH1 0x0 DUP1 REVERT JUMPDEST PUSH1 0x0 PUSH1 0x1 SLOAD PUSH32 0x0 PUSH1 0x0 SLOAD PUSH2 0x358 SWAP2 SWAP1 PUSH2 0x6F7 JUMP JUMPDEST PUSH2 0x362 SWAP2 SWAP1 PUSH2 0x768 JUMP JUMPDEST SWAP1 POP DUP1 SWAP2 POP POP SWAP1 JUMP JUMPDEST PUSH1 0x0 SLOAD DUP2 JUMP JUMPDEST PUSH1 0x1 SLOAD DUP2 JUMP JUMPDEST PUSH1 0x0 DUP2 PUSH1 0x0 DUP2 SWAP1 SSTORE POP PUSH1 0x0 SLOAD SWAP1 POP SWAP2 SWAP1 POP JUMP JUMPDEST PUSH1 0x0 PUSH8 0x1BC16D674EC80000 SWAP1 POP SWAP1 JUMP JUMPDEST PUSH1 0x60 PUSH1 0x0 DUP1 SLOAD GT DUP1 ISZERO PUSH2 0x3AF JUMPI POP PUSH1 0x0 PUSH1 0x1 SLOAD GT JUMPDEST PUSH2 0x3B8 JUMPI PUSH1 0x0 DUP1 REVERT JUMPDEST PUSH1 0x0 PUSH2 0x3C2 PUSH2 0x38A JUMP JUMPDEST SWAP1 POP PUSH1 0x0 PUSH2 0x3CE PUSH2 0x307 JUMP JUMPDEST SWAP1 POP PUSH1 0x0 PUSH2 0x3E8 PUSH2 0x3ED DUP4 PUSH2 0x3E3 SWAP2 SWAP1 PUSH2 0x6F7 JUMP JUMPDEST PUSH2 0x3ED SWAP2 SWAP1 PUSH2 0x768 JUMP JUMPDEST SWAP1 POP PUSH1 0x0 PUSH2 0x3E8 PUSH2 0x3E3 DUP5 PUSH2 0x402 SWAP2 SWAP1 PUSH2 0x6F7 JUMP JUMPDEST PUSH2 0x40C SWAP2 SWAP1 PUSH2 0x768 JUMP JUMPDEST SWAP1 POP DUP1 DUP5 LT ISZERO DUP1 ISZERO PUSH2 0x41E JUMPI POP DUP2 DUP5 GT ISZERO JUMPDEST ISZERO PUSH2 0x464 JUMPI PUSH1 0x40 MLOAD DUP1 PUSH1 0x40 ADD PUSH1 0x40 MSTORE DUP1 PUSH1 0xC DUP2 MSTORE PUSH1 0x20 ADD PUSH32 0x57697468696E20726174696F0000000000000000000000000000000000000000 DUP2 MSTORE POP SWAP5 POP POP POP POP POP PUSH2 0x4A1 JUMP JUMPDEST PUSH1 0x40 MLOAD DUP1 PUSH1 0x40 ADD PUSH1 0x40 MSTORE DUP1 PUSH1 0x10 DUP2 MSTORE PUSH1 0x20 ADD PUSH32 0x4E6F742077697468696E20726174696F00000000000000000000000000000000 DUP2 MSTORE POP SWAP5 POP POP POP POP POP JUMPDEST SWAP1 JUMP JUMPDEST PUSH1 0x0 DUP1 REVERT JUMPDEST PUSH1 0x0 DUP2 SWAP1 POP SWAP2 SWAP1 POP JUMP JUMPDEST PUSH2 0x4BC DUP2 PUSH2 0x4A9 JUMP JUMPDEST DUP2 EQ PUSH2 0x4C7 JUMPI PUSH1 0x0 DUP1 REVERT JUMPDEST POP JUMP JUMPDEST PUSH1 0x0 DUP2 CALLDATALOAD SWAP1 POP PUSH2 0x4D9 DUP2 PUSH2 0x4B3 JUMP JUMPDEST SWAP3 SWAP2 POP POP JUMP JUMPDEST PUSH1 0x0 DUP1 PUSH1 0x40 DUP4 DUP6 SUB SLT ISZERO PUSH2 0x4F6 JUMPI PUSH2 0x4F5 PUSH2 0x4A4 JUMP JUMPDEST JUMPDEST PUSH1 0x0 PUSH2 0x504 DUP6 DUP3 DUP7 ADD PUSH2 0x4CA JUMP JUMPDEST SWAP3 POP POP PUSH1 0x20 PUSH2 0x515 DUP6 DUP3 DUP7 ADD PUSH2 0x4CA JUMP JUMPDEST SWAP2 POP POP SWAP3 POP SWAP3 SWAP1 POP JUMP JUMPDEST PUSH2 0x528 DUP2 PUSH2 0x4A9 JUMP JUMPDEST DUP3 MSTORE POP POP JUMP JUMPDEST PUSH1 0x0 PUSH1 0x20 DUP3 ADD SWAP1 POP PUSH2 0x543 PUSH1 0x0 DUP4 ADD DUP5 PUSH2 0x51F JUMP JUMPDEST SWAP3 SWAP2 POP POP JUMP JUMPDEST PUSH1 0x0 PUSH1 0x20 DUP3 DUP5 SUB SLT ISZERO PUSH2 0x55F JUMPI PUSH2 0x55E PUSH2 0x4A4 JUMP JUMPDEST JUMPDEST PUSH1 0x0 PUSH2 0x56D DUP5 DUP3 DUP6 ADD PUSH2 0x4CA JUMP JUMPDEST SWAP2 POP POP SWAP3 SWAP2 POP POP JUMP JUMPDEST PUSH1 0x0 DUP2 MLOAD SWAP1 POP SWAP2 SWAP1 POP JUMP JUMPDEST PUSH1 0x0 DUP3 DUP3 MSTORE PUSH1 0x20 DUP3 ADD SWAP1 POP SWAP3 SWAP2 POP POP JUMP JUMPDEST PUSH1 0x0 JUMPDEST DUP4 DUP2 LT ISZERO PUSH2 0x5B0 JUMPI DUP1 DUP3 ADD MLOAD DUP2 DUP5 ADD MSTORE PUSH1 0x20 DUP2 ADD SWAP1 POP PUSH2 0x595 JUMP JUMPDEST PUSH1 0x0 DUP5 DUP5 ADD MSTORE POP POP POP POP JUMP JUMPDEST PUSH1 0x0 PUSH1 0x1F NOT PUSH1 0x1F DUP4 ADD AND SWAP1 POP SWAP2 SWAP1 POP JUMP JUMPDEST PUSH1 0x0 PUSH2 0x5D8 DUP3 PUSH2 0x576 JUMP JUMPDEST PUSH2 0x5E2 DUP2 DUP6 PUSH2 0x581 JUMP JUMPDEST SWAP4 POP PUSH2 0x5F2 DUP2 DUP6 PUSH1 0x20 DUP7 ADD PUSH2 0x592 JUMP JUMPDEST PUSH2 0x5FB DUP2 PUSH2 0x5BC JUMP JUMPDEST DUP5 ADD SWAP2 POP POP SWAP3 SWAP2 POP POP JUMP JUMPDEST PUSH1 0x0 PUSH1 0x20 DUP3 ADD SWAP1 POP DUP2 DUP2 SUB PUSH1 0x0 DUP4 ADD MSTORE PUSH2 0x620 DUP2 DUP5 PUSH2 0x5CD JUMP JUMPDEST SWAP1 POP SWAP3 SWAP2 POP POP JUMP JUMPDEST PUSH32 0x43616E6E6F7420646976696465206279207A65726F0000000000000000000000 PUSH1 0x0 DUP3 ADD MSTORE POP JUMP JUMPDEST PUSH1 0x0 PUSH2 0x65E PUSH1 0x15 DUP4 PUSH2 0x581 JUMP JUMPDEST SWAP2 POP PUSH2 0x669 DUP3 PUSH2 0x628 JUMP JUMPDEST PUSH1 0x20 DUP3 ADD SWAP1 POP SWAP2 SWAP1 POP JUMP JUMPDEST PUSH1 0x0 PUSH1 0x20 DUP3 ADD SWAP1 POP DUP2 DUP2 SUB PUSH1 0x0 DUP4 ADD MSTORE PUSH2 0x68D DUP2 PUSH2 0x651 JUMP JUMPDEST SWAP1 POP SWAP2 SWAP1 POP JUMP JUMPDEST PUSH32 0x4E487B7100000000000000000000000000000000000000000000000000000000 PUSH1 0x0 MSTORE PUSH1 0x11 PUSH1 0x4 MSTORE PUSH1 0x24 PUSH1 0x0 REVERT JUMPDEST PUSH1 0x0 PUSH2 0x6CE DUP3 PUSH2 0x4A9 JUMP JUMPDEST SWAP2 POP PUSH2 0x6D9 DUP4 PUSH2 0x4A9 JUMP JUMPDEST SWAP3 POP DUP3 DUP3 SUB SWAP1 POP DUP2 DUP2 GT ISZERO PUSH2 0x6F1 JUMPI PUSH2 0x6F0 PUSH2 0x694 JUMP JUMPDEST JUMPDEST SWAP3 SWAP2 POP POP JUMP JUMPDEST PUSH1 0x0 PUSH2 0x702 DUP3 PUSH2 0x4A9 JUMP JUMPDEST SWAP2 POP PUSH2 0x70D DUP4 PUSH2 0x4A9 JUMP JUMPDEST SWAP3 POP DUP3 DUP3 MUL PUSH2 0x71B DUP2 PUSH2 0x4A9 JUMP JUMPDEST SWAP2 POP DUP3 DUP3 DIV DUP5 EQ DUP4 ISZERO OR PUSH2 0x732 JUMPI PUSH2 0x731 PUSH2 0x694 JUMP JUMPDEST JUMPDEST POP SWAP3 SWAP2 POP POP JUMP JUMPDEST PUSH32 0x4E487B7100000000000000000000000000000000000000000000000000000000 PUSH1 0x0 MSTORE PUSH1 0x12 PUSH1 0x4 MSTORE PUSH1 0x24 PUSH1 0x0 REVERT JUMPDEST PUSH1 0x0 PUSH2 0x773 DUP3 PUSH2 0x4A9 JUMP JUMPDEST SWAP2 POP PUSH2 0x77E DUP4 PUSH2 0x4A9 JUMP JUMPDEST SWAP3 POP DUP3 PUSH2 0x78E JUMPI PUSH2 0x78D PUSH2 0x739 JUMP JUMPDEST JUMPDEST DUP3 DUP3 DIV SWAP1 POP SWAP3 SWAP2 POP POP JUMP INVALID LOG2 PUSH5 0x6970667358 0x22 SLT KECCAK256 0xB5 DUP5 PUSH1 0x6 SSTORE 0xC 0xD2 PUSH19 0xC55D789A188908E55D288A3B71538959CAFBE6 PC PUSH9 0x44872A64736F6C6343 STOP ADDMOD EQ STOP CALLER "},"methodIdentifiers":{"calculateNewSwapFee()":"ff7fd410","calculatePercentageDifference(uint256,uint256)":"10e3b149","getChainlinkDataFeedLatestAnswer()":"bea4dfb5","getReserveRatio()":"56b6d0d5","reserve1()":"5a76f25e","reserve2()":"5c0b9a2b","setReserve1(uint256)":"9b67684f","setReserve2(uint256)":"3d65ce58","withFee(uint256)":"255021a2"}}}}}