{"contracts/ratiotesting.sol":{"Ratios":{"abi":[{"inputs":[],"name":"calculateRatio","outputs":[{"internalType":"uint256","name":"","type":"uint256"}],"stateMutability":"view","type":"function"}],"evm":{"bytecode":{"linkReferences":{},"object":"6080604052670de0b6b3a7640000600055671bc16d674ec80000600155670de0b6b3a764000060025534801561003457600080fd5b506101b2806100446000396000f3fe608060405234801561001057600080fd5b506004361061002b5760003560e01c806383fc7a1c14610030575b600080fd5b61003861004e565b6040516100459190610090565b60405180910390f35b60008060015460025460005461006491906100da565b61006e919061014b565b90508091505090565b6000819050919050565b61008a81610077565b82525050565b60006020820190506100a56000830184610081565b92915050565b7f4e487b7100000000000000000000000000000000000000000000000000000000600052601160045260246000fd5b60006100e582610077565b91506100f083610077565b92508282026100fe81610077565b91508282048414831517610115576101146100ab565b5b5092915050565b7f4e487b7100000000000000000000000000000000000000000000000000000000600052601260045260246000fd5b600061015682610077565b915061016183610077565b9250826101715761017061011c565b5b82820490509291505056fea2646970667358221220397e5f93a9daeb4078f9b4de3eeefa481ce96467ff078f783b56c34df8e445cf64736f6c63430008140033","opcodes":"PUSH1 0x80 PUSH1 0x40 MSTORE PUSH8 0xDE0B6B3A7640000 PUSH1 0x0 SSTORE PUSH8 0x1BC16D674EC80000 PUSH1 0x1 SSTORE PUSH8 0xDE0B6B3A7640000 PUSH1 0x2 SSTORE CALLVALUE DUP1 ISZERO PUSH2 0x34 JUMPI PUSH1 0x0 DUP1 REVERT JUMPDEST POP PUSH2 0x1B2 DUP1 PUSH2 0x44 PUSH1 0x0 CODECOPY PUSH1 0x0 RETURN INVALID PUSH1 0x80 PUSH1 0x40 MSTORE CALLVALUE DUP1 ISZERO PUSH2 0x10 JUMPI PUSH1 0x0 DUP1 REVERT JUMPDEST POP PUSH1 0x4 CALLDATASIZE LT PUSH2 0x2B JUMPI PUSH1 0x0 CALLDATALOAD PUSH1 0xE0 SHR DUP1 PUSH4 0x83FC7A1C EQ PUSH2 0x30 JUMPI JUMPDEST PUSH1 0x0 DUP1 REVERT JUMPDEST PUSH2 0x38 PUSH2 0x4E JUMP JUMPDEST PUSH1 0x40 MLOAD PUSH2 0x45 SWAP2 SWAP1 PUSH2 0x90 JUMP JUMPDEST PUSH1 0x40 MLOAD DUP1 SWAP2 SUB SWAP1 RETURN JUMPDEST PUSH1 0x0 DUP1 PUSH1 0x1 SLOAD PUSH1 0x2 SLOAD PUSH1 0x0 SLOAD PUSH2 0x64 SWAP2 SWAP1 PUSH2 0xDA JUMP JUMPDEST PUSH2 0x6E SWAP2 SWAP1 PUSH2 0x14B JUMP JUMPDEST SWAP1 POP DUP1 SWAP2 POP POP SWAP1 JUMP JUMPDEST PUSH1 0x0 DUP2 SWAP1 POP SWAP2 SWAP1 POP JUMP JUMPDEST PUSH2 0x8A DUP2 PUSH2 0x77 JUMP JUMPDEST DUP3 MSTORE POP POP JUMP JUMPDEST PUSH1 0x0 PUSH1 0x20 DUP3 ADD SWAP1 POP PUSH2 0xA5 PUSH1 0x0 DUP4 ADD DUP5 PUSH2 0x81 JUMP JUMPDEST SWAP3 SWAP2 POP POP JUMP JUMPDEST PUSH32 0x4E487B7100000000000000000000000000000000000000000000000000000000 PUSH1 0x0 MSTORE PUSH1 0x11 PUSH1 0x4 MSTORE PUSH1 0x24 PUSH1 0x0 REVERT JUMPDEST PUSH1 0x0 PUSH2 0xE5 DUP3 PUSH2 0x77 JUMP JUMPDEST SWAP2 POP PUSH2 0xF0 DUP4 PUSH2 0x77 JUMP JUMPDEST SWAP3 POP DUP3 DUP3 MUL PUSH2 0xFE DUP2 PUSH2 0x77 JUMP JUMPDEST SWAP2 POP DUP3 DUP3 DIV DUP5 EQ DUP4 ISZERO OR PUSH2 0x115 JUMPI PUSH2 0x114 PUSH2 0xAB JUMP JUMPDEST JUMPDEST POP SWAP3 SWAP2 POP POP JUMP JUMPDEST PUSH32 0x4E487B7100000000000000000000000000000000000000000000000000000000 PUSH1 0x0 MSTORE PUSH1 0x12 PUSH1 0x4 MSTORE PUSH1 0x24 PUSH1 0x0 REVERT JUMPDEST PUSH1 0x0 PUSH2 0x156 DUP3 PUSH2 0x77 JUMP JUMPDEST SWAP2 POP PUSH2 0x161 DUP4 PUSH2 0x77 JUMP JUMPDEST SWAP3 POP DUP3 PUSH2 0x171 JUMPI PUSH2 0x170 PUSH2 0x11C JUMP JUMPDEST JUMPDEST DUP3 DUP3 DIV SWAP1 POP SWAP3 SWAP2 POP POP JUMP INVALID LOG2 PUSH5 0x6970667358 0x22 SLT KECCAK256 CODECOPY PUSH31 0x5F93A9DAEB4078F9B4DE3EEEFA481CE96467FF078F783B56C34DF8E445CF64 PUSH20 0x6F6C634300081400330000000000000000000000 "},"methodIdentifiers":{"calculateRatio()":"83fc7a1c"}}}}}