{"contracts/test.sol":{"PriceConsumer":{"abi":[{"inputs":[],"stateMutability":"nonpayable","type":"constructor"},{"inputs":[],"name":"calculateNewSwapFee","outputs":[{"internalType":"string","name":"","type":"string"}],"stateMutability":"view","type":"function"},{"inputs":[{"internalType":"uint256","name":"num1","type":"uint256"},{"internalType":"uint256","name":"num2","type":"uint256"}],"name":"calculatePercentageDifference","outputs":[{"internalType":"uint256","name":"","type":"uint256"}],"stateMutability":"pure","type":"function"},{"inputs":[],"name":"getChainlinkDataFeedLatestAnswer","outputs":[{"internalType":"uint256","name":"","type":"uint256"}],"stateMutability":"pure","type":"function"},{"inputs":[],"name":"getReserveRatio","outputs":[{"internalType":"uint256","name":"","type":"uint256"}],"stateMutability":"view","type":"function"},{"inputs":[],"name":"reserve1","outputs":[{"internalType":"uint256","name":"","type":"uint256"}],"stateMutability":"view","type":"function"},{"inputs":[],"name":"reserve2","outputs":[{"internalType":"uint256","name":"","type":"uint256"}],"stateMutability":"view","type":"function"},{"inputs":[{"internalType":"uint256","name":"_reserve1","type":"uint256"}],"name":"setReserve1","outputs":[{"internalType":"uint256","name":"","type":"uint256"}],"stateMutability":"nonpayable","type":"function"},{"inputs":[{"internalType":"uint256","name":"_reserve2","type":"uint256"}],"name":"setReserve2","outputs":[{"internalType":"uint256","name":"","type":"uint256"}],"stateMutability":"nonpayable","type":"function"},{"inputs":[{"internalType":"uint256","name":"amount","type":"uint256"}],"name":"withFee","outputs":[{"internalType":"uint256","name":"","type":"uint256"}],"stateMutability":"pure","type":"function"}],"evm":{"bytecode":{"linkReferences":{},"object":"60c06040526000805560006001556012608090815250660aa87bee53800060a0908152504260035534801561003357600080fd5b5060805160a05161094761005960003960006102900152600061031a01526109476000f3fe608060405234801561001057600080fd5b50600436106100935760003560e01c80635a76f25e116100665780635a76f25e146101465780635c0b9a2b146101645780639b67684f14610182578063bea4dfb5146101b2578063ff7fd410146101d057610093565b806310e3b14914610098578063255021a2146100c85780633d65ce58146100f857806356b6d0d514610128575b600080fd5b6100b260048036038101906100ad91906104d9565b6101ee565b6040516100bf9190610528565b60405180910390f35b6100e260048036038101906100dd9190610543565b610282565b6040516100ef9190610528565b60405180910390f35b610112600480360381019061010d9190610543565b6102e2565b60405161011f9190610528565b60405180910390f35b6101306102f5565b60405161013d9190610528565b60405180910390f35b61014e610365565b60405161015b9190610528565b60405180910390f35b61016c61036b565b6040516101799190610528565b60405180910390f35b61019c60048036038101906101979190610543565b610371565b6040516101a99190610528565b60405180910390f35b6101ba610384565b6040516101c79190610528565b60405180910390f35b6101d8610394565b6040516101e59190610600565b60405180910390f35b6000808203610232576040517f08c379a00000000000000000000000000000000000000000000000000000000081526004016102299061066e565b60405180910390fd5b600082841161024c57838361024791906106bd565b610259565b828461025891906106bd565b5b905060008360648361026b91906106f1565b6102759190610762565b9050809250505092915050565b600080670de0b6b3a76400007f0000000000000000000000000000000000000000000000000000000000000000670de0b6b3a76400006102c291906106bd565b846102cd91906106f1565b6102d79190610762565b905080915050919050565b6000816001819055506001549050919050565b60008060005411801561030a57506000600154115b61031357600080fd5b60006001547f0000000000000000000000000000000000000000000000000000000000000000600a61034591906108c6565b60005461035291906106f1565b61035c9190610762565b90508091505090565b60005481565b60015481565b6000816000819055506000549050919050565b6000671bc16d674ec80000905090565b6060600080541180156103a957506000600154115b6103b257600080fd5b60006103bc610384565b905060006103c86102f5565b905060006103e86103ed836103dd91906106f1565b6103e79190610762565b905060006103e86103e3846103fc91906106f1565b6104069190610762565b90508084101580156104185750818411155b1561045e576040518060400160405280600c81526020017f57697468696e20726174696f000000000000000000000000000000000000000081525094505050505061049b565b6040518060400160405280601081526020017f4e6f742077697468696e20726174696f000000000000000000000000000000008152509450505050505b90565b600080fd5b6000819050919050565b6104b6816104a3565b81146104c157600080fd5b50565b6000813590506104d3816104ad565b92915050565b600080604083850312156104f0576104ef61049e565b5b60006104fe858286016104c4565b925050602061050f858286016104c4565b9150509250929050565b610522816104a3565b82525050565b600060208201905061053d6000830184610519565b92915050565b6000602082840312156105595761055861049e565b5b6000610567848285016104c4565b91505092915050565b600081519050919050565b600082825260208201905092915050565b60005b838110156105aa57808201518184015260208101905061058f565b60008484015250505050565b6000601f19601f8301169050919050565b60006105d282610570565b6105dc818561057b565b93506105ec81856020860161058c565b6105f5816105b6565b840191505092915050565b6000602082019050818103600083015261061a81846105c7565b905092915050565b7f43616e6e6f7420646976696465206279207a65726f0000000000000000000000600082015250565b600061065860158361057b565b915061066382610622565b602082019050919050565b600060208201905081810360008301526106878161064b565b9050919050565b7f4e487b7100000000000000000000000000000000000000000000000000000000600052601160045260246000fd5b60006106c8826104a3565b91506106d3836104a3565b92508282039050818111156106eb576106ea61068e565b5b92915050565b60006106fc826104a3565b9150610707836104a3565b9250828202610715816104a3565b9150828204841483151761072c5761072b61068e565b5b5092915050565b7f4e487b7100000000000000000000000000000000000000000000000000000000600052601260045260246000fd5b600061076d826104a3565b9150610778836104a3565b92508261078857610787610733565b5b828204905092915050565b60008160011c9050919050565b6000808291508390505b60018511156107ea578086048111156107c6576107c561068e565b5b60018516156107d55780820291505b80810290506107e385610793565b94506107aa565b94509492505050565b60008261080357600190506108bf565b8161081157600090506108bf565b8160018114610827576002811461083157610860565b60019150506108bf565b60ff8411156108435761084261068e565b5b8360020a91508482111561085a5761085961068e565b5b506108bf565b5060208310610133831016604e8410600b84101617156108955782820a9050838111156108905761088f61068e565b5b6108bf565b6108a284848460016107a0565b925090508184048111156108b9576108b861068e565b5b81810290505b9392505050565b60006108d1826104a3565b91506108dc836104a3565b92506109097fffffffffffffffffffffffffffffffffffffffffffffffffffffffffffffffff84846107f3565b90509291505056fea264697066735822122057a31b7d81bd927355cb891f261359ceb6a4d2e2f66ef1464dd2fcb7d193d01a64736f6c63430008140033","opcodes":"PUSH1 0xC0 PUSH1 0x40 MSTORE PUSH1 0x0 DUP1 SSTORE PUSH1 0x0 PUSH1 0x1 SSTORE PUSH1 0x12 PUSH1 0x80 SWAP1 DUP2 MSTORE POP PUSH7 0xAA87BEE538000 PUSH1 0xA0 SWAP1 DUP2 MSTORE POP TIMESTAMP PUSH1 0x3 SSTORE CALLVALUE DUP1 ISZERO PUSH2 0x33 JUMPI PUSH1 0x0 DUP1 REVERT JUMPDEST POP PUSH1 0x80 MLOAD PUSH1 0xA0 MLOAD PUSH2 0x947 PUSH2 0x59 PUSH1 0x0 CODECOPY PUSH1 0x0 PUSH2 0x290 ADD MSTORE PUSH1 0x0 PUSH2 0x31A ADD MSTORE PUSH2 0x947 PUSH1 0x0 RETURN INVALID PUSH1 0x80 PUSH1 0x40 MSTORE CALLVALUE DUP1 ISZERO PUSH2 0x10 JUMPI PUSH1 0x0 DUP1 REVERT JUMPDEST POP PUSH1 0x4 CALLDATASIZE LT PUSH2 0x93 JUMPI PUSH1 0x0 CALLDATALOAD PUSH1 0xE0 SHR DUP1 PUSH4 0x5A76F25E GT PUSH2 0x66 JUMPI DUP1 PUSH4 0x5A76F25E EQ PUSH2 0x146 JUMPI DUP1 PUSH4 0x5C0B9A2B EQ PUSH2 0x164 JUMPI DUP1 PUSH4 0x9B67684F EQ PUSH2 0x182 JUMPI DUP1 PUSH4 0xBEA4DFB5 EQ PUSH2 0x1B2 JUMPI DUP1 PUSH4 0xFF7FD410 EQ PUSH2 0x1D0 JUMPI PUSH2 0x93 JUMP JUMPDEST DUP1 PUSH4 0x10E3B149 EQ PUSH2 0x98 JUMPI DUP1 PUSH4 0x255021A2 EQ PUSH2 0xC8 JUMPI DUP1 PUSH4 0x3D65CE58 EQ PUSH2 0xF8 JUMPI DUP1 PUSH4 0x56B6D0D5 EQ PUSH2 0x128 JUMPI JUMPDEST PUSH1 0x0 DUP1 REVERT JUMPDEST PUSH2 0xB2 PUSH1 0x4 DUP1 CALLDATASIZE SUB DUP2 ADD SWAP1 PUSH2 0xAD SWAP2 SWAP1 PUSH2 0x4D9 JUMP JUMPDEST PUSH2 0x1EE JUMP JUMPDEST PUSH1 0x40 MLOAD PUSH2 0xBF SWAP2 SWAP1 PUSH2 0x528 JUMP JUMPDEST PUSH1 0x40 MLOAD DUP1 SWAP2 SUB SWAP1 RETURN JUMPDEST PUSH2 0xE2 PUSH1 0x4 DUP1 CALLDATASIZE SUB DUP2 ADD SWAP1 PUSH2 0xDD SWAP2 SWAP1 PUSH2 0x543 JUMP JUMPDEST PUSH2 0x282 JUMP JUMPDEST PUSH1 0x40 MLOAD PUSH2 0xEF SWAP2 SWAP1 PUSH2 0x528 JUMP JUMPDEST PUSH1 0x40 MLOAD DUP1 SWAP2 SUB SWAP1 RETURN JUMPDEST PUSH2 0x112 PUSH1 0x4 DUP1 CALLDATASIZE SUB DUP2 ADD SWAP1 PUSH2 0x10D SWAP2 SWAP1 PUSH2 0x543 JUMP JUMPDEST PUSH2 0x2E2 JUMP JUMPDEST PUSH1 0x40 MLOAD PUSH2 0x11F SWAP2 SWAP1 PUSH2 0x528 JUMP JUMPDEST PUSH1 0x40 MLOAD DUP1 SWAP2 SUB SWAP1 RETURN JUMPDEST PUSH2 0x130 PUSH2 0x2F5 JUMP JUMPDEST PUSH1 0x40 MLOAD PUSH2 0x13D SWAP2 SWAP1 PUSH2 0x528 JUMP JUMPDEST PUSH1 0x40 MLOAD DUP1 SWAP2 SUB SWAP1 RETURN JUMPDEST PUSH2 0x14E PUSH2 0x365 JUMP JUMPDEST PUSH1 0x40 MLOAD PUSH2 0x15B SWAP2 SWAP1 PUSH2 0x528 JUMP JUMPDEST PUSH1 0x40 MLOAD DUP1 SWAP2 SUB SWAP1 RETURN JUMPDEST PUSH2 0x16C PUSH2 0x36B JUMP JUMPDEST PUSH1 0x40 MLOAD PUSH2 0x179 SWAP2 SWAP1 PUSH2 0x528 JUMP JUMPDEST PUSH1 0x40 MLOAD DUP1 SWAP2 SUB SWAP1 RETURN JUMPDEST PUSH2 0x19C PUSH1 0x4 DUP1 CALLDATASIZE SUB DUP2 ADD SWAP1 PUSH2 0x197 SWAP2 SWAP1 PUSH2 0x543 JUMP JUMPDEST PUSH2 0x371 JUMP JUMPDEST PUSH1 0x40 MLOAD PUSH2 0x1A9 SWAP2 SWAP1 PUSH2 0x528 JUMP JUMPDEST PUSH1 0x40 MLOAD DUP1 SWAP2 SUB SWAP1 RETURN JUMPDEST PUSH2 0x1BA PUSH2 0x384 JUMP JUMPDEST PUSH1 0x40 MLOAD PUSH2 0x1C7 SWAP2 SWAP1 PUSH2 0x528 JUMP JUMPDEST PUSH1 0x40 MLOAD DUP1 SWAP2 SUB SWAP1 RETURN JUMPDEST PUSH2 0x1D8 PUSH2 0x394 JUMP JUMPDEST PUSH1 0x40 MLOAD PUSH2 0x1E5 SWAP2 SWAP1 PUSH2 0x600 JUMP JUMPDEST PUSH1 0x40 MLOAD DUP1 SWAP2 SUB SWAP1 RETURN JUMPDEST PUSH1 0x0 DUP1 DUP3 SUB PUSH2 0x232 JUMPI PUSH1 0x40 MLOAD PUSH32 0x8C379A000000000000000000000000000000000000000000000000000000000 DUP2 MSTORE PUSH1 0x4 ADD PUSH2 0x229 SWAP1 PUSH2 0x66E JUMP JUMPDEST PUSH1 0x40 MLOAD DUP1 SWAP2 SUB SWAP1 REVERT JUMPDEST PUSH1 0x0 DUP3 DUP5 GT PUSH2 0x24C JUMPI DUP4 DUP4 PUSH2 0x247 SWAP2 SWAP1 PUSH2 0x6BD JUMP JUMPDEST PUSH2 0x259 JUMP JUMPDEST DUP3 DUP5 PUSH2 0x258 SWAP2 SWAP1 PUSH2 0x6BD JUMP JUMPDEST JUMPDEST SWAP1 POP PUSH1 0x0 DUP4 PUSH1 0x64 DUP4 PUSH2 0x26B SWAP2 SWAP1 PUSH2 0x6F1 JUMP JUMPDEST PUSH2 0x275 SWAP2 SWAP1 PUSH2 0x762 JUMP JUMPDEST SWAP1 POP DUP1 SWAP3 POP POP POP SWAP3 SWAP2 POP POP JUMP JUMPDEST PUSH1 0x0 DUP1 PUSH8 0xDE0B6B3A7640000 PUSH32 0x0 PUSH8 0xDE0B6B3A7640000 PUSH2 0x2C2 SWAP2 SWAP1 PUSH2 0x6BD JUMP JUMPDEST DUP5 PUSH2 0x2CD SWAP2 SWAP1 PUSH2 0x6F1 JUMP JUMPDEST PUSH2 0x2D7 SWAP2 SWAP1 PUSH2 0x762 JUMP JUMPDEST SWAP1 POP DUP1 SWAP2 POP POP SWAP2 SWAP1 POP JUMP JUMPDEST PUSH1 0x0 DUP2 PUSH1 0x1 DUP2 SWAP1 SSTORE POP PUSH1 0x1 SLOAD SWAP1 POP SWAP2 SWAP1 POP JUMP JUMPDEST PUSH1 0x0 DUP1 PUSH1 0x0 SLOAD GT DUP1 ISZERO PUSH2 0x30A JUMPI POP PUSH1 0x0 PUSH1 0x1 SLOAD GT JUMPDEST PUSH2 0x313 JUMPI PUSH1 0x0 DUP1 REVERT JUMPDEST PUSH1 0x0 PUSH1 0x1 SLOAD PUSH32 0x0 PUSH1 0xA PUSH2 0x345 SWAP2 SWAP1 PUSH2 0x8C6 JUMP JUMPDEST PUSH1 0x0 SLOAD PUSH2 0x352 SWAP2 SWAP1 PUSH2 0x6F1 JUMP JUMPDEST PUSH2 0x35C SWAP2 SWAP1 PUSH2 0x762 JUMP JUMPDEST SWAP1 POP DUP1 SWAP2 POP POP SWAP1 JUMP JUMPDEST PUSH1 0x0 SLOAD DUP2 JUMP JUMPDEST PUSH1 0x1 SLOAD DUP2 JUMP JUMPDEST PUSH1 0x0 DUP2 PUSH1 0x0 DUP2 SWAP1 SSTORE POP PUSH1 0x0 SLOAD SWAP1 POP SWAP2 SWAP1 POP JUMP JUMPDEST PUSH1 0x0 PUSH8 0x1BC16D674EC80000 SWAP1 POP SWAP1 JUMP JUMPDEST PUSH1 0x60 PUSH1 0x0 DUP1 SLOAD GT DUP1 ISZERO PUSH2 0x3A9 JUMPI POP PUSH1 0x0 PUSH1 0x1 SLOAD GT JUMPDEST PUSH2 0x3B2 JUMPI PUSH1 0x0 DUP1 REVERT JUMPDEST PUSH1 0x0 PUSH2 0x3BC PUSH2 0x384 JUMP JUMPDEST SWAP1 POP PUSH1 0x0 PUSH2 0x3C8 PUSH2 0x2F5 JUMP JUMPDEST SWAP1 POP PUSH1 0x0 PUSH2 0x3E8 PUSH2 0x3ED DUP4 PUSH2 0x3DD SWAP2 SWAP1 PUSH2 0x6F1 JUMP JUMPDEST PUSH2 0x3E7 SWAP2 SWAP1 PUSH2 0x762 JUMP JUMPDEST SWAP1 POP PUSH1 0x0 PUSH2 0x3E8 PUSH2 0x3E3 DUP5 PUSH2 0x3FC SWAP2 SWAP1 PUSH2 0x6F1 JUMP JUMPDEST PUSH2 0x406 SWAP2 SWAP1 PUSH2 0x762 JUMP JUMPDEST SWAP1 POP DUP1 DUP5 LT ISZERO DUP1 ISZERO PUSH2 0x418 JUMPI POP DUP2 DUP5 GT ISZERO JUMPDEST ISZERO PUSH2 0x45E JUMPI PUSH1 0x40 MLOAD DUP1 PUSH1 0x40 ADD PUSH1 0x40 MSTORE DUP1 PUSH1 0xC DUP2 MSTORE PUSH1 0x20 ADD PUSH32 0x57697468696E20726174696F0000000000000000000000000000000000000000 DUP2 MSTORE POP SWAP5 POP POP POP POP POP PUSH2 0x49B JUMP JUMPDEST PUSH1 0x40 MLOAD DUP1 PUSH1 0x40 ADD PUSH1 0x40 MSTORE DUP1 PUSH1 0x10 DUP2 MSTORE PUSH1 0x20 ADD PUSH32 0x4E6F742077697468696E20726174696F00000000000000000000000000000000 DUP2 MSTORE POP SWAP5 POP POP POP POP POP JUMPDEST SWAP1 JUMP JUMPDEST PUSH1 0x0 DUP1 REVERT JUMPDEST PUSH1 0x0 DUP2 SWAP1 POP SWAP2 SWAP1 POP JUMP JUMPDEST PUSH2 0x4B6 DUP2 PUSH2 0x4A3 JUMP JUMPDEST DUP2 EQ PUSH2 0x4C1 JUMPI PUSH1 0x0 DUP1 REVERT JUMPDEST POP JUMP JUMPDEST PUSH1 0x0 DUP2 CALLDATALOAD SWAP1 POP PUSH2 0x4D3 DUP2 PUSH2 0x4AD JUMP JUMPDEST SWAP3 SWAP2 POP POP JUMP JUMPDEST PUSH1 0x0 DUP1 PUSH1 0x40 DUP4 DUP6 SUB SLT ISZERO PUSH2 0x4F0 JUMPI PUSH2 0x4EF PUSH2 0x49E JUMP JUMPDEST JUMPDEST PUSH1 0x0 PUSH2 0x4FE DUP6 DUP3 DUP7 ADD PUSH2 0x4C4 JUMP JUMPDEST SWAP3 POP POP PUSH1 0x20 PUSH2 0x50F DUP6 DUP3 DUP7 ADD PUSH2 0x4C4 JUMP JUMPDEST SWAP2 POP POP SWAP3 POP SWAP3 SWAP1 POP JUMP JUMPDEST PUSH2 0x522 DUP2 PUSH2 0x4A3 JUMP JUMPDEST DUP3 MSTORE POP POP JUMP JUMPDEST PUSH1 0x0 PUSH1 0x20 DUP3 ADD SWAP1 POP PUSH2 0x53D PUSH1 0x0 DUP4 ADD DUP5 PUSH2 0x519 JUMP JUMPDEST SWAP3 SWAP2 POP POP JUMP JUMPDEST PUSH1 0x0 PUSH1 0x20 DUP3 DUP5 SUB SLT ISZERO PUSH2 0x559 JUMPI PUSH2 0x558 PUSH2 0x49E JUMP JUMPDEST JUMPDEST PUSH1 0x0 PUSH2 0x567 DUP5 DUP3 DUP6 ADD PUSH2 0x4C4 JUMP JUMPDEST SWAP2 POP POP SWAP3 SWAP2 POP POP JUMP JUMPDEST PUSH1 0x0 DUP2 MLOAD SWAP1 POP SWAP2 SWAP1 POP JUMP JUMPDEST PUSH1 0x0 DUP3 DUP3 MSTORE PUSH1 0x20 DUP3 ADD SWAP1 POP SWAP3 SWAP2 POP POP JUMP JUMPDEST PUSH1 0x0 JUMPDEST DUP4 DUP2 LT ISZERO PUSH2 0x5AA JUMPI DUP1 DUP3 ADD MLOAD DUP2 DUP5 ADD MSTORE PUSH1 0x20 DUP2 ADD SWAP1 POP PUSH2 0x58F JUMP JUMPDEST PUSH1 0x0 DUP5 DUP5 ADD MSTORE POP POP POP POP JUMP JUMPDEST PUSH1 0x0 PUSH1 0x1F NOT PUSH1 0x1F DUP4 ADD AND SWAP1 POP SWAP2 SWAP1 POP JUMP JUMPDEST PUSH1 0x0 PUSH2 0x5D2 DUP3 PUSH2 0x570 JUMP JUMPDEST PUSH2 0x5DC DUP2 DUP6 PUSH2 0x57B JUMP JUMPDEST SWAP4 POP PUSH2 0x5EC DUP2 DUP6 PUSH1 0x20 DUP7 ADD PUSH2 0x58C JUMP JUMPDEST PUSH2 0x5F5 DUP2 PUSH2 0x5B6 JUMP JUMPDEST DUP5 ADD SWAP2 POP POP SWAP3 SWAP2 POP POP JUMP JUMPDEST PUSH1 0x0 PUSH1 0x20 DUP3 ADD SWAP1 POP DUP2 DUP2 SUB PUSH1 0x0 DUP4 ADD MSTORE PUSH2 0x61A DUP2 DUP5 PUSH2 0x5C7 JUMP JUMPDEST SWAP1 POP SWAP3 SWAP2 POP POP JUMP JUMPDEST PUSH32 0x43616E6E6F7420646976696465206279207A65726F0000000000000000000000 PUSH1 0x0 DUP3 ADD MSTORE POP JUMP JUMPDEST PUSH1 0x0 PUSH2 0x658 PUSH1 0x15 DUP4 PUSH2 0x57B JUMP JUMPDEST SWAP2 POP PUSH2 0x663 DUP3 PUSH2 0x622 JUMP JUMPDEST PUSH1 0x20 DUP3 ADD SWAP1 POP SWAP2 SWAP1 POP JUMP JUMPDEST PUSH1 0x0 PUSH1 0x20 DUP3 ADD SWAP1 POP DUP2 DUP2 SUB PUSH1 0x0 DUP4 ADD MSTORE PUSH2 0x687 DUP2 PUSH2 0x64B JUMP JUMPDEST SWAP1 POP SWAP2 SWAP1 POP JUMP JUMPDEST PUSH32 0x4E487B7100000000000000000000000000000000000000000000000000000000 PUSH1 0x0 MSTORE PUSH1 0x11 PUSH1 0x4 MSTORE PUSH1 0x24 PUSH1 0x0 REVERT JUMPDEST PUSH1 0x0 PUSH2 0x6C8 DUP3 PUSH2 0x4A3 JUMP JUMPDEST SWAP2 POP PUSH2 0x6D3 DUP4 PUSH2 0x4A3 JUMP JUMPDEST SWAP3 POP DUP3 DUP3 SUB SWAP1 POP DUP2 DUP2 GT ISZERO PUSH2 0x6EB JUMPI PUSH2 0x6EA PUSH2 0x68E JUMP JUMPDEST JUMPDEST SWAP3 SWAP2 POP POP JUMP JUMPDEST PUSH1 0x0 PUSH2 0x6FC DUP3 PUSH2 0x4A3 JUMP JUMPDEST SWAP2 POP PUSH2 0x707 DUP4 PUSH2 0x4A3 JUMP JUMPDEST SWAP3 POP DUP3 DUP3 MUL PUSH2 0x715 DUP2 PUSH2 0x4A3 JUMP JUMPDEST SWAP2 POP DUP3 DUP3 DIV DUP5 EQ DUP4 ISZERO OR PUSH2 0x72C JUMPI PUSH2 0x72B PUSH2 0x68E JUMP JUMPDEST JUMPDEST POP SWAP3 SWAP2 POP POP JUMP JUMPDEST PUSH32 0x4E487B7100000000000000000000000000000000000000000000000000000000 PUSH1 0x0 MSTORE PUSH1 0x12 PUSH1 0x4 MSTORE PUSH1 0x24 PUSH1 0x0 REVERT JUMPDEST PUSH1 0x0 PUSH2 0x76D DUP3 PUSH2 0x4A3 JUMP JUMPDEST SWAP2 POP PUSH2 0x778 DUP4 PUSH2 0x4A3 JUMP JUMPDEST SWAP3 POP DUP3 PUSH2 0x788 JUMPI PUSH2 0x787 PUSH2 0x733 JUMP JUMPDEST JUMPDEST DUP3 DUP3 DIV SWAP1 POP SWAP3 SWAP2 POP POP JUMP JUMPDEST PUSH1 0x0 DUP2 PUSH1 0x1 SHR SWAP1 POP SWAP2 SWAP1 POP JUMP JUMPDEST PUSH1 0x0 DUP1 DUP3 SWAP2 POP DUP4 SWAP1 POP JUMPDEST PUSH1 0x1 DUP6 GT ISZERO PUSH2 0x7EA JUMPI DUP1 DUP7 DIV DUP2 GT ISZERO PUSH2 0x7C6 JUMPI PUSH2 0x7C5 PUSH2 0x68E JUMP JUMPDEST JUMPDEST PUSH1 0x1 DUP6 AND ISZERO PUSH2 0x7D5 JUMPI DUP1 DUP3 MUL SWAP2 POP JUMPDEST DUP1 DUP2 MUL SWAP1 POP PUSH2 0x7E3 DUP6 PUSH2 0x793 JUMP JUMPDEST SWAP5 POP PUSH2 0x7AA JUMP JUMPDEST SWAP5 POP SWAP5 SWAP3 POP POP POP JUMP JUMPDEST PUSH1 0x0 DUP3 PUSH2 0x803 JUMPI PUSH1 0x1 SWAP1 POP PUSH2 0x8BF JUMP JUMPDEST DUP2 PUSH2 0x811 JUMPI PUSH1 0x0 SWAP1 POP PUSH2 0x8BF JUMP JUMPDEST DUP2 PUSH1 0x1 DUP2 EQ PUSH2 0x827 JUMPI PUSH1 0x2 DUP2 EQ PUSH2 0x831 JUMPI PUSH2 0x860 JUMP JUMPDEST PUSH1 0x1 SWAP2 POP POP PUSH2 0x8BF JUMP JUMPDEST PUSH1 0xFF DUP5 GT ISZERO PUSH2 0x843 JUMPI PUSH2 0x842 PUSH2 0x68E JUMP JUMPDEST JUMPDEST DUP4 PUSH1 0x2 EXP SWAP2 POP DUP5 DUP3 GT ISZERO PUSH2 0x85A JUMPI PUSH2 0x859 PUSH2 0x68E JUMP JUMPDEST JUMPDEST POP PUSH2 0x8BF JUMP JUMPDEST POP PUSH1 0x20 DUP4 LT PUSH2 0x133 DUP4 LT AND PUSH1 0x4E DUP5 LT PUSH1 0xB DUP5 LT AND OR ISZERO PUSH2 0x895 JUMPI DUP3 DUP3 EXP SWAP1 POP DUP4 DUP2 GT ISZERO PUSH2 0x890 JUMPI PUSH2 0x88F PUSH2 0x68E JUMP JUMPDEST JUMPDEST PUSH2 0x8BF JUMP JUMPDEST PUSH2 0x8A2 DUP5 DUP5 DUP5 PUSH1 0x1 PUSH2 0x7A0 JUMP JUMPDEST SWAP3 POP SWAP1 POP DUP2 DUP5 DIV DUP2 GT ISZERO PUSH2 0x8B9 JUMPI PUSH2 0x8B8 PUSH2 0x68E JUMP JUMPDEST JUMPDEST DUP2 DUP2 MUL SWAP1 POP JUMPDEST SWAP4 SWAP3 POP POP POP JUMP JUMPDEST PUSH1 0x0 PUSH2 0x8D1 DUP3 PUSH2 0x4A3 JUMP JUMPDEST SWAP2 POP PUSH2 0x8DC DUP4 PUSH2 0x4A3 JUMP JUMPDEST SWAP3 POP PUSH2 0x909 PUSH32 0xFFFFFFFFFFFFFFFFFFFFFFFFFFFFFFFFFFFFFFFFFFFFFFFFFFFFFFFFFFFFFFFF DUP5 DUP5 PUSH2 0x7F3 JUMP JUMPDEST SWAP1 POP SWAP3 SWAP2 POP POP JUMP INVALID LOG2 PUSH5 0x6970667358 0x22 SLT KECCAK256 JUMPI LOG3 SHL PUSH30 0x81BD927355CB891F261359CEB6A4D2E2F66EF1464DD2FCB7D193D01A6473 PUSH16 0x6C634300081400330000000000000000 "},"methodIdentifiers":{"calculateNewSwapFee()":"ff7fd410","calculatePercentageDifference(uint256,uint256)":"10e3b149","getChainlinkDataFeedLatestAnswer()":"bea4dfb5","getReserveRatio()":"56b6d0d5","reserve1()":"5a76f25e","reserve2()":"5c0b9a2b","setReserve1(uint256)":"9b67684f","setReserve2(uint256)":"3d65ce58","withFee(uint256)":"255021a2"}}}}}