{
  "_format": "hh-sol-artifact-1",
  "contractName": "Ratios",
  "sourceName": "contracts/ratiotesting.sol",
  "abi": [
    {
      "inputs": [],
      "name": "calculateRatio",
      "outputs": [
        {
          "internalType": "uint256",
          "name": "",
          "type": "uint256"
        }
      ],
      "stateMutability": "view",
      "type": "function"
    }
  ],
  "bytecode": "0x6080604052670de0b6b3a7640000600055671bc16d674ec80000600155670de0b6b3a764000060025534801561003457600080fd5b506101b2806100446000396000f3fe608060405234801561001057600080fd5b506004361061002b5760003560e01c806383fc7a1c14610030575b600080fd5b61003861004e565b6040516100459190610090565b60405180910390f35b60008060015460025460005461006491906100da565b61006e919061014b565b90508091505090565b6000819050919050565b61008a81610077565b82525050565b60006020820190506100a56000830184610081565b92915050565b7f4e487b7100000000000000000000000000000000000000000000000000000000600052601160045260246000fd5b60006100e582610077565b91506100f083610077565b92508282026100fe81610077565b91508282048414831517610115576101146100ab565b5b5092915050565b7f4e487b7100000000000000000000000000000000000000000000000000000000600052601260045260246000fd5b600061015682610077565b915061016183610077565b9250826101715761017061011c565b5b82820490509291505056fea2646970667358221220397e5f93a9daeb4078f9b4de3eeefa481ce96467ff078f783b56c34df8e445cf64736f6c63430008140033",
  "linkReferences": {},
  "deployedLinkReferences": {}
}